{
  "_format": "hh-sol-artifact-1",
  "contractName": "Auction1",
  "sourceName": "contracts/Auction1.sol",
  "abi": [
    {
      "inputs": [],
      "stateMutability": "nonpayable",
      "type": "constructor"
    },
    {
      "inputs": [],
      "name": "admin",
      "outputs": [
        {
          "internalType": "address",
          "name": "",
          "type": "address"
        }
      ],
      "stateMutability": "view",
      "type": "function"
    },
    {
      "inputs": [
        {
          "internalType": "uint256",
          "name": "",
          "type": "uint256"
        }
      ],
      "name": "auctions",
      "outputs": [
        {
          "internalType": "address",
          "name": "seller",
          "type": "address"
        },
        {
          "internalType": "uint256",
          "name": "duration",
          "type": "uint256"
        },
        {
          "internalType": "uint256",
          "name": "startPrice",
          "type": "uint256"
        },
        {
          "internalType": "uint256",
          "name": "startTime",
          "type": "uint256"
        },
        {
          "internalType": "bool",
          "name": "ended",
          "type": "bool"
        },
        {
          "internalType": "address",
          "name": "highestBidder",
          "type": "address"
        },
        {
          "internalType": "uint256",
          "name": "highestBid",
          "type": "uint256"
        },
        {
          "internalType": "address",
          "name": "nftContract",
          "type": "address"
        },
        {
          "internalType": "uint256",
          "name": "tokenId",
          "type": "uint256"
        }
      ],
      "stateMutability": "view",
      "type": "function"
    },
    {
      "inputs": [
        {
          "internalType": "uint256",
          "name": "_duration",
          "type": "uint256"
        },
        {
          "internalType": "uint256",
          "name": "_startPrice",
          "type": "uint256"
        },
        {
          "internalType": "address",
          "name": "_nftContract",
          "type": "address"
        },
        {
          "internalType": "uint256",
          "name": "_tokenId",
          "type": "uint256"
        }
      ],
      "name": "createAuction",
      "outputs": [],
      "stateMutability": "nonpayable",
      "type": "function"
    },
    {
      "inputs": [],
      "name": "nextAuctionId",
      "outputs": [
        {
          "internalType": "uint256",
          "name": "",
          "type": "uint256"
        }
      ],
      "stateMutability": "view",
      "type": "function"
    },
    {
      "inputs": [
        {
          "internalType": "uint256",
          "name": "_auctionId",
          "type": "uint256"
        }
      ],
      "name": "playerBid",
      "outputs": [],
      "stateMutability": "payable",
      "type": "function"
    }
  ],
  "bytecode": "0x6080604052348015600f57600080fd5b5033600260006101000a81548173ffffffffffffffffffffffffffffffffffffffff021916908373ffffffffffffffffffffffffffffffffffffffff160217905550610c3d806100606000396000f3fe60806040526004361061004a5760003560e01c8063571a26a01461004f578063b1cb48ef14610094578063bd2c459b146100bd578063f851a440146100d9578063fc52848214610104575b600080fd5b34801561005b57600080fd5b5061007660048036038101906100719190610741565b61012f565b60405161008b999897969594939291906107d9565b60405180910390f35b3480156100a057600080fd5b506100bb60048036038101906100b69190610892565b6101ea565b005b6100d760048036038101906100d29190610741565b6104e5565b005b3480156100e557600080fd5b506100ee6106da565b6040516100fb91906108f9565b60405180910390f35b34801561011057600080fd5b50610119610700565b6040516101269190610914565b60405180910390f35b60006020528060005260406000206000915090508060000160009054906101000a900473ffffffffffffffffffffffffffffffffffffffff16908060010154908060020154908060030154908060040160009054906101000a900460ff16908060040160019054906101000a900473ffffffffffffffffffffffffffffffffffffffff16908060050154908060060160009054906101000a900473ffffffffffffffffffffffffffffffffffffffff16908060070154905089565b600260009054906101000a900473ffffffffffffffffffffffffffffffffffffffff1673ffffffffffffffffffffffffffffffffffffffff163373ffffffffffffffffffffffffffffffffffffffff161461027a576040517f08c379a00000000000000000000000000000000000000000000000000000000081526004016102719061098c565b60405180910390fd5b61ea6084116102be576040517f08c379a00000000000000000000000000000000000000000000000000000000081526004016102b5906109f8565b60405180910390fd5b60008311610301576040517f08c379a00000000000000000000000000000000000000000000000000000000081526004016102f890610a64565b60405180910390fd5b6040518061012001604052803373ffffffffffffffffffffffffffffffffffffffff168152602001858152602001848152602001428152602001600015158152602001600073ffffffffffffffffffffffffffffffffffffffff168152602001600081526020018373ffffffffffffffffffffffffffffffffffffffff16815260200182815250600080600154815260200190815260200160002060008201518160000160006101000a81548173ffffffffffffffffffffffffffffffffffffffff021916908373ffffffffffffffffffffffffffffffffffffffff16021790555060208201518160010155604082015181600201556060820151816003015560808201518160040160006101000a81548160ff02191690831515021790555060a08201518160040160016101000a81548173ffffffffffffffffffffffffffffffffffffffff021916908373ffffffffffffffffffffffffffffffffffffffff16021790555060c0820151816005015560e08201518160060160006101000a81548173ffffffffffffffffffffffffffffffffffffffff021916908373ffffffffffffffffffffffffffffffffffffffff1602179055506101008201518160070155905050600160008154809291906104da90610ab3565b919050555050505050565b600080600083815260200190815260200160002090508060040160009054906101000a900460ff1615801561052c5750428160010154826003015461052a9190610afb565b115b61056b576040517f08c379a000000000000000000000000000000000000000000000000000000000815260040161056290610b7b565b60405180910390fd5b80600501543410158015610583575080600201543410155b6105c2576040517f08c379a00000000000000000000000000000000000000000000000000000000081526004016105b990610be7565b60405180910390fd5b600073ffffffffffffffffffffffffffffffffffffffff168160040160019054906101000a900473ffffffffffffffffffffffffffffffffffffffff1673ffffffffffffffffffffffffffffffffffffffff161461068a578060040160019054906101000a900473ffffffffffffffffffffffffffffffffffffffff1673ffffffffffffffffffffffffffffffffffffffff166108fc82600501549081150290604051600060405180830381858888f19350505050158015610688573d6000803e3d6000fd5b505b338160040160016101000a81548173ffffffffffffffffffffffffffffffffffffffff021916908373ffffffffffffffffffffffffffffffffffffffff1602179055503481600501819055505050565b600260009054906101000a900473ffffffffffffffffffffffffffffffffffffffff1681565b60015481565b600080fd5b6000819050919050565b61071e8161070b565b811461072957600080fd5b50565b60008135905061073b81610715565b92915050565b60006020828403121561075757610756610706565b5b60006107658482850161072c565b91505092915050565b600073ffffffffffffffffffffffffffffffffffffffff82169050919050565b60006107998261076e565b9050919050565b6107a98161078e565b82525050565b6107b88161070b565b82525050565b60008115159050919050565b6107d3816107be565b82525050565b6000610120820190506107ef600083018c6107a0565b6107fc602083018b6107af565b610809604083018a6107af565b61081660608301896107af565b61082360808301886107ca565b61083060a08301876107a0565b61083d60c08301866107af565b61084a60e08301856107a0565b6108586101008301846107af565b9a9950505050505050505050565b61086f8161078e565b811461087a57600080fd5b50565b60008135905061088c81610866565b92915050565b600080600080608085870312156108ac576108ab610706565b5b60006108ba8782880161072c565b94505060206108cb8782880161072c565b93505060406108dc8782880161087d565b92505060606108ed8782880161072c565b91505092959194509250565b600060208201905061090e60008301846107a0565b92915050565b600060208201905061092960008301846107af565b92915050565b600082825260208201905092915050565b7f6f6e6c792061646d696e00000000000000000000000000000000000000000000600082015250565b6000610976600a8361092f565b915061098182610940565b602082019050919050565b600060208201905081810360008301526109a581610969565b9050919050565b7f6475726174696f6e206d757374206265203e2031206d696e7574650000000000600082015250565b60006109e2601b8361092f565b91506109ed826109ac565b602082019050919050565b60006020820190508181036000830152610a11816109d5565b9050919050565b7f73746172745072696365206d757374206265203e203000000000000000000000600082015250565b6000610a4e60168361092f565b9150610a5982610a18565b602082019050919050565b60006020820190508181036000830152610a7d81610a41565b9050919050565b7f4e487b7100000000000000000000000000000000000000000000000000000000600052601160045260246000fd5b6000610abe8261070b565b91507fffffffffffffffffffffffffffffffffffffffffffffffffffffffffffffffff8203610af057610aef610a84565b5b600182019050919050565b6000610b068261070b565b9150610b118361070b565b9250828201905080821115610b2957610b28610a84565b5b92915050565b7f61756374696f6e20656e64656400000000000000000000000000000000000000600082015250565b6000610b65600d8361092f565b9150610b7082610b2f565b602082019050919050565b60006020820190508181036000830152610b9481610b58565b9050919050565b7f626964206d757374206265203e3d207374617274507269636500000000000000600082015250565b6000610bd160198361092f565b9150610bdc82610b9b565b602082019050919050565b60006020820190508181036000830152610c0081610bc4565b905091905056fea26469706673582212203fbef626bc0382b01eecea6a4b685f570388d8f0aa11f776a16ff0bbb6ea671964736f6c634300081c0033",
  "linkReferences": {},
  "deployedLinkReferences": {}
}