{
  "_format": "hh-sol-artifact-1",
  "contractName": "TestERC721",
  "sourceName": "contracts/test/TestERC721.sol",
  "abi": [
    {
      "inputs": [],
      "stateMutability": "nonpayable",
      "type": "constructor"
    },
    {
      "inputs": [],
      "name": "ERC721EnumerableForbiddenBatchMint",
      "type": "error"
    },
    {
      "inputs": [
        {
          "internalType": "address",
          "name": "sender",
          "type": "address"
        },
        {
          "internalType": "uint256",
          "name": "tokenId",
          "type": "uint256"
        },
        {
          "internalType": "address",
          "name": "owner",
          "type": "address"
        }
      ],
      "name": "ERC721IncorrectOwner",
      "type": "error"
    },
    {
      "inputs": [
        {
          "internalType": "address",
          "name": "operator",
          "type": "address"
        },
        {
          "internalType": "uint256",
          "name": "tokenId",
          "type": "uint256"
        }
      ],
      "name": "ERC721InsufficientApproval",
      "type": "error"
    },
    {
      "inputs": [
        {
          "internalType": "address",
          "name": "approver",
          "type": "address"
        }
      ],
      "name": "ERC721InvalidApprover",
      "type": "error"
    },
    {
      "inputs": [
        {
          "internalType": "address",
          "name": "operator",
          "type": "address"
        }
      ],
      "name": "ERC721InvalidOperator",
      "type": "error"
    },
    {
      "inputs": [
        {
          "internalType": "address",
          "name": "owner",
          "type": "address"
        }
      ],
      "name": "ERC721InvalidOwner",
      "type": "error"
    },
    {
      "inputs": [
        {
          "internalType": "address",
          "name": "receiver",
          "type": "address"
        }
      ],
      "name": "ERC721InvalidReceiver",
      "type": "error"
    },
    {
      "inputs": [
        {
          "internalType": "address",
          "name": "sender",
          "type": "address"
        }
      ],
      "name": "ERC721InvalidSender",
      "type": "error"
    },
    {
      "inputs": [
        {
          "internalType": "uint256",
          "name": "tokenId",
          "type": "uint256"
        }
      ],
      "name": "ERC721NonexistentToken",
      "type": "error"
    },
    {
      "inputs": [
        {
          "internalType": "address",
          "name": "owner",
          "type": "address"
        },
        {
          "internalType": "uint256",
          "name": "index",
          "type": "uint256"
        }
      ],
      "name": "ERC721OutOfBoundsIndex",
      "type": "error"
    },
    {
      "inputs": [
        {
          "internalType": "address",
          "name": "owner",
          "type": "address"
        }
      ],
      "name": "OwnableInvalidOwner",
      "type": "error"
    },
    {
      "inputs": [
        {
          "internalType": "address",
          "name": "account",
          "type": "address"
        }
      ],
      "name": "OwnableUnauthorizedAccount",
      "type": "error"
    },
    {
      "anonymous": false,
      "inputs": [
        {
          "indexed": true,
          "internalType": "address",
          "name": "owner",
          "type": "address"
        },
        {
          "indexed": true,
          "internalType": "address",
          "name": "approved",
          "type": "address"
        },
        {
          "indexed": true,
          "internalType": "uint256",
          "name": "tokenId",
          "type": "uint256"
        }
      ],
      "name": "Approval",
      "type": "event"
    },
    {
      "anonymous": false,
      "inputs": [
        {
          "indexed": true,
          "internalType": "address",
          "name": "owner",
          "type": "address"
        },
        {
          "indexed": true,
          "internalType": "address",
          "name": "operator",
          "type": "address"
        },
        {
          "indexed": false,
          "internalType": "bool",
          "name": "approved",
          "type": "bool"
        }
      ],
      "name": "ApprovalForAll",
      "type": "event"
    },
    {
      "anonymous": false,
      "inputs": [
        {
          "indexed": true,
          "internalType": "address",
          "name": "previousOwner",
          "type": "address"
        },
        {
          "indexed": true,
          "internalType": "address",
          "name": "newOwner",
          "type": "address"
        }
      ],
      "name": "OwnershipTransferred",
      "type": "event"
    },
    {
      "anonymous": false,
      "inputs": [
        {
          "indexed": true,
          "internalType": "address",
          "name": "from",
          "type": "address"
        },
        {
          "indexed": true,
          "internalType": "address",
          "name": "to",
          "type": "address"
        },
        {
          "indexed": true,
          "internalType": "uint256",
          "name": "tokenId",
          "type": "uint256"
        }
      ],
      "name": "Transfer",
      "type": "event"
    },
    {
      "inputs": [
        {
          "internalType": "address",
          "name": "to",
          "type": "address"
        },
        {
          "internalType": "uint256",
          "name": "tokenId",
          "type": "uint256"
        }
      ],
      "name": "approve",
      "outputs": [],
      "stateMutability": "nonpayable",
      "type": "function"
    },
    {
      "inputs": [
        {
          "internalType": "address",
          "name": "owner",
          "type": "address"
        }
      ],
      "name": "balanceOf",
      "outputs": [
        {
          "internalType": "uint256",
          "name": "",
          "type": "uint256"
        }
      ],
      "stateMutability": "view",
      "type": "function"
    },
    {
      "inputs": [
        {
          "internalType": "uint256",
          "name": "tokenId",
          "type": "uint256"
        }
      ],
      "name": "getApproved",
      "outputs": [
        {
          "internalType": "address",
          "name": "",
          "type": "address"
        }
      ],
      "stateMutability": "view",
      "type": "function"
    },
    {
      "inputs": [
        {
          "internalType": "address",
          "name": "owner",
          "type": "address"
        },
        {
          "internalType": "address",
          "name": "operator",
          "type": "address"
        }
      ],
      "name": "isApprovedForAll",
      "outputs": [
        {
          "internalType": "bool",
          "name": "",
          "type": "bool"
        }
      ],
      "stateMutability": "view",
      "type": "function"
    },
    {
      "inputs": [
        {
          "internalType": "address",
          "name": "to",
          "type": "address"
        },
        {
          "internalType": "uint256",
          "name": "tokenId",
          "type": "uint256"
        }
      ],
      "name": "mint",
      "outputs": [],
      "stateMutability": "nonpayable",
      "type": "function"
    },
    {
      "inputs": [],
      "name": "name",
      "outputs": [
        {
          "internalType": "string",
          "name": "",
          "type": "string"
        }
      ],
      "stateMutability": "view",
      "type": "function"
    },
    {
      "inputs": [],
      "name": "owner",
      "outputs": [
        {
          "internalType": "address",
          "name": "",
          "type": "address"
        }
      ],
      "stateMutability": "view",
      "type": "function"
    },
    {
      "inputs": [
        {
          "internalType": "uint256",
          "name": "tokenId",
          "type": "uint256"
        }
      ],
      "name": "ownerOf",
      "outputs": [
        {
          "internalType": "address",
          "name": "",
          "type": "address"
        }
      ],
      "stateMutability": "view",
      "type": "function"
    },
    {
      "inputs": [],
      "name": "renounceOwnership",
      "outputs": [],
      "stateMutability": "nonpayable",
      "type": "function"
    },
    {
      "inputs": [
        {
          "internalType": "address",
          "name": "from",
          "type": "address"
        },
        {
          "internalType": "address",
          "name": "to",
          "type": "address"
        },
        {
          "internalType": "uint256",
          "name": "tokenId",
          "type": "uint256"
        }
      ],
      "name": "safeTransferFrom",
      "outputs": [],
      "stateMutability": "nonpayable",
      "type": "function"
    },
    {
      "inputs": [
        {
          "internalType": "address",
          "name": "from",
          "type": "address"
        },
        {
          "internalType": "address",
          "name": "to",
          "type": "address"
        },
        {
          "internalType": "uint256",
          "name": "tokenId",
          "type": "uint256"
        },
        {
          "internalType": "bytes",
          "name": "data",
          "type": "bytes"
        }
      ],
      "name": "safeTransferFrom",
      "outputs": [],
      "stateMutability": "nonpayable",
      "type": "function"
    },
    {
      "inputs": [
        {
          "internalType": "address",
          "name": "operator",
          "type": "address"
        },
        {
          "internalType": "bool",
          "name": "approved",
          "type": "bool"
        }
      ],
      "name": "setApprovalForAll",
      "outputs": [],
      "stateMutability": "nonpayable",
      "type": "function"
    },
    {
      "inputs": [
        {
          "internalType": "string",
          "name": "newTokenURI",
          "type": "string"
        }
      ],
      "name": "setTokenURI",
      "outputs": [],
      "stateMutability": "nonpayable",
      "type": "function"
    },
    {
      "inputs": [
        {
          "internalType": "bytes4",
          "name": "interfaceId",
          "type": "bytes4"
        }
      ],
      "name": "supportsInterface",
      "outputs": [
        {
          "internalType": "bool",
          "name": "",
          "type": "bool"
        }
      ],
      "stateMutability": "view",
      "type": "function"
    },
    {
      "inputs": [],
      "name": "symbol",
      "outputs": [
        {
          "internalType": "string",
          "name": "",
          "type": "string"
        }
      ],
      "stateMutability": "view",
      "type": "function"
    },
    {
      "inputs": [
        {
          "internalType": "uint256",
          "name": "index",
          "type": "uint256"
        }
      ],
      "name": "tokenByIndex",
      "outputs": [
        {
          "internalType": "uint256",
          "name": "",
          "type": "uint256"
        }
      ],
      "stateMutability": "view",
      "type": "function"
    },
    {
      "inputs": [
        {
          "internalType": "address",
          "name": "owner",
          "type": "address"
        },
        {
          "internalType": "uint256",
          "name": "index",
          "type": "uint256"
        }
      ],
      "name": "tokenOfOwnerByIndex",
      "outputs": [
        {
          "internalType": "uint256",
          "name": "",
          "type": "uint256"
        }
      ],
      "stateMutability": "view",
      "type": "function"
    },
    {
      "inputs": [
        {
          "internalType": "uint256",
          "name": "tokenId",
          "type": "uint256"
        }
      ],
      "name": "tokenURI",
      "outputs": [
        {
          "internalType": "string",
          "name": "",
          "type": "string"
        }
      ],
      "stateMutability": "view",
      "type": "function"
    },
    {
      "inputs": [],
      "name": "totalSupply",
      "outputs": [
        {
          "internalType": "uint256",
          "name": "",
          "type": "uint256"
        }
      ],
      "stateMutability": "view",
      "type": "function"
    },
    {
      "inputs": [
        {
          "internalType": "address",
          "name": "from",
          "type": "address"
        },
        {
          "internalType": "address",
          "name": "to",
          "type": "address"
        },
        {
          "internalType": "uint256",
          "name": "tokenId",
          "type": "uint256"
        }
      ],
      "name": "transferFrom",
      "outputs": [],
      "stateMutability": "nonpayable",
      "type": "function"
    },
    {
      "inputs": [
        {
          "internalType": "address",
          "name": "newOwner",
          "type": "address"
        }
      ],
      "name": "transferOwnership",
      "outputs": [],
      "stateMutability": "nonpayable",
      "type": "function"
    }
  ],
  "bytecode": "0x608060405234801561001057600080fd5b50336040518060400160405280600a81526020017f54657374455243373231000000000000000000000000000000000000000000008152506040518060400160405280600781526020017f5445524337323100000000000000000000000000000000000000000000000000815250816000908161008d919061043d565b50806001908161009d919061043d565b505050600073ffffffffffffffffffffffffffffffffffffffff168173ffffffffffffffffffffffffffffffffffffffff16036101125760006040517f1e4fbdf70000000000000000000000000000000000000000000000000000000081526004016101099190610550565b60405180910390fd5b6101218161012760201b60201c565b5061056b565b6000600a60009054906101000a900473ffffffffffffffffffffffffffffffffffffffff16905081600a60006101000a81548173ffffffffffffffffffffffffffffffffffffffff021916908373ffffffffffffffffffffffffffffffffffffffff1602179055508173ffffffffffffffffffffffffffffffffffffffff168173ffffffffffffffffffffffffffffffffffffffff167f8be0079c531659141344cd1fd0a4f28419497f9722a3daafe3b4186f6b6457e060405160405180910390a35050565b600081519050919050565b7f4e487b7100000000000000000000000000000000000000000000000000000000600052604160045260246000fd5b7f4e487b7100000000000000000000000000000000000000000000000000000000600052602260045260246000fd5b6000600282049050600182168061026e57607f821691505b60208210810361028157610280610227565b5b50919050565b60008190508160005260206000209050919050565b60006020601f8301049050919050565b600082821b905092915050565b6000600883026102e97fffffffffffffffffffffffffffffffffffffffffffffffffffffffffffffffff826102ac565b6102f386836102ac565b95508019841693508086168417925050509392505050565b6000819050919050565b6000819050919050565b600061033a6103356103308461030b565b610315565b61030b565b9050919050565b6000819050919050565b6103548361031f565b61036861036082610341565b8484546102b9565b825550505050565b600090565b61037d610370565b61038881848461034b565b505050565b5b818110156103ac576103a1600082610375565b60018101905061038e565b5050565b601f8211156103f1576103c281610287565b6103cb8461029c565b810160208510156103da578190505b6103ee6103e68561029c565b83018261038d565b50505b505050565b600082821c905092915050565b6000610414600019846008026103f6565b1980831691505092915050565b600061042d8383610403565b9150826002028217905092915050565b610446826101ed565b67ffffffffffffffff81111561045f5761045e6101f8565b5b6104698254610256565b6104748282856103b0565b600060209050601f8311600181146104a75760008415610495578287015190505b61049f8582610421565b865550610507565b601f1984166104b586610287565b60005b828110156104dd578489015182556001820191506020850194506020810190506104b8565b868310156104fa57848901516104f6601f891682610403565b8355505b6001600288020188555050505b505050505050565b600073ffffffffffffffffffffffffffffffffffffffff82169050919050565b600061053a8261050f565b9050919050565b61054a8161052f565b82525050565b60006020820190506105656000830184610541565b92915050565b6127fb8061057a6000396000f3fe608060405234801561001057600080fd5b50600436106101375760003560e01c80636352211e116100b8578063a22cb4651161007c578063a22cb4651461034e578063b88d4fde1461036a578063c87b56dd14610386578063e0df5b6f146103b6578063e985e9c5146103d2578063f2fde38b1461040257610137565b80636352211e146102a857806370a08231146102d8578063715018a6146103085780638da5cb5b1461031257806395d89b411461033057610137565b806323b872dd116100ff57806323b872dd146101f45780632f745c591461021057806340c10f191461024057806342842e0e1461025c5780634f6ccce71461027857610137565b806301ffc9a71461013c57806306fdde031461016c578063081812fc1461018a578063095ea7b3146101ba57806318160ddd146101d6575b600080fd5b61015660048036038101906101519190611cab565b61041e565b6040516101639190611cf3565b60405180910390f35b610174610498565b6040516101819190611d9e565b60405180910390f35b6101a4600480360381019061019f9190611df6565b61052a565b6040516101b19190611e64565b60405180910390f35b6101d460048036038101906101cf9190611eab565b610546565b005b6101de61055c565b6040516101eb9190611efa565b60405180910390f35b61020e60048036038101906102099190611f15565b610569565b005b61022a60048036038101906102259190611eab565b61066b565b6040516102379190611efa565b60405180910390f35b61025a60048036038101906102559190611eab565b610714565b005b61027660048036038101906102719190611f15565b61072a565b005b610292600480360381019061028d9190611df6565b61074a565b60405161029f9190611efa565b60405180910390f35b6102c260048036038101906102bd9190611df6565b6107c0565b6040516102cf9190611e64565b60405180910390f35b6102f260048036038101906102ed9190611f68565b6107d2565b6040516102ff9190611efa565b60405180910390f35b61031061088c565b005b61031a6108a0565b6040516103279190611e64565b60405180910390f35b6103386108ca565b6040516103459190611d9e565b60405180910390f35b61036860048036038101906103639190611fc1565b61095c565b005b610384600480360381019061037f9190612136565b610972565b005b6103a0600480360381019061039b9190611df6565b610997565b6040516103ad9190611d9e565b60405180910390f35b6103d060048036038101906103cb919061225a565b610a2b565b005b6103ec60048036038101906103e791906122a3565b610a46565b6040516103f99190611cf3565b60405180910390f35b61041c60048036038101906104179190611f68565b610ada565b005b60007f780e9d63000000000000000000000000000000000000000000000000000000007bffffffffffffffffffffffffffffffffffffffffffffffffffffffff1916827bffffffffffffffffffffffffffffffffffffffffffffffffffffffff19161480610491575061049082610b60565b5b9050919050565b6060600080546104a790612312565b80601f01602080910402602001604051908101604052809291908181526020018280546104d390612312565b80156105205780601f106104f557610100808354040283529160200191610520565b820191906000526020600020905b81548152906001019060200180831161050357829003601f168201915b5050505050905090565b600061053582610c42565b5061053f82610cca565b9050919050565b6105588282610553610d07565b610d0f565b5050565b6000600880549050905090565b600073ffffffffffffffffffffffffffffffffffffffff168273ffffffffffffffffffffffffffffffffffffffff16036105db5760006040517f64a0ae920000000000000000000000000000000000000000000000000000000081526004016105d29190611e64565b60405180910390fd5b60006105ef83836105ea610d07565b610d21565b90508373ffffffffffffffffffffffffffffffffffffffff168173ffffffffffffffffffffffffffffffffffffffff1614610665578382826040517f64283d7b00000000000000000000000000000000000000000000000000000000815260040161065c93929190612343565b60405180910390fd5b50505050565b6000610676836107d2565b82106106bb5782826040517fa57d13dc0000000000000000000000000000000000000000000000000000000081526004016106b292919061237a565b60405180910390fd5b600660008473ffffffffffffffffffffffffffffffffffffffff1673ffffffffffffffffffffffffffffffffffffffff168152602001908152602001600020600083815260200190815260200160002054905092915050565b61071c610e3e565b6107268282610ec5565b5050565b61074583838360405180602001604052806000815250610972565b505050565b600061075461055c565b821061079a576000826040517fa57d13dc00000000000000000000000000000000000000000000000000000000815260040161079192919061237a565b60405180910390fd5b600882815481106107ae576107ad6123a3565b5b90600052602060002001549050919050565b60006107cb82610c42565b9050919050565b60008073ffffffffffffffffffffffffffffffffffffffff168273ffffffffffffffffffffffffffffffffffffffff16036108455760006040517f89c62b6400000000000000000000000000000000000000000000000000000000815260040161083c9190611e64565b60405180910390fd5b600360008373ffffffffffffffffffffffffffffffffffffffff1673ffffffffffffffffffffffffffffffffffffffff168152602001908152602001600020549050919050565b610894610e3e565b61089e6000610fbe565b565b6000600a60009054906101000a900473ffffffffffffffffffffffffffffffffffffffff16905090565b6060600180546108d990612312565b80601f016020809104026020016040519081016040528092919081815260200182805461090590612312565b80156109525780601f1061092757610100808354040283529160200191610952565b820191906000526020600020905b81548152906001019060200180831161093557829003601f168201915b5050505050905090565b61096e610967610d07565b8383611084565b5050565b61097d848484610569565b610991610988610d07565b858585856111f3565b50505050565b6060600b80546109a690612312565b80601f01602080910402602001604051908101604052809291908181526020018280546109d290612312565b8015610a1f5780601f106109f457610100808354040283529160200191610a1f565b820191906000526020600020905b815481529060010190602001808311610a0257829003601f168201915b50505050509050919050565b610a33610e3e565b80600b9081610a42919061257e565b5050565b6000600560008473ffffffffffffffffffffffffffffffffffffffff1673ffffffffffffffffffffffffffffffffffffffff16815260200190815260200160002060008373ffffffffffffffffffffffffffffffffffffffff1673ffffffffffffffffffffffffffffffffffffffff16815260200190815260200160002060009054906101000a900460ff16905092915050565b610ae2610e3e565b600073ffffffffffffffffffffffffffffffffffffffff168173ffffffffffffffffffffffffffffffffffffffff1603610b545760006040517f1e4fbdf7000000000000000000000000000000000000000000000000000000008152600401610b4b9190611e64565b60405180910390fd5b610b5d81610fbe565b50565b60007f80ac58cd000000000000000000000000000000000000000000000000000000007bffffffffffffffffffffffffffffffffffffffffffffffffffffffff1916827bffffffffffffffffffffffffffffffffffffffffffffffffffffffff19161480610c2b57507f5b5e139f000000000000000000000000000000000000000000000000000000007bffffffffffffffffffffffffffffffffffffffffffffffffffffffff1916827bffffffffffffffffffffffffffffffffffffffffffffffffffffffff1916145b80610c3b5750610c3a826113a4565b5b9050919050565b600080610c4e8361140e565b9050600073ffffffffffffffffffffffffffffffffffffffff168173ffffffffffffffffffffffffffffffffffffffff1603610cc157826040517f7e273289000000000000000000000000000000000000000000000000000000008152600401610cb89190611efa565b60405180910390fd5b80915050919050565b60006004600083815260200190815260200160002060009054906101000a900473ffffffffffffffffffffffffffffffffffffffff169050919050565b600033905090565b610d1c838383600161144b565b505050565b600080610d2f858585611610565b9050600073ffffffffffffffffffffffffffffffffffffffff168173ffffffffffffffffffffffffffffffffffffffff1603610d7357610d6e8461182a565b610db2565b8473ffffffffffffffffffffffffffffffffffffffff168173ffffffffffffffffffffffffffffffffffffffff1614610db157610db08185611873565b5b5b600073ffffffffffffffffffffffffffffffffffffffff168573ffffffffffffffffffffffffffffffffffffffff1603610df457610def8461195e565b610e33565b8473ffffffffffffffffffffffffffffffffffffffff168173ffffffffffffffffffffffffffffffffffffffff1614610e3257610e318585611a2f565b5b5b809150509392505050565b610e46610d07565b73ffffffffffffffffffffffffffffffffffffffff16610e646108a0565b73ffffffffffffffffffffffffffffffffffffffff1614610ec357610e87610d07565b6040517f118cdaa7000000000000000000000000000000000000000000000000000000008152600401610eba9190611e64565b60405180910390fd5b565b600073ffffffffffffffffffffffffffffffffffffffff168273ffffffffffffffffffffffffffffffffffffffff1603610f375760006040517f64a0ae92000000000000000000000000000000000000000000000000000000008152600401610f2e9190611e64565b60405180910390fd5b6000610f4583836000610d21565b9050600073ffffffffffffffffffffffffffffffffffffffff168173ffffffffffffffffffffffffffffffffffffffff1614610fb95760006040517f73c6ac6e000000000000000000000000000000000000000000000000000000008152600401610fb09190611e64565b60405180910390fd5b505050565b6000600a60009054906101000a900473ffffffffffffffffffffffffffffffffffffffff16905081600a60006101000a81548173ffffffffffffffffffffffffffffffffffffffff021916908373ffffffffffffffffffffffffffffffffffffffff1602179055508173ffffffffffffffffffffffffffffffffffffffff168173ffffffffffffffffffffffffffffffffffffffff167f8be0079c531659141344cd1fd0a4f28419497f9722a3daafe3b4186f6b6457e060405160405180910390a35050565b600073ffffffffffffffffffffffffffffffffffffffff168273ffffffffffffffffffffffffffffffffffffffff16036110f557816040517f5b08ba180000000000000000000000000000000000000000000000000000000081526004016110ec9190611e64565b60405180910390fd5b80600560008573ffffffffffffffffffffffffffffffffffffffff1673ffffffffffffffffffffffffffffffffffffffff16815260200190815260200160002060008473ffffffffffffffffffffffffffffffffffffffff1673ffffffffffffffffffffffffffffffffffffffff16815260200190815260200160002060006101000a81548160ff0219169083151502179055508173ffffffffffffffffffffffffffffffffffffffff168373ffffffffffffffffffffffffffffffffffffffff167f17307eab39ab6107e8899845ad3d59bd9653f200f220920489ca2b5937696c31836040516111e69190611cf3565b60405180910390a3505050565b60008373ffffffffffffffffffffffffffffffffffffffff163b111561139d578273ffffffffffffffffffffffffffffffffffffffff1663150b7a02868685856040518563ffffffff1660e01b815260040161125294939291906126a5565b6020604051808303816000875af192505050801561128e57506040513d601f19601f8201168201806040525081019061128b9190612706565b60015b611312573d80600081146112be576040519150601f19603f3d011682016040523d82523d6000602084013e6112c3565b606091505b50600081510361130a57836040517f64a0ae920000000000000000000000000000000000000000000000000000000081526004016113019190611e64565b60405180910390fd5b805160208201fd5b63150b7a0260e01b7bffffffffffffffffffffffffffffffffffffffffffffffffffffffff1916817bffffffffffffffffffffffffffffffffffffffffffffffffffffffff19161461139b57836040517f64a0ae920000000000000000000000000000000000000000000000000000000081526004016113929190611e64565b60405180910390fd5b505b5050505050565b60007f01ffc9a7000000000000000000000000000000000000000000000000000000007bffffffffffffffffffffffffffffffffffffffffffffffffffffffff1916827bffffffffffffffffffffffffffffffffffffffffffffffffffffffff1916149050919050565b60006002600083815260200190815260200160002060009054906101000a900473ffffffffffffffffffffffffffffffffffffffff169050919050565b80806114845750600073ffffffffffffffffffffffffffffffffffffffff168273ffffffffffffffffffffffffffffffffffffffff1614155b156115b857600061149484610c42565b9050600073ffffffffffffffffffffffffffffffffffffffff168373ffffffffffffffffffffffffffffffffffffffff16141580156114ff57508273ffffffffffffffffffffffffffffffffffffffff168173ffffffffffffffffffffffffffffffffffffffff1614155b801561151257506115108184610a46565b155b1561155457826040517fa9fbf51f00000000000000000000000000000000000000000000000000000000815260040161154b9190611e64565b60405180910390fd5b81156115b657838573ffffffffffffffffffffffffffffffffffffffff168273ffffffffffffffffffffffffffffffffffffffff167f8c5be1e5ebec7d5bd14f71427d1e84f3dd0314c0f7b2291e5b200ac8c7c3b92560405160405180910390a45b505b836004600085815260200190815260200160002060006101000a81548173ffffffffffffffffffffffffffffffffffffffff021916908373ffffffffffffffffffffffffffffffffffffffff16021790555050505050565b60008061161c8461140e565b9050600073ffffffffffffffffffffffffffffffffffffffff168373ffffffffffffffffffffffffffffffffffffffff161461165e5761165d818486611aba565b5b600073ffffffffffffffffffffffffffffffffffffffff168173ffffffffffffffffffffffffffffffffffffffff16146116ef576116a060008560008061144b565b6001600360008373ffffffffffffffffffffffffffffffffffffffff1673ffffffffffffffffffffffffffffffffffffffff168152602001908152602001600020600082825403925050819055505b600073ffffffffffffffffffffffffffffffffffffffff168573ffffffffffffffffffffffffffffffffffffffff1614611772576001600360008773ffffffffffffffffffffffffffffffffffffffff1673ffffffffffffffffffffffffffffffffffffffff168152602001908152602001600020600082825401925050819055505b846002600086815260200190815260200160002060006101000a81548173ffffffffffffffffffffffffffffffffffffffff021916908373ffffffffffffffffffffffffffffffffffffffff160217905550838573ffffffffffffffffffffffffffffffffffffffff168273ffffffffffffffffffffffffffffffffffffffff167fddf252ad1be2c89b69c2b068fc378daa952ba7f163c4a11628f55a4df523b3ef60405160405180910390a4809150509392505050565b6008805490506009600083815260200190815260200160002081905550600881908060018154018082558091505060019003906000526020600020016000909190919091505550565b600061187e836107d2565b90506000600760008481526020019081526020016000205490506000600660008673ffffffffffffffffffffffffffffffffffffffff1673ffffffffffffffffffffffffffffffffffffffff168152602001908152602001600020905082821461192a5760008160008581526020019081526020016000205490508082600085815260200190815260200160002081905550826007600083815260200190815260200160002081905550505b6007600085815260200190815260200160002060009055806000848152602001908152602001600020600090555050505050565b600060016008805490506119729190612762565b90506000600960008481526020019081526020016000205490506000600883815481106119a2576119a16123a3565b5b9060005260206000200154905080600883815481106119c4576119c36123a3565b5b906000526020600020018190555081600960008381526020019081526020016000208190555060096000858152602001908152602001600020600090556008805480611a1357611a12612796565b5b6001900381819060005260206000200160009055905550505050565b60006001611a3c846107d2565b611a469190612762565b905081600660008573ffffffffffffffffffffffffffffffffffffffff1673ffffffffffffffffffffffffffffffffffffffff168152602001908152602001600020600083815260200190815260200160002081905550806007600084815260200190815260200160002081905550505050565b611ac5838383611b7e565b611b7957600073ffffffffffffffffffffffffffffffffffffffff168373ffffffffffffffffffffffffffffffffffffffff1603611b3a57806040517f7e273289000000000000000000000000000000000000000000000000000000008152600401611b319190611efa565b60405180910390fd5b81816040517f177e802f000000000000000000000000000000000000000000000000000000008152600401611b7092919061237a565b60405180910390fd5b505050565b60008073ffffffffffffffffffffffffffffffffffffffff168373ffffffffffffffffffffffffffffffffffffffff1614158015611c3657508273ffffffffffffffffffffffffffffffffffffffff168473ffffffffffffffffffffffffffffffffffffffff161480611bf75750611bf68484610a46565b5b80611c3557508273ffffffffffffffffffffffffffffffffffffffff16611c1d83610cca565b73ffffffffffffffffffffffffffffffffffffffff16145b5b90509392505050565b6000604051905090565b600080fd5b600080fd5b60007fffffffff0000000000000000000000000000000000000000000000000000000082169050919050565b611c8881611c53565b8114611c9357600080fd5b50565b600081359050611ca581611c7f565b92915050565b600060208284031215611cc157611cc0611c49565b5b6000611ccf84828501611c96565b91505092915050565b60008115159050919050565b611ced81611cd8565b82525050565b6000602082019050611d086000830184611ce4565b92915050565b600081519050919050565b600082825260208201905092915050565b60005b83811015611d48578082015181840152602081019050611d2d565b60008484015250505050565b6000601f19601f8301169050919050565b6000611d7082611d0e565b611d7a8185611d19565b9350611d8a818560208601611d2a565b611d9381611d54565b840191505092915050565b60006020820190508181036000830152611db88184611d65565b905092915050565b6000819050919050565b611dd381611dc0565b8114611dde57600080fd5b50565b600081359050611df081611dca565b92915050565b600060208284031215611e0c57611e0b611c49565b5b6000611e1a84828501611de1565b91505092915050565b600073ffffffffffffffffffffffffffffffffffffffff82169050919050565b6000611e4e82611e23565b9050919050565b611e5e81611e43565b82525050565b6000602082019050611e796000830184611e55565b92915050565b611e8881611e43565b8114611e9357600080fd5b50565b600081359050611ea581611e7f565b92915050565b60008060408385031215611ec257611ec1611c49565b5b6000611ed085828601611e96565b9250506020611ee185828601611de1565b9150509250929050565b611ef481611dc0565b82525050565b6000602082019050611f0f6000830184611eeb565b92915050565b600080600060608486031215611f2e57611f2d611c49565b5b6000611f3c86828701611e96565b9350506020611f4d86828701611e96565b9250506040611f5e86828701611de1565b9150509250925092565b600060208284031215611f7e57611f7d611c49565b5b6000611f8c84828501611e96565b91505092915050565b611f9e81611cd8565b8114611fa957600080fd5b50565b600081359050611fbb81611f95565b92915050565b60008060408385031215611fd857611fd7611c49565b5b6000611fe685828601611e96565b9250506020611ff785828601611fac565b9150509250929050565b600080fd5b600080fd5b7f4e487b7100000000000000000000000000000000000000000000000000000000600052604160045260246000fd5b61204382611d54565b810181811067ffffffffffffffff821117156120625761206161200b565b5b80604052505050565b6000612075611c3f565b9050612081828261203a565b919050565b600067ffffffffffffffff8211156120a1576120a061200b565b5b6120aa82611d54565b9050602081019050919050565b82818337600083830152505050565b60006120d96120d484612086565b61206b565b9050828152602081018484840111156120f5576120f4612006565b5b6121008482856120b7565b509392505050565b600082601f83011261211d5761211c612001565b5b813561212d8482602086016120c6565b91505092915050565b600080600080608085870312156121505761214f611c49565b5b600061215e87828801611e96565b945050602061216f87828801611e96565b935050604061218087828801611de1565b925050606085013567ffffffffffffffff8111156121a1576121a0611c4e565b5b6121ad87828801612108565b91505092959194509250565b600067ffffffffffffffff8211156121d4576121d361200b565b5b6121dd82611d54565b9050602081019050919050565b60006121fd6121f8846121b9565b61206b565b90508281526020810184848401111561221957612218612006565b5b6122248482856120b7565b509392505050565b600082601f83011261224157612240612001565b5b81356122518482602086016121ea565b91505092915050565b6000602082840312156122705761226f611c49565b5b600082013567ffffffffffffffff81111561228e5761228d611c4e565b5b61229a8482850161222c565b91505092915050565b600080604083850312156122ba576122b9611c49565b5b60006122c885828601611e96565b92505060206122d985828601611e96565b9150509250929050565b7f4e487b7100000000000000000000000000000000000000000000000000000000600052602260045260246000fd5b6000600282049050600182168061232a57607f821691505b60208210810361233d5761233c6122e3565b5b50919050565b60006060820190506123586000830186611e55565b6123656020830185611eeb565b6123726040830184611e55565b949350505050565b600060408201905061238f6000830185611e55565b61239c6020830184611eeb565b9392505050565b7f4e487b7100000000000000000000000000000000000000000000000000000000600052603260045260246000fd5b60008190508160005260206000209050919050565b60006020601f8301049050919050565b600082821b905092915050565b6000600883026124347fffffffffffffffffffffffffffffffffffffffffffffffffffffffffffffffff826123f7565b61243e86836123f7565b95508019841693508086168417925050509392505050565b6000819050919050565b600061247b61247661247184611dc0565b612456565b611dc0565b9050919050565b6000819050919050565b61249583612460565b6124a96124a182612482565b848454612404565b825550505050565b600090565b6124be6124b1565b6124c981848461248c565b505050565b5b818110156124ed576124e26000826124b6565b6001810190506124cf565b5050565b601f82111561253257612503816123d2565b61250c846123e7565b8101602085101561251b578190505b61252f612527856123e7565b8301826124ce565b50505b505050565b600082821c905092915050565b600061255560001984600802612537565b1980831691505092915050565b600061256e8383612544565b9150826002028217905092915050565b61258782611d0e565b67ffffffffffffffff8111156125a05761259f61200b565b5b6125aa8254612312565b6125b58282856124f1565b600060209050601f8311600181146125e857600084156125d6578287015190505b6125e08582612562565b865550612648565b601f1984166125f6866123d2565b60005b8281101561261e578489015182556001820191506020850194506020810190506125f9565b8683101561263b5784890151612637601f891682612544565b8355505b6001600288020188555050505b505050505050565b600081519050919050565b600082825260208201905092915050565b600061267782612650565b612681818561265b565b9350612691818560208601611d2a565b61269a81611d54565b840191505092915050565b60006080820190506126ba6000830187611e55565b6126c76020830186611e55565b6126d46040830185611eeb565b81810360608301526126e6818461266c565b905095945050505050565b60008151905061270081611c7f565b92915050565b60006020828403121561271c5761271b611c49565b5b600061272a848285016126f1565b91505092915050565b7f4e487b7100000000000000000000000000000000000000000000000000000000600052601160045260246000fd5b600061276d82611dc0565b915061277883611dc0565b92508282039050818111156127905761278f612733565b5b92915050565b7f4e487b7100000000000000000000000000000000000000000000000000000000600052603160045260246000fdfea264697066735822122025047877e88ea07e48e16c83c1098720a7a1a76fdef21345bfd22858b6c624b664736f6c634300081c0033",
  "linkReferences": {},
  "deployedLinkReferences": {}
}