{
	"contracts/2.control/Loop.sol": {
		"Loop": {
			"abi": [
				{
					"inputs": [
						{
							"internalType": "int256",
							"name": "initial",
							"type": "int256"
						},
						{
							"internalType": "int256",
							"name": "end",
							"type": "int256"
						}
					],
					"name": "sumToN",
					"outputs": [
						{
							"internalType": "int256",
							"name": "",
							"type": "int256"
						}
					],
					"stateMutability": "pure",
					"type": "function"
				},
				{
					"inputs": [
						{
							"internalType": "uint16",
							"name": "n",
							"type": "uint16"
						}
					],
					"name": "sumToN1",
					"outputs": [
						{
							"internalType": "uint16",
							"name": "",
							"type": "uint16"
						}
					],
					"stateMutability": "pure",
					"type": "function"
				},
				{
					"inputs": [
						{
							"internalType": "uint16",
							"name": "n",
							"type": "uint16"
						}
					],
					"name": "sumToN2",
					"outputs": [
						{
							"internalType": "uint16",
							"name": "",
							"type": "uint16"
						}
					],
					"stateMutability": "pure",
					"type": "function"
				}
			],
			"devdoc": {
				"kind": "dev",
				"methods": {},
				"version": 1
			},
			"evm": {
				"assembly": "    /* \"contracts/2.control/Loop.sol\":60:965  contract Loop {... */\n  mstore(0x40, 0x80)\n  callvalue\n  dup1\n  iszero\n  tag_1\n  jumpi\n  revert(0x00, 0x00)\ntag_1:\n  pop\n  dataSize(sub_0)\n  dup1\n  dataOffset(sub_0)\n  0x00\n  codecopy\n  0x00\n  return\nstop\n\nsub_0: assembly {\n        /* \"contracts/2.control/Loop.sol\":60:965  contract Loop {... */\n      mstore(0x40, 0x80)\n      callvalue\n      dup1\n      iszero\n      tag_1\n      jumpi\n      revert(0x00, 0x00)\n    tag_1:\n      pop\n      jumpi(tag_2, lt(calldatasize, 0x04))\n      shr(0xe0, calldataload(0x00))\n      dup1\n      0x7209b79f\n      eq\n      tag_3\n      jumpi\n      dup1\n      0xa27407fa\n      eq\n      tag_4\n      jumpi\n      dup1\n      0xc9f9e49e\n      eq\n      tag_5\n      jumpi\n    tag_2:\n      revert(0x00, 0x00)\n        /* \"contracts/2.control/Loop.sol\":669:962  function sumToN2(uint16 n) public pure returns(uint16) {... */\n    tag_3:\n      tag_6\n      0x04\n      dup1\n      calldatasize\n      sub\n      dup2\n      add\n      swap1\n      tag_7\n      swap2\n      swap1\n      tag_8\n      jump\t// in\n    tag_7:\n      tag_9\n      jump\t// in\n    tag_6:\n      mload(0x40)\n      tag_10\n      swap2\n      swap1\n      tag_11\n      jump\t// in\n    tag_10:\n      mload(0x40)\n      dup1\n      swap2\n      sub\n      swap1\n      return\n        /* \"contracts/2.control/Loop.sol\":81:355  function sumToN(int initial, int end) public pure returns(int) {... */\n    tag_4:\n      tag_12\n      0x04\n      dup1\n      calldatasize\n      sub\n      dup2\n      add\n      swap1\n      tag_13\n      swap2\n      swap1\n      tag_14\n      jump\t// in\n    tag_13:\n      tag_15\n      jump\t// in\n    tag_12:\n      mload(0x40)\n      tag_16\n      swap2\n      swap1\n      tag_17\n      jump\t// in\n    tag_16:\n      mload(0x40)\n      dup1\n      swap2\n      sub\n      swap1\n      return\n        /* \"contracts/2.control/Loop.sol\":361:622  function sumToN1(uint16 n) public pure returns(uint16) {... */\n    tag_5:\n      tag_18\n      0x04\n      dup1\n      calldatasize\n      sub\n      dup2\n      add\n      swap1\n      tag_19\n      swap2\n      swap1\n      tag_8\n      jump\t// in\n    tag_19:\n      tag_20\n      jump\t// in\n    tag_18:\n      mload(0x40)\n      tag_21\n      swap2\n      swap1\n      tag_11\n      jump\t// in\n    tag_21:\n      mload(0x40)\n      dup1\n      swap2\n      sub\n      swap1\n      return\n        /* \"contracts/2.control/Loop.sol\":669:962  function sumToN2(uint16 n) public pure returns(uint16) {... */\n    tag_9:\n        /* \"contracts/2.control/Loop.sol\":716:722  uint16 */\n      0x00\n        /* \"contracts/2.control/Loop.sol\":735:745  uint16 sum */\n      0x00\n        /* \"contracts/2.control/Loop.sol\":748:749  0 */\n      0x00\n        /* \"contracts/2.control/Loop.sol\":735:749  uint16 sum = 0 */\n      swap1\n      pop\n        /* \"contracts/2.control/Loop.sol\":760:768  uint16 i */\n      0x00\n        /* \"contracts/2.control/Loop.sol\":771:772  1 */\n      0x01\n        /* \"contracts/2.control/Loop.sol\":760:772  uint16 i = 1 */\n      swap1\n      pop\n        /* \"contracts/2.control/Loop.sol\":786:886  do {... */\n    tag_23:\n        /* \"contracts/2.control/Loop.sol\":811:812  i */\n      dup1\n        /* \"contracts/2.control/Loop.sol\":804:812  sum += i */\n      dup3\n      tag_26\n      swap2\n      swap1\n      tag_27\n      jump\t// in\n    tag_26:\n      swap2\n      pop\n        /* \"contracts/2.control/Loop.sol\":827:830  i++ */\n      dup1\n      dup1\n      tag_28\n      swap1\n      tag_29\n      jump\t// in\n    tag_28:\n      swap2\n      pop\n      pop\n        /* \"contracts/2.control/Loop.sol\":883:884  n */\n      dup4\n        /* \"contracts/2.control/Loop.sol\":878:884  i <= n */\n      0xffff\n      and\n        /* \"contracts/2.control/Loop.sol\":878:879  i */\n      dup2\n        /* \"contracts/2.control/Loop.sol\":878:884  i <= n */\n      0xffff\n      and\n      gt\n      iszero\n        /* \"contracts/2.control/Loop.sol\":786:886  do {... */\n      tag_23\n      jumpi\n        /* \"contracts/2.control/Loop.sol\":951:954  sum */\n      dup2\n        /* \"contracts/2.control/Loop.sol\":944:954  return sum */\n      swap3\n      pop\n      pop\n      pop\n        /* \"contracts/2.control/Loop.sol\":669:962  function sumToN2(uint16 n) public pure returns(uint16) {... */\n      swap2\n      swap1\n      pop\n      jump\t// out\n        /* \"contracts/2.control/Loop.sol\":81:355  function sumToN(int initial, int end) public pure returns(int) {... */\n    tag_15:\n        /* \"contracts/2.control/Loop.sol\":139:142  int */\n      0x00\n        /* \"contracts/2.control/Loop.sol\":155:162  int sum */\n      0x00\n        /* \"contracts/2.control/Loop.sol\":165:166  0 */\n      0x00\n        /* \"contracts/2.control/Loop.sol\":155:166  int sum = 0 */\n      swap1\n      pop\n        /* \"contracts/2.control/Loop.sol\":181:186  int i */\n      0x00\n        /* \"contracts/2.control/Loop.sol\":189:196  initial */\n      dup5\n        /* \"contracts/2.control/Loop.sol\":181:196  int i = initial */\n      swap1\n      pop\n        /* \"contracts/2.control/Loop.sol\":177:327  for(int i = initial; i < end; i++) {... */\n    tag_31:\n        /* \"contracts/2.control/Loop.sol\":202:205  end */\n      dup4\n        /* \"contracts/2.control/Loop.sol\":198:199  i */\n      dup2\n        /* \"contracts/2.control/Loop.sol\":198:205  i < end */\n      slt\n        /* \"contracts/2.control/Loop.sol\":177:327  for(int i = initial; i < end; i++) {... */\n      iszero\n      tag_32\n      jumpi\n        /* \"contracts/2.control/Loop.sol\":242:243  2 */\n      0x02\n        /* \"contracts/2.control/Loop.sol\":236:239  end */\n      dup5\n        /* \"contracts/2.control/Loop.sol\":236:243  end / 2 */\n      tag_34\n      swap2\n      swap1\n      tag_35\n      jump\t// in\n    tag_34:\n        /* \"contracts/2.control/Loop.sol\":231:232  i */\n      dup2\n        /* \"contracts/2.control/Loop.sol\":231:243  i >= end / 2 */\n      slt\n        /* \"contracts/2.control/Loop.sol\":227:250  if (i >= end / 2) break */\n      iszero\n        /* \"contracts/2.control/Loop.sol\":245:250  break */\n      tag_32\n        /* \"contracts/2.control/Loop.sol\":227:250  if (i >= end / 2) break */\n      jumpi\n        /* \"contracts/2.control/Loop.sol\":314:315  i */\n      dup1\n        /* \"contracts/2.control/Loop.sol\":307:315  sum += i */\n      dup3\n      tag_37\n      swap2\n      swap1\n      tag_38\n      jump\t// in\n    tag_37:\n      swap2\n      pop\n        /* \"contracts/2.control/Loop.sol\":207:210  i++ */\n      dup1\n      dup1\n      0x01\n      add\n      swap2\n      pop\n      pop\n        /* \"contracts/2.control/Loop.sol\":177:327  for(int i = initial; i < end; i++) {... */\n      jump(tag_31)\n    tag_32:\n      pop\n        /* \"contracts/2.control/Loop.sol\":344:347  sum */\n      dup1\n        /* \"contracts/2.control/Loop.sol\":337:347  return sum */\n      swap2\n      pop\n      pop\n        /* \"contracts/2.control/Loop.sol\":81:355  function sumToN(int initial, int end) public pure returns(int) {... */\n      swap3\n      swap2\n      pop\n      pop\n      jump\t// out\n        /* \"contracts/2.control/Loop.sol\":361:622  function sumToN1(uint16 n) public pure returns(uint16) {... */\n    tag_20:\n        /* \"contracts/2.control/Loop.sol\":408:414  uint16 */\n      0x00\n        /* \"contracts/2.control/Loop.sol\":427:437  uint16 sum */\n      0x00\n        /* \"contracts/2.control/Loop.sol\":440:441  0 */\n      0x00\n        /* \"contracts/2.control/Loop.sol\":427:441  uint16 sum = 0 */\n      swap1\n      pop\n        /* \"contracts/2.control/Loop.sol\":452:460  uint16 i */\n      0x00\n        /* \"contracts/2.control/Loop.sol\":463:464  1 */\n      0x01\n        /* \"contracts/2.control/Loop.sol\":452:464  uint16 i = 1 */\n      swap1\n      pop\n        /* \"contracts/2.control/Loop.sol\":476:594  while(i <= n) { //只改了这一行_... */\n    tag_40:\n        /* \"contracts/2.control/Loop.sol\":487:488  n */\n      dup4\n        /* \"contracts/2.control/Loop.sol\":482:488  i <= n */\n      0xffff\n      and\n        /* \"contracts/2.control/Loop.sol\":482:483  i */\n      dup2\n        /* \"contracts/2.control/Loop.sol\":482:488  i <= n */\n      0xffff\n      and\n      gt\n        /* \"contracts/2.control/Loop.sol\":476:594  while(i <= n) { //只改了这一行_... */\n      tag_41\n      jumpi\n        /* \"contracts/2.control/Loop.sol\":534:535  i */\n      dup1\n        /* \"contracts/2.control/Loop.sol\":527:535  sum += i */\n      dup3\n      tag_42\n      swap2\n      swap1\n      tag_27\n      jump\t// in\n    tag_42:\n      swap2\n      pop\n        /* \"contracts/2.control/Loop.sol\":550:553  i++ */\n      dup1\n      dup1\n      tag_43\n      swap1\n      tag_29\n      jump\t// in\n    tag_43:\n      swap2\n      pop\n      pop\n        /* \"contracts/2.control/Loop.sol\":476:594  while(i <= n) { //只改了这一行_... */\n      jump(tag_40)\n    tag_41:\n        /* \"contracts/2.control/Loop.sol\":611:614  sum */\n      dup2\n        /* \"contracts/2.control/Loop.sol\":604:614  return sum */\n      swap3\n      pop\n      pop\n      pop\n        /* \"contracts/2.control/Loop.sol\":361:622  function sumToN1(uint16 n) public pure returns(uint16) {... */\n      swap2\n      swap1\n      pop\n      jump\t// out\n        /* \"#utility.yul\":88:205   */\n    tag_45:\n        /* \"#utility.yul\":197:198   */\n      0x00\n        /* \"#utility.yul\":194:195   */\n      0x00\n        /* \"#utility.yul\":187:199   */\n      revert\n        /* \"#utility.yul\":334:423   */\n    tag_47:\n        /* \"#utility.yul\":370:377   */\n      0x00\n        /* \"#utility.yul\":410:416   */\n      0xffff\n        /* \"#utility.yul\":403:408   */\n      dup3\n        /* \"#utility.yul\":399:417   */\n      and\n        /* \"#utility.yul\":388:417   */\n      swap1\n      pop\n        /* \"#utility.yul\":334:423   */\n      swap2\n      swap1\n      pop\n      jump\t// out\n        /* \"#utility.yul\":429:549   */\n    tag_48:\n        /* \"#utility.yul\":501:524   */\n      tag_63\n        /* \"#utility.yul\":518:523   */\n      dup2\n        /* \"#utility.yul\":501:524   */\n      tag_47\n      jump\t// in\n    tag_63:\n        /* \"#utility.yul\":494:499   */\n      dup2\n        /* \"#utility.yul\":491:525   */\n      eq\n        /* \"#utility.yul\":481:543   */\n      tag_64\n      jumpi\n        /* \"#utility.yul\":539:540   */\n      0x00\n        /* \"#utility.yul\":536:537   */\n      0x00\n        /* \"#utility.yul\":529:541   */\n      revert\n        /* \"#utility.yul\":481:543   */\n    tag_64:\n        /* \"#utility.yul\":429:549   */\n      pop\n      jump\t// out\n        /* \"#utility.yul\":555:692   */\n    tag_49:\n        /* \"#utility.yul\":600:605   */\n      0x00\n        /* \"#utility.yul\":638:644   */\n      dup2\n        /* \"#utility.yul\":625:645   */\n      calldataload\n        /* \"#utility.yul\":616:645   */\n      swap1\n      pop\n        /* \"#utility.yul\":654:686   */\n      tag_66\n        /* \"#utility.yul\":680:685   */\n      dup2\n        /* \"#utility.yul\":654:686   */\n      tag_48\n      jump\t// in\n    tag_66:\n        /* \"#utility.yul\":555:692   */\n      swap3\n      swap2\n      pop\n      pop\n      jump\t// out\n        /* \"#utility.yul\":698:1025   */\n    tag_8:\n        /* \"#utility.yul\":756:762   */\n      0x00\n        /* \"#utility.yul\":805:807   */\n      0x20\n        /* \"#utility.yul\":793:802   */\n      dup3\n        /* \"#utility.yul\":784:791   */\n      dup5\n        /* \"#utility.yul\":780:803   */\n      sub\n        /* \"#utility.yul\":776:808   */\n      slt\n        /* \"#utility.yul\":773:892   */\n      iszero\n      tag_68\n      jumpi\n        /* \"#utility.yul\":811:890   */\n      tag_69\n      tag_45\n      jump\t// in\n    tag_69:\n        /* \"#utility.yul\":773:892   */\n    tag_68:\n        /* \"#utility.yul\":931:932   */\n      0x00\n        /* \"#utility.yul\":956:1008   */\n      tag_70\n        /* \"#utility.yul\":1000:1007   */\n      dup5\n        /* \"#utility.yul\":991:997   */\n      dup3\n        /* \"#utility.yul\":980:989   */\n      dup6\n        /* \"#utility.yul\":976:998   */\n      add\n        /* \"#utility.yul\":956:1008   */\n      tag_49\n      jump\t// in\n    tag_70:\n        /* \"#utility.yul\":946:1008   */\n      swap2\n      pop\n        /* \"#utility.yul\":902:1018   */\n      pop\n        /* \"#utility.yul\":698:1025   */\n      swap3\n      swap2\n      pop\n      pop\n      jump\t// out\n        /* \"#utility.yul\":1031:1146   */\n    tag_50:\n        /* \"#utility.yul\":1116:1139   */\n      tag_72\n        /* \"#utility.yul\":1133:1138   */\n      dup2\n        /* \"#utility.yul\":1116:1139   */\n      tag_47\n      jump\t// in\n    tag_72:\n        /* \"#utility.yul\":1111:1114   */\n      dup3\n        /* \"#utility.yul\":1104:1140   */\n      mstore\n        /* \"#utility.yul\":1031:1146   */\n      pop\n      pop\n      jump\t// out\n        /* \"#utility.yul\":1152:1370   */\n    tag_11:\n        /* \"#utility.yul\":1243:1247   */\n      0x00\n        /* \"#utility.yul\":1281:1283   */\n      0x20\n        /* \"#utility.yul\":1270:1279   */\n      dup3\n        /* \"#utility.yul\":1266:1284   */\n      add\n        /* \"#utility.yul\":1258:1284   */\n      swap1\n      pop\n        /* \"#utility.yul\":1294:1363   */\n      tag_74\n        /* \"#utility.yul\":1360:1361   */\n      0x00\n        /* \"#utility.yul\":1349:1358   */\n      dup4\n        /* \"#utility.yul\":1345:1362   */\n      add\n        /* \"#utility.yul\":1336:1342   */\n      dup5\n        /* \"#utility.yul\":1294:1363   */\n      tag_50\n      jump\t// in\n    tag_74:\n        /* \"#utility.yul\":1152:1370   */\n      swap3\n      swap2\n      pop\n      pop\n      jump\t// out\n        /* \"#utility.yul\":1376:1452   */\n    tag_51:\n        /* \"#utility.yul\":1412:1419   */\n      0x00\n        /* \"#utility.yul\":1441:1446   */\n      dup2\n        /* \"#utility.yul\":1430:1446   */\n      swap1\n      pop\n        /* \"#utility.yul\":1376:1452   */\n      swap2\n      swap1\n      pop\n      jump\t// out\n        /* \"#utility.yul\":1458:1578   */\n    tag_52:\n        /* \"#utility.yul\":1530:1553   */\n      tag_77\n        /* \"#utility.yul\":1547:1552   */\n      dup2\n        /* \"#utility.yul\":1530:1553   */\n      tag_51\n      jump\t// in\n    tag_77:\n        /* \"#utility.yul\":1523:1528   */\n      dup2\n        /* \"#utility.yul\":1520:1554   */\n      eq\n        /* \"#utility.yul\":1510:1572   */\n      tag_78\n      jumpi\n        /* \"#utility.yul\":1568:1569   */\n      0x00\n        /* \"#utility.yul\":1565:1566   */\n      0x00\n        /* \"#utility.yul\":1558:1570   */\n      revert\n        /* \"#utility.yul\":1510:1572   */\n    tag_78:\n        /* \"#utility.yul\":1458:1578   */\n      pop\n      jump\t// out\n        /* \"#utility.yul\":1584:1721   */\n    tag_53:\n        /* \"#utility.yul\":1629:1634   */\n      0x00\n        /* \"#utility.yul\":1667:1673   */\n      dup2\n        /* \"#utility.yul\":1654:1674   */\n      calldataload\n        /* \"#utility.yul\":1645:1674   */\n      swap1\n      pop\n        /* \"#utility.yul\":1683:1715   */\n      tag_80\n        /* \"#utility.yul\":1709:1714   */\n      dup2\n        /* \"#utility.yul\":1683:1715   */\n      tag_52\n      jump\t// in\n    tag_80:\n        /* \"#utility.yul\":1584:1721   */\n      swap3\n      swap2\n      pop\n      pop\n      jump\t// out\n        /* \"#utility.yul\":1727:2197   */\n    tag_14:\n        /* \"#utility.yul\":1793:1799   */\n      0x00\n        /* \"#utility.yul\":1801:1807   */\n      0x00\n        /* \"#utility.yul\":1850:1852   */\n      0x40\n        /* \"#utility.yul\":1838:1847   */\n      dup4\n        /* \"#utility.yul\":1829:1836   */\n      dup6\n        /* \"#utility.yul\":1825:1848   */\n      sub\n        /* \"#utility.yul\":1821:1853   */\n      slt\n        /* \"#utility.yul\":1818:1937   */\n      iszero\n      tag_82\n      jumpi\n        /* \"#utility.yul\":1856:1935   */\n      tag_83\n      tag_45\n      jump\t// in\n    tag_83:\n        /* \"#utility.yul\":1818:1937   */\n    tag_82:\n        /* \"#utility.yul\":1976:1977   */\n      0x00\n        /* \"#utility.yul\":2001:2053   */\n      tag_84\n        /* \"#utility.yul\":2045:2052   */\n      dup6\n        /* \"#utility.yul\":2036:2042   */\n      dup3\n        /* \"#utility.yul\":2025:2034   */\n      dup7\n        /* \"#utility.yul\":2021:2043   */\n      add\n        /* \"#utility.yul\":2001:2053   */\n      tag_53\n      jump\t// in\n    tag_84:\n        /* \"#utility.yul\":1991:2053   */\n      swap3\n      pop\n        /* \"#utility.yul\":1947:2063   */\n      pop\n        /* \"#utility.yul\":2102:2104   */\n      0x20\n        /* \"#utility.yul\":2128:2180   */\n      tag_85\n        /* \"#utility.yul\":2172:2179   */\n      dup6\n        /* \"#utility.yul\":2163:2169   */\n      dup3\n        /* \"#utility.yul\":2152:2161   */\n      dup7\n        /* \"#utility.yul\":2148:2170   */\n      add\n        /* \"#utility.yul\":2128:2180   */\n      tag_53\n      jump\t// in\n    tag_85:\n        /* \"#utility.yul\":2118:2180   */\n      swap2\n      pop\n        /* \"#utility.yul\":2073:2190   */\n      pop\n        /* \"#utility.yul\":1727:2197   */\n      swap3\n      pop\n      swap3\n      swap1\n      pop\n      jump\t// out\n        /* \"#utility.yul\":2203:2318   */\n    tag_54:\n        /* \"#utility.yul\":2288:2311   */\n      tag_87\n        /* \"#utility.yul\":2305:2310   */\n      dup2\n        /* \"#utility.yul\":2288:2311   */\n      tag_51\n      jump\t// in\n    tag_87:\n        /* \"#utility.yul\":2283:2286   */\n      dup3\n        /* \"#utility.yul\":2276:2312   */\n      mstore\n        /* \"#utility.yul\":2203:2318   */\n      pop\n      pop\n      jump\t// out\n        /* \"#utility.yul\":2324:2542   */\n    tag_17:\n        /* \"#utility.yul\":2415:2419   */\n      0x00\n        /* \"#utility.yul\":2453:2455   */\n      0x20\n        /* \"#utility.yul\":2442:2451   */\n      dup3\n        /* \"#utility.yul\":2438:2456   */\n      add\n        /* \"#utility.yul\":2430:2456   */\n      swap1\n      pop\n        /* \"#utility.yul\":2466:2535   */\n      tag_89\n        /* \"#utility.yul\":2532:2533   */\n      0x00\n        /* \"#utility.yul\":2521:2530   */\n      dup4\n        /* \"#utility.yul\":2517:2534   */\n      add\n        /* \"#utility.yul\":2508:2514   */\n      dup5\n        /* \"#utility.yul\":2466:2535   */\n      tag_54\n      jump\t// in\n    tag_89:\n        /* \"#utility.yul\":2324:2542   */\n      swap3\n      swap2\n      pop\n      pop\n      jump\t// out\n        /* \"#utility.yul\":2548:2728   */\n    tag_55:\n        /* \"#utility.yul\":2596:2673   */\n      0x4e487b7100000000000000000000000000000000000000000000000000000000\n        /* \"#utility.yul\":2593:2594   */\n      0x00\n        /* \"#utility.yul\":2586:2674   */\n      mstore\n        /* \"#utility.yul\":2693:2697   */\n      0x11\n        /* \"#utility.yul\":2690:2691   */\n      0x04\n        /* \"#utility.yul\":2683:2698   */\n      mstore\n        /* \"#utility.yul\":2717:2721   */\n      0x24\n        /* \"#utility.yul\":2714:2715   */\n      0x00\n        /* \"#utility.yul\":2707:2722   */\n      revert\n        /* \"#utility.yul\":2734:2927   */\n    tag_27:\n        /* \"#utility.yul\":2773:2776   */\n      0x00\n        /* \"#utility.yul\":2792:2811   */\n      tag_92\n        /* \"#utility.yul\":2809:2810   */\n      dup3\n        /* \"#utility.yul\":2792:2811   */\n      tag_47\n      jump\t// in\n    tag_92:\n        /* \"#utility.yul\":2787:2811   */\n      swap2\n      pop\n        /* \"#utility.yul\":2825:2844   */\n      tag_93\n        /* \"#utility.yul\":2842:2843   */\n      dup4\n        /* \"#utility.yul\":2825:2844   */\n      tag_47\n      jump\t// in\n    tag_93:\n        /* \"#utility.yul\":2820:2844   */\n      swap3\n      pop\n        /* \"#utility.yul\":2867:2868   */\n      dup3\n        /* \"#utility.yul\":2864:2865   */\n      dup3\n        /* \"#utility.yul\":2860:2869   */\n      add\n        /* \"#utility.yul\":2853:2869   */\n      swap1\n      pop\n        /* \"#utility.yul\":2890:2896   */\n      0xffff\n        /* \"#utility.yul\":2885:2888   */\n      dup2\n        /* \"#utility.yul\":2882:2897   */\n      gt\n        /* \"#utility.yul\":2879:2920   */\n      iszero\n      tag_94\n      jumpi\n        /* \"#utility.yul\":2900:2918   */\n      tag_95\n      tag_55\n      jump\t// in\n    tag_95:\n        /* \"#utility.yul\":2879:2920   */\n    tag_94:\n        /* \"#utility.yul\":2734:2927   */\n      swap3\n      swap2\n      pop\n      pop\n      jump\t// out\n        /* \"#utility.yul\":2933:3104   */\n    tag_29:\n        /* \"#utility.yul\":2971:2974   */\n      0x00\n        /* \"#utility.yul\":2994:3017   */\n      tag_97\n        /* \"#utility.yul\":3011:3016   */\n      dup3\n        /* \"#utility.yul\":2994:3017   */\n      tag_47\n      jump\t// in\n    tag_97:\n        /* \"#utility.yul\":2985:3017   */\n      swap2\n      pop\n        /* \"#utility.yul\":3039:3045   */\n      0xffff\n        /* \"#utility.yul\":3032:3037   */\n      dup3\n        /* \"#utility.yul\":3029:3046   */\n      sub\n        /* \"#utility.yul\":3026:3069   */\n      tag_98\n      jumpi\n        /* \"#utility.yul\":3049:3067   */\n      tag_99\n      tag_55\n      jump\t// in\n    tag_99:\n        /* \"#utility.yul\":3026:3069   */\n    tag_98:\n        /* \"#utility.yul\":3096:3097   */\n      0x01\n        /* \"#utility.yul\":3089:3094   */\n      dup3\n        /* \"#utility.yul\":3085:3098   */\n      add\n        /* \"#utility.yul\":3078:3098   */\n      swap1\n      pop\n        /* \"#utility.yul\":2933:3104   */\n      swap2\n      swap1\n      pop\n      jump\t// out\n        /* \"#utility.yul\":3110:3290   */\n    tag_56:\n        /* \"#utility.yul\":3158:3235   */\n      0x4e487b7100000000000000000000000000000000000000000000000000000000\n        /* \"#utility.yul\":3155:3156   */\n      0x00\n        /* \"#utility.yul\":3148:3236   */\n      mstore\n        /* \"#utility.yul\":3255:3259   */\n      0x12\n        /* \"#utility.yul\":3252:3253   */\n      0x04\n        /* \"#utility.yul\":3245:3260   */\n      mstore\n        /* \"#utility.yul\":3279:3283   */\n      0x24\n        /* \"#utility.yul\":3276:3277   */\n      0x00\n        /* \"#utility.yul\":3269:3284   */\n      revert\n        /* \"#utility.yul\":3296:3681   */\n    tag_35:\n        /* \"#utility.yul\":3335:3336   */\n      0x00\n        /* \"#utility.yul\":3352:3371   */\n      tag_102\n        /* \"#utility.yul\":3369:3370   */\n      dup3\n        /* \"#utility.yul\":3352:3371   */\n      tag_51\n      jump\t// in\n    tag_102:\n        /* \"#utility.yul\":3347:3371   */\n      swap2\n      pop\n        /* \"#utility.yul\":3385:3404   */\n      tag_103\n        /* \"#utility.yul\":3402:3403   */\n      dup4\n        /* \"#utility.yul\":3385:3404   */\n      tag_51\n      jump\t// in\n    tag_103:\n        /* \"#utility.yul\":3380:3404   */\n      swap3\n      pop\n        /* \"#utility.yul\":3423:3424   */\n      dup3\n        /* \"#utility.yul\":3413:3448   */\n      tag_104\n      jumpi\n        /* \"#utility.yul\":3428:3446   */\n      tag_105\n      tag_56\n      jump\t// in\n    tag_105:\n        /* \"#utility.yul\":3413:3448   */\n    tag_104:\n        /* \"#utility.yul\":3614:3615   */\n      0x01\n        /* \"#utility.yul\":3611:3612   */\n      0x00\n        /* \"#utility.yul\":3607:3616   */\n      sub\n        /* \"#utility.yul\":3604:3605   */\n      dup4\n        /* \"#utility.yul\":3601:3617   */\n      eq\n        /* \"#utility.yul\":3520:3586   */\n      0x8000000000000000000000000000000000000000000000000000000000000000\n        /* \"#utility.yul\":3517:3518   */\n      dup4\n        /* \"#utility.yul\":3514:3587   */\n      eq\n        /* \"#utility.yul\":3497:3627   */\n      and\n        /* \"#utility.yul\":3494:3650   */\n      iszero\n      tag_106\n      jumpi\n        /* \"#utility.yul\":3630:3648   */\n      tag_107\n      tag_55\n      jump\t// in\n    tag_107:\n        /* \"#utility.yul\":3494:3650   */\n    tag_106:\n        /* \"#utility.yul\":3673:3674   */\n      dup3\n        /* \"#utility.yul\":3670:3671   */\n      dup3\n        /* \"#utility.yul\":3665:3675   */\n      sdiv\n        /* \"#utility.yul\":3660:3675   */\n      swap1\n      pop\n        /* \"#utility.yul\":3296:3681   */\n      swap3\n      swap2\n      pop\n      pop\n      jump\t// out\n        /* \"#utility.yul\":3687:4062   */\n    tag_38:\n        /* \"#utility.yul\":3726:3729   */\n      0x00\n        /* \"#utility.yul\":3745:3764   */\n      tag_109\n        /* \"#utility.yul\":3762:3763   */\n      dup3\n        /* \"#utility.yul\":3745:3764   */\n      tag_51\n      jump\t// in\n    tag_109:\n        /* \"#utility.yul\":3740:3764   */\n      swap2\n      pop\n        /* \"#utility.yul\":3778:3797   */\n      tag_110\n        /* \"#utility.yul\":3795:3796   */\n      dup4\n        /* \"#utility.yul\":3778:3797   */\n      tag_51\n      jump\t// in\n    tag_110:\n        /* \"#utility.yul\":3773:3797   */\n      swap3\n      pop\n        /* \"#utility.yul\":3820:3821   */\n      dup3\n        /* \"#utility.yul\":3817:3818   */\n      dup3\n        /* \"#utility.yul\":3813:3822   */\n      add\n        /* \"#utility.yul\":3806:3822   */\n      swap1\n      pop\n        /* \"#utility.yul\":4018:4019   */\n      dup3\n        /* \"#utility.yul\":4013:4016   */\n      dup2\n        /* \"#utility.yul\":4009:4020   */\n      slt\n        /* \"#utility.yul\":4002:4021   */\n      iszero\n        /* \"#utility.yul\":3998:3999   */\n      0x00\n        /* \"#utility.yul\":3995:3996   */\n      dup4\n        /* \"#utility.yul\":3991:4000   */\n      slt\n        /* \"#utility.yul\":3987:4022   */\n      and\n        /* \"#utility.yul\":3970:3971   */\n      dup4\n        /* \"#utility.yul\":3965:3968   */\n      dup3\n        /* \"#utility.yul\":3961:3972   */\n      slt\n        /* \"#utility.yul\":3956:3957   */\n      0x00\n        /* \"#utility.yul\":3953:3954   */\n      dup5\n        /* \"#utility.yul\":3949:3958   */\n      slt\n        /* \"#utility.yul\":3942:3959   */\n      iszero\n        /* \"#utility.yul\":3938:3973   */\n      and\n        /* \"#utility.yul\":3922:4032   */\n      or\n        /* \"#utility.yul\":3919:4055   */\n      iszero\n      tag_111\n      jumpi\n        /* \"#utility.yul\":4035:4053   */\n      tag_112\n      tag_55\n      jump\t// in\n    tag_112:\n        /* \"#utility.yul\":3919:4055   */\n    tag_111:\n        /* \"#utility.yul\":3687:4062   */\n      swap3\n      swap2\n      pop\n      pop\n      jump\t// out\n\n    auxdata: 0xa264697066735822122028e5a48696825ef92d8e0a68d301f9ba2cd9ae874bec682737bc0cd673b6edd164736f6c634300081e0033\n}\n",
				"bytecode": {
					"linkReferences": {},
					"object": "6080604052348015600e575f5ffd5b506104638061001c5f395ff3fe608060405234801561000f575f5ffd5b506004361061003f575f3560e01c80637209b79f14610043578063a27407fa14610073578063c9f9e49e146100a3575b5f5ffd5b61005d600480360381019061005891906101e0565b6100d3565b60405161006a919061021a565b60405180910390f35b61008d60048036038101906100889190610266565b610114565b60405161009a91906102b3565b60405180910390f35b6100bd60048036038101906100b891906101e0565b610160565b6040516100ca919061021a565b60405180910390f35b5f5f5f90505f600190505b80826100ea91906102f9565b915080806100f79061032e565b9150508361ffff168161ffff1611156100de578192505050919050565b5f5f5f90505f8490505b83811215610155576002846101339190610384565b81121561015557808261014691906103ec565b9150808060010191505061011e565b508091505092915050565b5f5f5f90505f600190505b8361ffff168161ffff161161019b57808261018691906102f9565b915080806101939061032e565b91505061016b565b8192505050919050565b5f5ffd5b5f61ffff82169050919050565b6101bf816101a9565b81146101c9575f5ffd5b50565b5f813590506101da816101b6565b92915050565b5f602082840312156101f5576101f46101a5565b5b5f610202848285016101cc565b91505092915050565b610214816101a9565b82525050565b5f60208201905061022d5f83018461020b565b92915050565b5f819050919050565b61024581610233565b811461024f575f5ffd5b50565b5f813590506102608161023c565b92915050565b5f5f6040838503121561027c5761027b6101a5565b5b5f61028985828601610252565b925050602061029a85828601610252565b9150509250929050565b6102ad81610233565b82525050565b5f6020820190506102c65f8301846102a4565b92915050565b7f4e487b71000000000000000000000000000000000000000000000000000000005f52601160045260245ffd5b5f610303826101a9565b915061030e836101a9565b9250828201905061ffff811115610328576103276102cc565b5b92915050565b5f610338826101a9565b915061ffff820361034c5761034b6102cc565b5b600182019050919050565b7f4e487b71000000000000000000000000000000000000000000000000000000005f52601260045260245ffd5b5f61038e82610233565b915061039983610233565b9250826103a9576103a8610357565b5b60015f0383147f8000000000000000000000000000000000000000000000000000000000000000831416156103e1576103e06102cc565b5b828205905092915050565b5f6103f682610233565b915061040183610233565b92508282019050828112155f8312168382125f841215161715610427576104266102cc565b5b9291505056fea264697066735822122028e5a48696825ef92d8e0a68d301f9ba2cd9ae874bec682737bc0cd673b6edd164736f6c634300081e0033",
					"opcodes": "PUSH1 0x80 PUSH1 0x40 MSTORE CALLVALUE DUP1 ISZERO PUSH1 0xE JUMPI PUSH0 PUSH0 REVERT JUMPDEST POP PUSH2 0x463 DUP1 PUSH2 0x1C PUSH0 CODECOPY PUSH0 RETURN INVALID PUSH1 0x80 PUSH1 0x40 MSTORE CALLVALUE DUP1 ISZERO PUSH2 0xF JUMPI PUSH0 PUSH0 REVERT JUMPDEST POP PUSH1 0x4 CALLDATASIZE LT PUSH2 0x3F JUMPI PUSH0 CALLDATALOAD PUSH1 0xE0 SHR DUP1 PUSH4 0x7209B79F EQ PUSH2 0x43 JUMPI DUP1 PUSH4 0xA27407FA EQ PUSH2 0x73 JUMPI DUP1 PUSH4 0xC9F9E49E EQ PUSH2 0xA3 JUMPI JUMPDEST PUSH0 PUSH0 REVERT JUMPDEST PUSH2 0x5D PUSH1 0x4 DUP1 CALLDATASIZE SUB DUP2 ADD SWAP1 PUSH2 0x58 SWAP2 SWAP1 PUSH2 0x1E0 JUMP JUMPDEST PUSH2 0xD3 JUMP JUMPDEST PUSH1 0x40 MLOAD PUSH2 0x6A SWAP2 SWAP1 PUSH2 0x21A JUMP JUMPDEST PUSH1 0x40 MLOAD DUP1 SWAP2 SUB SWAP1 RETURN JUMPDEST PUSH2 0x8D PUSH1 0x4 DUP1 CALLDATASIZE SUB DUP2 ADD SWAP1 PUSH2 0x88 SWAP2 SWAP1 PUSH2 0x266 JUMP JUMPDEST PUSH2 0x114 JUMP JUMPDEST PUSH1 0x40 MLOAD PUSH2 0x9A SWAP2 SWAP1 PUSH2 0x2B3 JUMP JUMPDEST PUSH1 0x40 MLOAD DUP1 SWAP2 SUB SWAP1 RETURN JUMPDEST PUSH2 0xBD PUSH1 0x4 DUP1 CALLDATASIZE SUB DUP2 ADD SWAP1 PUSH2 0xB8 SWAP2 SWAP1 PUSH2 0x1E0 JUMP JUMPDEST PUSH2 0x160 JUMP JUMPDEST PUSH1 0x40 MLOAD PUSH2 0xCA SWAP2 SWAP1 PUSH2 0x21A JUMP JUMPDEST PUSH1 0x40 MLOAD DUP1 SWAP2 SUB SWAP1 RETURN JUMPDEST PUSH0 PUSH0 PUSH0 SWAP1 POP PUSH0 PUSH1 0x1 SWAP1 POP JUMPDEST DUP1 DUP3 PUSH2 0xEA SWAP2 SWAP1 PUSH2 0x2F9 JUMP JUMPDEST SWAP2 POP DUP1 DUP1 PUSH2 0xF7 SWAP1 PUSH2 0x32E JUMP JUMPDEST SWAP2 POP POP DUP4 PUSH2 0xFFFF AND DUP2 PUSH2 0xFFFF AND GT ISZERO PUSH2 0xDE JUMPI DUP2 SWAP3 POP POP POP SWAP2 SWAP1 POP JUMP JUMPDEST PUSH0 PUSH0 PUSH0 SWAP1 POP PUSH0 DUP5 SWAP1 POP JUMPDEST DUP4 DUP2 SLT ISZERO PUSH2 0x155 JUMPI PUSH1 0x2 DUP5 PUSH2 0x133 SWAP2 SWAP1 PUSH2 0x384 JUMP JUMPDEST DUP2 SLT ISZERO PUSH2 0x155 JUMPI DUP1 DUP3 PUSH2 0x146 SWAP2 SWAP1 PUSH2 0x3EC JUMP JUMPDEST SWAP2 POP DUP1 DUP1 PUSH1 0x1 ADD SWAP2 POP POP PUSH2 0x11E JUMP JUMPDEST POP DUP1 SWAP2 POP POP SWAP3 SWAP2 POP POP JUMP JUMPDEST PUSH0 PUSH0 PUSH0 SWAP1 POP PUSH0 PUSH1 0x1 SWAP1 POP JUMPDEST DUP4 PUSH2 0xFFFF AND DUP2 PUSH2 0xFFFF AND GT PUSH2 0x19B JUMPI DUP1 DUP3 PUSH2 0x186 SWAP2 SWAP1 PUSH2 0x2F9 JUMP JUMPDEST SWAP2 POP DUP1 DUP1 PUSH2 0x193 SWAP1 PUSH2 0x32E JUMP JUMPDEST SWAP2 POP POP PUSH2 0x16B JUMP JUMPDEST DUP2 SWAP3 POP POP POP SWAP2 SWAP1 POP JUMP JUMPDEST PUSH0 PUSH0 REVERT JUMPDEST PUSH0 PUSH2 0xFFFF DUP3 AND SWAP1 POP SWAP2 SWAP1 POP JUMP JUMPDEST PUSH2 0x1BF DUP2 PUSH2 0x1A9 JUMP JUMPDEST DUP2 EQ PUSH2 0x1C9 JUMPI PUSH0 PUSH0 REVERT JUMPDEST POP JUMP JUMPDEST PUSH0 DUP2 CALLDATALOAD SWAP1 POP PUSH2 0x1DA DUP2 PUSH2 0x1B6 JUMP JUMPDEST SWAP3 SWAP2 POP POP JUMP JUMPDEST PUSH0 PUSH1 0x20 DUP3 DUP5 SUB SLT ISZERO PUSH2 0x1F5 JUMPI PUSH2 0x1F4 PUSH2 0x1A5 JUMP JUMPDEST JUMPDEST PUSH0 PUSH2 0x202 DUP5 DUP3 DUP6 ADD PUSH2 0x1CC JUMP JUMPDEST SWAP2 POP POP SWAP3 SWAP2 POP POP JUMP JUMPDEST PUSH2 0x214 DUP2 PUSH2 0x1A9 JUMP JUMPDEST DUP3 MSTORE POP POP JUMP JUMPDEST PUSH0 PUSH1 0x20 DUP3 ADD SWAP1 POP PUSH2 0x22D PUSH0 DUP4 ADD DUP5 PUSH2 0x20B JUMP JUMPDEST SWAP3 SWAP2 POP POP JUMP JUMPDEST PUSH0 DUP2 SWAP1 POP SWAP2 SWAP1 POP JUMP JUMPDEST PUSH2 0x245 DUP2 PUSH2 0x233 JUMP JUMPDEST DUP2 EQ PUSH2 0x24F JUMPI PUSH0 PUSH0 REVERT JUMPDEST POP JUMP JUMPDEST PUSH0 DUP2 CALLDATALOAD SWAP1 POP PUSH2 0x260 DUP2 PUSH2 0x23C JUMP JUMPDEST SWAP3 SWAP2 POP POP JUMP JUMPDEST PUSH0 PUSH0 PUSH1 0x40 DUP4 DUP6 SUB SLT ISZERO PUSH2 0x27C JUMPI PUSH2 0x27B PUSH2 0x1A5 JUMP JUMPDEST JUMPDEST PUSH0 PUSH2 0x289 DUP6 DUP3 DUP7 ADD PUSH2 0x252 JUMP JUMPDEST SWAP3 POP POP PUSH1 0x20 PUSH2 0x29A DUP6 DUP3 DUP7 ADD PUSH2 0x252 JUMP JUMPDEST SWAP2 POP POP SWAP3 POP SWAP3 SWAP1 POP JUMP JUMPDEST PUSH2 0x2AD DUP2 PUSH2 0x233 JUMP JUMPDEST DUP3 MSTORE POP POP JUMP JUMPDEST PUSH0 PUSH1 0x20 DUP3 ADD SWAP1 POP PUSH2 0x2C6 PUSH0 DUP4 ADD DUP5 PUSH2 0x2A4 JUMP JUMPDEST SWAP3 SWAP2 POP POP JUMP JUMPDEST PUSH32 0x4E487B7100000000000000000000000000000000000000000000000000000000 PUSH0 MSTORE PUSH1 0x11 PUSH1 0x4 MSTORE PUSH1 0x24 PUSH0 REVERT JUMPDEST PUSH0 PUSH2 0x303 DUP3 PUSH2 0x1A9 JUMP JUMPDEST SWAP2 POP PUSH2 0x30E DUP4 PUSH2 0x1A9 JUMP JUMPDEST SWAP3 POP DUP3 DUP3 ADD SWAP1 POP PUSH2 0xFFFF DUP2 GT ISZERO PUSH2 0x328 JUMPI PUSH2 0x327 PUSH2 0x2CC JUMP JUMPDEST JUMPDEST SWAP3 SWAP2 POP POP JUMP JUMPDEST PUSH0 PUSH2 0x338 DUP3 PUSH2 0x1A9 JUMP JUMPDEST SWAP2 POP PUSH2 0xFFFF DUP3 SUB PUSH2 0x34C JUMPI PUSH2 0x34B PUSH2 0x2CC JUMP JUMPDEST JUMPDEST PUSH1 0x1 DUP3 ADD SWAP1 POP SWAP2 SWAP1 POP JUMP JUMPDEST PUSH32 0x4E487B7100000000000000000000000000000000000000000000000000000000 PUSH0 MSTORE PUSH1 0x12 PUSH1 0x4 MSTORE PUSH1 0x24 PUSH0 REVERT JUMPDEST PUSH0 PUSH2 0x38E DUP3 PUSH2 0x233 JUMP JUMPDEST SWAP2 POP PUSH2 0x399 DUP4 PUSH2 0x233 JUMP JUMPDEST SWAP3 POP DUP3 PUSH2 0x3A9 JUMPI PUSH2 0x3A8 PUSH2 0x357 JUMP JUMPDEST JUMPDEST PUSH1 0x1 PUSH0 SUB DUP4 EQ PUSH32 0x8000000000000000000000000000000000000000000000000000000000000000 DUP4 EQ AND ISZERO PUSH2 0x3E1 JUMPI PUSH2 0x3E0 PUSH2 0x2CC JUMP JUMPDEST JUMPDEST DUP3 DUP3 SDIV SWAP1 POP SWAP3 SWAP2 POP POP JUMP JUMPDEST PUSH0 PUSH2 0x3F6 DUP3 PUSH2 0x233 JUMP JUMPDEST SWAP2 POP PUSH2 0x401 DUP4 PUSH2 0x233 JUMP JUMPDEST SWAP3 POP DUP3 DUP3 ADD SWAP1 POP DUP3 DUP2 SLT ISZERO PUSH0 DUP4 SLT AND DUP4 DUP3 SLT PUSH0 DUP5 SLT ISZERO AND OR ISZERO PUSH2 0x427 JUMPI PUSH2 0x426 PUSH2 0x2CC JUMP JUMPDEST JUMPDEST SWAP3 SWAP2 POP POP JUMP INVALID LOG2 PUSH5 0x6970667358 0x22 SLT KECCAK256 0x28 JUMPF 0xA486 SWAP7 DUP3 MCOPY EXTDELEGATECALL 0x2D DUP15 EXP PUSH9 0xD301F9BA2CD9AE874B EOFCREATE 0x68 0x27 CALLDATACOPY 0xBC 0xC 0xD6 PUSH20 0xB6EDD164736F6C634300081E0033000000000000 "
				},
				"gasEstimates": {
					"creation": {
						"codeDepositCost": "224600",
						"executionCost": "267",
						"totalCost": "224867"
					},
					"external": {
						"sumToN(int256,int256)": "infinite",
						"sumToN1(uint16)": "infinite",
						"sumToN2(uint16)": "infinite"
					}
				},
				"methodIdentifiers": {
					"sumToN(int256,int256)": "a27407fa",
					"sumToN1(uint16)": "c9f9e49e",
					"sumToN2(uint16)": "7209b79f"
				}
			},
			"storageLayout": {
				"storage": [],
				"types": null
			},
			"userdoc": {
				"kind": "user",
				"methods": {},
				"version": 1
			}
		}
	}
}