{
	"contracts/4.contract/继承.sol": {
		"A2": {
			"abi": [
				{
					"inputs": [],
					"name": "foo",
					"outputs": [],
					"stateMutability": "nonpayable",
					"type": "function"
				},
				{
					"inputs": [],
					"name": "foo1",
					"outputs": [],
					"stateMutability": "nonpayable",
					"type": "function"
				}
			],
			"devdoc": {
				"kind": "dev",
				"methods": {},
				"version": 1
			},
			"evm": {
				"assembly": "    /* \"contracts/4.contract/\\xe7\\xbb\\xa7\\xe6\\x89\\xbf.sol\":1018:1150  contract A2 {... */\n  mstore(0x40, 0x80)\n  callvalue\n  dup1\n  iszero\n  tag_1\n  jumpi\n  revert(0x00, 0x00)\ntag_1:\n  pop\n  dataSize(sub_0)\n  dup1\n  dataOffset(sub_0)\n  0x00\n  codecopy\n  0x00\n  return\nstop\n\nsub_0: assembly {\n        /* \"contracts/4.contract/\\xe7\\xbb\\xa7\\xe6\\x89\\xbf.sol\":1018:1150  contract A2 {... */\n      mstore(0x40, 0x80)\n      callvalue\n      dup1\n      iszero\n      tag_1\n      jumpi\n      revert(0x00, 0x00)\n    tag_1:\n      pop\n      jumpi(tag_2, lt(calldatasize, 0x04))\n      shr(0xe0, calldataload(0x00))\n      dup1\n      0xc2985578\n      eq\n      tag_3\n      jumpi\n      dup1\n      0xd38955e8\n      eq\n      tag_4\n      jumpi\n    tag_2:\n      revert(0x00, 0x00)\n        /* \"contracts/4.contract/\\xe7\\xbb\\xa7\\xe6\\x89\\xbf.sol\":1076:1108  function foo() virtual public {} */\n    tag_3:\n      tag_5\n      tag_6\n      jump\t// in\n    tag_5:\n      stop\n        /* \"contracts/4.contract/\\xe7\\xbb\\xa7\\xe6\\x89\\xbf.sol\":1114:1147  function foo1() virtual public {} */\n    tag_4:\n      tag_7\n      tag_8\n      jump\t// in\n    tag_7:\n      stop\n        /* \"contracts/4.contract/\\xe7\\xbb\\xa7\\xe6\\x89\\xbf.sol\":1076:1108  function foo() virtual public {} */\n    tag_6:\n      jump\t// out\n        /* \"contracts/4.contract/\\xe7\\xbb\\xa7\\xe6\\x89\\xbf.sol\":1114:1147  function foo1() virtual public {} */\n    tag_8:\n      jump\t// out\n\n    auxdata: 0xa2646970667358221220df604df58e194e3073d43e50e80245378af064fc967d00a7804249a5c5bcf25064736f6c634300081e0033\n}\n",
				"bytecode": {
					"linkReferences": {},
					"object": "6080604052348015600e575f5ffd5b50607e80601a5f395ff3fe6080604052348015600e575f5ffd5b50600436106030575f3560e01c8063c2985578146034578063d38955e814603c575b5f5ffd5b603a6044565b005b60426046565b005b565b56fea2646970667358221220df604df58e194e3073d43e50e80245378af064fc967d00a7804249a5c5bcf25064736f6c634300081e0033",
					"opcodes": "PUSH1 0x80 PUSH1 0x40 MSTORE CALLVALUE DUP1 ISZERO PUSH1 0xE JUMPI PUSH0 PUSH0 REVERT JUMPDEST POP PUSH1 0x7E DUP1 PUSH1 0x1A PUSH0 CODECOPY PUSH0 RETURN INVALID PUSH1 0x80 PUSH1 0x40 MSTORE CALLVALUE DUP1 ISZERO PUSH1 0xE JUMPI PUSH0 PUSH0 REVERT JUMPDEST POP PUSH1 0x4 CALLDATASIZE LT PUSH1 0x30 JUMPI PUSH0 CALLDATALOAD PUSH1 0xE0 SHR DUP1 PUSH4 0xC2985578 EQ PUSH1 0x34 JUMPI DUP1 PUSH4 0xD38955E8 EQ PUSH1 0x3C JUMPI JUMPDEST PUSH0 PUSH0 REVERT JUMPDEST PUSH1 0x3A PUSH1 0x44 JUMP JUMPDEST STOP JUMPDEST PUSH1 0x42 PUSH1 0x46 JUMP JUMPDEST STOP JUMPDEST JUMP JUMPDEST JUMP INVALID LOG2 PUSH5 0x6970667358 0x22 SLT KECCAK256 0xDF PUSH1 0x4D CREATE2 DUP15 NOT 0x4E ADDRESS PUSH20 0xD43E50E80245378AF064FC967D00A7804249A5C5 0xBC CALLCODE POP PUSH5 0x736F6C6343 STOP ADDMOD 0x1E STOP CALLER "
				},
				"gasEstimates": {
					"creation": {
						"codeDepositCost": "25200",
						"executionCost": "73",
						"totalCost": "25273"
					},
					"external": {
						"foo()": "121",
						"foo1()": "143"
					}
				},
				"methodIdentifiers": {
					"foo()": "c2985578",
					"foo1()": "d38955e8"
				}
			},
			"storageLayout": {
				"storage": [],
				"types": null
			},
			"userdoc": {
				"kind": "user",
				"methods": {},
				"version": 1
			}
		}
	}
}