{
	"contracts/4.contract/继承.sol": {
		"B1": {
			"abi": [
				{
					"inputs": [
						{
							"internalType": "bytes32",
							"name": "value",
							"type": "bytes32"
						},
						{
							"internalType": "bool",
							"name": "really",
							"type": "bool"
						}
					],
					"name": "f",
					"outputs": [
						{
							"internalType": "bytes32",
							"name": "out",
							"type": "bytes32"
						}
					],
					"stateMutability": "pure",
					"type": "function"
				},
				{
					"inputs": [
						{
							"internalType": "bytes1",
							"name": "value",
							"type": "bytes1"
						}
					],
					"name": "f",
					"outputs": [
						{
							"internalType": "bytes1",
							"name": "out",
							"type": "bytes1"
						}
					],
					"stateMutability": "pure",
					"type": "function"
				},
				{
					"inputs": [],
					"name": "foo",
					"outputs": [],
					"stateMutability": "view",
					"type": "function"
				}
			],
			"devdoc": {
				"kind": "dev",
				"methods": {},
				"version": 1
			},
			"evm": {
				"assembly": "    /* \"contracts/4.contract/\\xe7\\xbb\\xa7\\xe6\\x89\\xbf.sol\":891:997  contract B1 is A1 {... */\n  mstore(0x40, 0x80)\n  callvalue\n  dup1\n  iszero\n  tag_1\n  jumpi\n  revert(0x00, 0x00)\ntag_1:\n  pop\n  dataSize(sub_0)\n  dup1\n  dataOffset(sub_0)\n  0x00\n  codecopy\n  0x00\n  return\nstop\n\nsub_0: assembly {\n        /* \"contracts/4.contract/\\xe7\\xbb\\xa7\\xe6\\x89\\xbf.sol\":891:997  contract B1 is A1 {... */\n      mstore(0x40, 0x80)\n      callvalue\n      dup1\n      iszero\n      tag_1\n      jumpi\n      revert(0x00, 0x00)\n    tag_1:\n      pop\n      jumpi(tag_2, lt(calldatasize, 0x04))\n      shr(0xe0, calldataload(0x00))\n      dup1\n      0x5877f1c1\n      eq\n      tag_3\n      jumpi\n      dup1\n      0xc2985578\n      eq\n      tag_4\n      jumpi\n      dup1\n      0xf2a03a95\n      eq\n      tag_5\n      jumpi\n    tag_2:\n      revert(0x00, 0x00)\n        /* \"contracts/4.contract/\\xe7\\xbb\\xa7\\xe6\\x89\\xbf.sol\":756:884  function f(bytes32 value, bool really) public pure returns (bytes32 out) {... */\n    tag_3:\n      tag_6\n      0x04\n      dup1\n      calldatasize\n      sub\n      dup2\n      add\n      swap1\n      tag_7\n      swap2\n      swap1\n      tag_8\n      jump\t// in\n    tag_7:\n      tag_9\n      jump\t// in\n    tag_6:\n      mload(0x40)\n      tag_10\n      swap2\n      swap1\n      tag_11\n      jump\t// in\n    tag_10:\n      mload(0x40)\n      dup1\n      swap2\n      sub\n      swap1\n      return\n        /* \"contracts/4.contract/\\xe7\\xbb\\xa7\\xe6\\x89\\xbf.sol\":956:994  function foo() public override view {} */\n    tag_4:\n      tag_12\n      tag_13\n      jump\t// in\n    tag_12:\n      stop\n        /* \"contracts/4.contract/\\xe7\\xbb\\xa7\\xe6\\x89\\xbf.sol\":660:748  function f(bytes1 value) public pure returns (bytes1 out) {... */\n    tag_5:\n      tag_14\n      0x04\n      dup1\n      calldatasize\n      sub\n      dup2\n      add\n      swap1\n      tag_15\n      swap2\n      swap1\n      tag_16\n      jump\t// in\n    tag_15:\n      tag_17\n      jump\t// in\n    tag_14:\n      mload(0x40)\n      tag_18\n      swap2\n      swap1\n      tag_19\n      jump\t// in\n    tag_18:\n      mload(0x40)\n      dup1\n      swap2\n      sub\n      swap1\n      return\n        /* \"contracts/4.contract/\\xe7\\xbb\\xa7\\xe6\\x89\\xbf.sol\":756:884  function f(bytes32 value, bool really) public pure returns (bytes32 out) {... */\n    tag_9:\n        /* \"contracts/4.contract/\\xe7\\xbb\\xa7\\xe6\\x89\\xbf.sol\":816:827  bytes32 out */\n      0x00\n        /* \"contracts/4.contract/\\xe7\\xbb\\xa7\\xe6\\x89\\xbf.sol\":844:850  really */\n      dup2\n        /* \"contracts/4.contract/\\xe7\\xbb\\xa7\\xe6\\x89\\xbf.sol\":840:876  if (really)... */\n      iszero\n      tag_21\n      jumpi\n        /* \"contracts/4.contract/\\xe7\\xbb\\xa7\\xe6\\x89\\xbf.sol\":871:876  value */\n      dup3\n        /* \"contracts/4.contract/\\xe7\\xbb\\xa7\\xe6\\x89\\xbf.sol\":865:876  out = value */\n      swap1\n      pop\n        /* \"contracts/4.contract/\\xe7\\xbb\\xa7\\xe6\\x89\\xbf.sol\":840:876  if (really)... */\n    tag_21:\n        /* \"contracts/4.contract/\\xe7\\xbb\\xa7\\xe6\\x89\\xbf.sol\":756:884  function f(bytes32 value, bool really) public pure returns (bytes32 out) {... */\n      swap3\n      swap2\n      pop\n      pop\n      jump\t// out\n        /* \"contracts/4.contract/\\xe7\\xbb\\xa7\\xe6\\x89\\xbf.sol\":956:994  function foo() public override view {} */\n    tag_13:\n      jump\t// out\n        /* \"contracts/4.contract/\\xe7\\xbb\\xa7\\xe6\\x89\\xbf.sol\":660:748  function f(bytes1 value) public pure returns (bytes1 out) {... */\n    tag_17:\n        /* \"contracts/4.contract/\\xe7\\xbb\\xa7\\xe6\\x89\\xbf.sol\":706:716  bytes1 out */\n      0x00\n        /* \"contracts/4.contract/\\xe7\\xbb\\xa7\\xe6\\x89\\xbf.sol\":735:740  value */\n      dup2\n        /* \"contracts/4.contract/\\xe7\\xbb\\xa7\\xe6\\x89\\xbf.sol\":729:740  out = value */\n      swap1\n      pop\n        /* \"contracts/4.contract/\\xe7\\xbb\\xa7\\xe6\\x89\\xbf.sol\":660:748  function f(bytes1 value) public pure returns (bytes1 out) {... */\n      swap2\n      swap1\n      pop\n      jump\t// out\n        /* \"#utility.yul\":88:205   */\n    tag_25:\n        /* \"#utility.yul\":197:198   */\n      0x00\n        /* \"#utility.yul\":194:195   */\n      0x00\n        /* \"#utility.yul\":187:199   */\n      revert\n        /* \"#utility.yul\":334:411   */\n    tag_27:\n        /* \"#utility.yul\":371:378   */\n      0x00\n        /* \"#utility.yul\":400:405   */\n      dup2\n        /* \"#utility.yul\":389:405   */\n      swap1\n      pop\n        /* \"#utility.yul\":334:411   */\n      swap2\n      swap1\n      pop\n      jump\t// out\n        /* \"#utility.yul\":417:539   */\n    tag_28:\n        /* \"#utility.yul\":490:514   */\n      tag_44\n        /* \"#utility.yul\":508:513   */\n      dup2\n        /* \"#utility.yul\":490:514   */\n      tag_27\n      jump\t// in\n    tag_44:\n        /* \"#utility.yul\":483:488   */\n      dup2\n        /* \"#utility.yul\":480:515   */\n      eq\n        /* \"#utility.yul\":470:533   */\n      tag_45\n      jumpi\n        /* \"#utility.yul\":529:530   */\n      0x00\n        /* \"#utility.yul\":526:527   */\n      0x00\n        /* \"#utility.yul\":519:531   */\n      revert\n        /* \"#utility.yul\":470:533   */\n    tag_45:\n        /* \"#utility.yul\":417:539   */\n      pop\n      jump\t// out\n        /* \"#utility.yul\":545:684   */\n    tag_29:\n        /* \"#utility.yul\":591:596   */\n      0x00\n        /* \"#utility.yul\":629:635   */\n      dup2\n        /* \"#utility.yul\":616:636   */\n      calldataload\n        /* \"#utility.yul\":607:636   */\n      swap1\n      pop\n        /* \"#utility.yul\":645:678   */\n      tag_47\n        /* \"#utility.yul\":672:677   */\n      dup2\n        /* \"#utility.yul\":645:678   */\n      tag_28\n      jump\t// in\n    tag_47:\n        /* \"#utility.yul\":545:684   */\n      swap3\n      swap2\n      pop\n      pop\n      jump\t// out\n        /* \"#utility.yul\":690:780   */\n    tag_30:\n        /* \"#utility.yul\":724:731   */\n      0x00\n        /* \"#utility.yul\":767:772   */\n      dup2\n        /* \"#utility.yul\":760:773   */\n      iszero\n        /* \"#utility.yul\":753:774   */\n      iszero\n        /* \"#utility.yul\":742:774   */\n      swap1\n      pop\n        /* \"#utility.yul\":690:780   */\n      swap2\n      swap1\n      pop\n      jump\t// out\n        /* \"#utility.yul\":786:902   */\n    tag_31:\n        /* \"#utility.yul\":856:877   */\n      tag_50\n        /* \"#utility.yul\":871:876   */\n      dup2\n        /* \"#utility.yul\":856:877   */\n      tag_30\n      jump\t// in\n    tag_50:\n        /* \"#utility.yul\":849:854   */\n      dup2\n        /* \"#utility.yul\":846:878   */\n      eq\n        /* \"#utility.yul\":836:896   */\n      tag_51\n      jumpi\n        /* \"#utility.yul\":892:893   */\n      0x00\n        /* \"#utility.yul\":889:890   */\n      0x00\n        /* \"#utility.yul\":882:894   */\n      revert\n        /* \"#utility.yul\":836:896   */\n    tag_51:\n        /* \"#utility.yul\":786:902   */\n      pop\n      jump\t// out\n        /* \"#utility.yul\":908:1041   */\n    tag_32:\n        /* \"#utility.yul\":951:956   */\n      0x00\n        /* \"#utility.yul\":989:995   */\n      dup2\n        /* \"#utility.yul\":976:996   */\n      calldataload\n        /* \"#utility.yul\":967:996   */\n      swap1\n      pop\n        /* \"#utility.yul\":1005:1035   */\n      tag_53\n        /* \"#utility.yul\":1029:1034   */\n      dup2\n        /* \"#utility.yul\":1005:1035   */\n      tag_31\n      jump\t// in\n    tag_53:\n        /* \"#utility.yul\":908:1041   */\n      swap3\n      swap2\n      pop\n      pop\n      jump\t// out\n        /* \"#utility.yul\":1047:1515   */\n    tag_8:\n        /* \"#utility.yul\":1112:1118   */\n      0x00\n        /* \"#utility.yul\":1120:1126   */\n      0x00\n        /* \"#utility.yul\":1169:1171   */\n      0x40\n        /* \"#utility.yul\":1157:1166   */\n      dup4\n        /* \"#utility.yul\":1148:1155   */\n      dup6\n        /* \"#utility.yul\":1144:1167   */\n      sub\n        /* \"#utility.yul\":1140:1172   */\n      slt\n        /* \"#utility.yul\":1137:1256   */\n      iszero\n      tag_55\n      jumpi\n        /* \"#utility.yul\":1175:1254   */\n      tag_56\n      tag_25\n      jump\t// in\n    tag_56:\n        /* \"#utility.yul\":1137:1256   */\n    tag_55:\n        /* \"#utility.yul\":1295:1296   */\n      0x00\n        /* \"#utility.yul\":1320:1373   */\n      tag_57\n        /* \"#utility.yul\":1365:1372   */\n      dup6\n        /* \"#utility.yul\":1356:1362   */\n      dup3\n        /* \"#utility.yul\":1345:1354   */\n      dup7\n        /* \"#utility.yul\":1341:1363   */\n      add\n        /* \"#utility.yul\":1320:1373   */\n      tag_29\n      jump\t// in\n    tag_57:\n        /* \"#utility.yul\":1310:1373   */\n      swap3\n      pop\n        /* \"#utility.yul\":1266:1383   */\n      pop\n        /* \"#utility.yul\":1422:1424   */\n      0x20\n        /* \"#utility.yul\":1448:1498   */\n      tag_58\n        /* \"#utility.yul\":1490:1497   */\n      dup6\n        /* \"#utility.yul\":1481:1487   */\n      dup3\n        /* \"#utility.yul\":1470:1479   */\n      dup7\n        /* \"#utility.yul\":1466:1488   */\n      add\n        /* \"#utility.yul\":1448:1498   */\n      tag_32\n      jump\t// in\n    tag_58:\n        /* \"#utility.yul\":1438:1498   */\n      swap2\n      pop\n        /* \"#utility.yul\":1393:1508   */\n      pop\n        /* \"#utility.yul\":1047:1515   */\n      swap3\n      pop\n      swap3\n      swap1\n      pop\n      jump\t// out\n        /* \"#utility.yul\":1521:1639   */\n    tag_33:\n        /* \"#utility.yul\":1608:1632   */\n      tag_60\n        /* \"#utility.yul\":1626:1631   */\n      dup2\n        /* \"#utility.yul\":1608:1632   */\n      tag_27\n      jump\t// in\n    tag_60:\n        /* \"#utility.yul\":1603:1606   */\n      dup3\n        /* \"#utility.yul\":1596:1633   */\n      mstore\n        /* \"#utility.yul\":1521:1639   */\n      pop\n      pop\n      jump\t// out\n        /* \"#utility.yul\":1645:1867   */\n    tag_11:\n        /* \"#utility.yul\":1738:1742   */\n      0x00\n        /* \"#utility.yul\":1776:1778   */\n      0x20\n        /* \"#utility.yul\":1765:1774   */\n      dup3\n        /* \"#utility.yul\":1761:1779   */\n      add\n        /* \"#utility.yul\":1753:1779   */\n      swap1\n      pop\n        /* \"#utility.yul\":1789:1860   */\n      tag_62\n        /* \"#utility.yul\":1857:1858   */\n      0x00\n        /* \"#utility.yul\":1846:1855   */\n      dup4\n        /* \"#utility.yul\":1842:1859   */\n      add\n        /* \"#utility.yul\":1833:1839   */\n      dup5\n        /* \"#utility.yul\":1789:1860   */\n      tag_33\n      jump\t// in\n    tag_62:\n        /* \"#utility.yul\":1645:1867   */\n      swap3\n      swap2\n      pop\n      pop\n      jump\t// out\n        /* \"#utility.yul\":1873:2022   */\n    tag_34:\n        /* \"#utility.yul\":1909:1916   */\n      0x00\n        /* \"#utility.yul\":1949:2015   */\n      0xff00000000000000000000000000000000000000000000000000000000000000\n        /* \"#utility.yul\":1942:1947   */\n      dup3\n        /* \"#utility.yul\":1938:2016   */\n      and\n        /* \"#utility.yul\":1927:2016   */\n      swap1\n      pop\n        /* \"#utility.yul\":1873:2022   */\n      swap2\n      swap1\n      pop\n      jump\t// out\n        /* \"#utility.yul\":2028:2148   */\n    tag_35:\n        /* \"#utility.yul\":2100:2123   */\n      tag_65\n        /* \"#utility.yul\":2117:2122   */\n      dup2\n        /* \"#utility.yul\":2100:2123   */\n      tag_34\n      jump\t// in\n    tag_65:\n        /* \"#utility.yul\":2093:2098   */\n      dup2\n        /* \"#utility.yul\":2090:2124   */\n      eq\n        /* \"#utility.yul\":2080:2142   */\n      tag_66\n      jumpi\n        /* \"#utility.yul\":2138:2139   */\n      0x00\n        /* \"#utility.yul\":2135:2136   */\n      0x00\n        /* \"#utility.yul\":2128:2140   */\n      revert\n        /* \"#utility.yul\":2080:2142   */\n    tag_66:\n        /* \"#utility.yul\":2028:2148   */\n      pop\n      jump\t// out\n        /* \"#utility.yul\":2154:2291   */\n    tag_36:\n        /* \"#utility.yul\":2199:2204   */\n      0x00\n        /* \"#utility.yul\":2237:2243   */\n      dup2\n        /* \"#utility.yul\":2224:2244   */\n      calldataload\n        /* \"#utility.yul\":2215:2244   */\n      swap1\n      pop\n        /* \"#utility.yul\":2253:2285   */\n      tag_68\n        /* \"#utility.yul\":2279:2284   */\n      dup2\n        /* \"#utility.yul\":2253:2285   */\n      tag_35\n      jump\t// in\n    tag_68:\n        /* \"#utility.yul\":2154:2291   */\n      swap3\n      swap2\n      pop\n      pop\n      jump\t// out\n        /* \"#utility.yul\":2297:2624   */\n    tag_16:\n        /* \"#utility.yul\":2355:2361   */\n      0x00\n        /* \"#utility.yul\":2404:2406   */\n      0x20\n        /* \"#utility.yul\":2392:2401   */\n      dup3\n        /* \"#utility.yul\":2383:2390   */\n      dup5\n        /* \"#utility.yul\":2379:2402   */\n      sub\n        /* \"#utility.yul\":2375:2407   */\n      slt\n        /* \"#utility.yul\":2372:2491   */\n      iszero\n      tag_70\n      jumpi\n        /* \"#utility.yul\":2410:2489   */\n      tag_71\n      tag_25\n      jump\t// in\n    tag_71:\n        /* \"#utility.yul\":2372:2491   */\n    tag_70:\n        /* \"#utility.yul\":2530:2531   */\n      0x00\n        /* \"#utility.yul\":2555:2607   */\n      tag_72\n        /* \"#utility.yul\":2599:2606   */\n      dup5\n        /* \"#utility.yul\":2590:2596   */\n      dup3\n        /* \"#utility.yul\":2579:2588   */\n      dup6\n        /* \"#utility.yul\":2575:2597   */\n      add\n        /* \"#utility.yul\":2555:2607   */\n      tag_36\n      jump\t// in\n    tag_72:\n        /* \"#utility.yul\":2545:2607   */\n      swap2\n      pop\n        /* \"#utility.yul\":2501:2617   */\n      pop\n        /* \"#utility.yul\":2297:2624   */\n      swap3\n      swap2\n      pop\n      pop\n      jump\t// out\n        /* \"#utility.yul\":2630:2745   */\n    tag_37:\n        /* \"#utility.yul\":2715:2738   */\n      tag_74\n        /* \"#utility.yul\":2732:2737   */\n      dup2\n        /* \"#utility.yul\":2715:2738   */\n      tag_34\n      jump\t// in\n    tag_74:\n        /* \"#utility.yul\":2710:2713   */\n      dup3\n        /* \"#utility.yul\":2703:2739   */\n      mstore\n        /* \"#utility.yul\":2630:2745   */\n      pop\n      pop\n      jump\t// out\n        /* \"#utility.yul\":2751:2969   */\n    tag_19:\n        /* \"#utility.yul\":2842:2846   */\n      0x00\n        /* \"#utility.yul\":2880:2882   */\n      0x20\n        /* \"#utility.yul\":2869:2878   */\n      dup3\n        /* \"#utility.yul\":2865:2883   */\n      add\n        /* \"#utility.yul\":2857:2883   */\n      swap1\n      pop\n        /* \"#utility.yul\":2893:2962   */\n      tag_76\n        /* \"#utility.yul\":2959:2960   */\n      0x00\n        /* \"#utility.yul\":2948:2957   */\n      dup4\n        /* \"#utility.yul\":2944:2961   */\n      add\n        /* \"#utility.yul\":2935:2941   */\n      dup5\n        /* \"#utility.yul\":2893:2962   */\n      tag_37\n      jump\t// in\n    tag_76:\n        /* \"#utility.yul\":2751:2969   */\n      swap3\n      swap2\n      pop\n      pop\n      jump\t// out\n\n    auxdata: 0xa2646970667358221220c330defd6cd375428960e9f5d8d40fc2a5c2a0f83f598d2f7d2b3fff1172485d64736f6c634300081e0033\n}\n",
				"bytecode": {
					"linkReferences": {},
					"object": "6080604052348015600e575f5ffd5b506102798061001c5f395ff3fe608060405234801561000f575f5ffd5b506004361061003f575f3560e01c80635877f1c114610043578063c298557814610073578063f2a03a951461007d575b5f5ffd5b61005d60048036038101906100589190610135565b6100ad565b60405161006a9190610182565b60405180910390f35b61007b6100be565b005b610097600480360381019061009291906101f0565b6100c0565b6040516100a4919061022a565b60405180910390f35b5f81156100b8578290505b92915050565b565b5f819050919050565b5f5ffd5b5f819050919050565b6100df816100cd565b81146100e9575f5ffd5b50565b5f813590506100fa816100d6565b92915050565b5f8115159050919050565b61011481610100565b811461011e575f5ffd5b50565b5f8135905061012f8161010b565b92915050565b5f5f6040838503121561014b5761014a6100c9565b5b5f610158858286016100ec565b925050602061016985828601610121565b9150509250929050565b61017c816100cd565b82525050565b5f6020820190506101955f830184610173565b92915050565b5f7fff0000000000000000000000000000000000000000000000000000000000000082169050919050565b6101cf8161019b565b81146101d9575f5ffd5b50565b5f813590506101ea816101c6565b92915050565b5f60208284031215610205576102046100c9565b5b5f610212848285016101dc565b91505092915050565b6102248161019b565b82525050565b5f60208201905061023d5f83018461021b565b9291505056fea2646970667358221220c330defd6cd375428960e9f5d8d40fc2a5c2a0f83f598d2f7d2b3fff1172485d64736f6c634300081e0033",
					"opcodes": "PUSH1 0x80 PUSH1 0x40 MSTORE CALLVALUE DUP1 ISZERO PUSH1 0xE JUMPI PUSH0 PUSH0 REVERT JUMPDEST POP PUSH2 0x279 DUP1 PUSH2 0x1C PUSH0 CODECOPY PUSH0 RETURN INVALID PUSH1 0x80 PUSH1 0x40 MSTORE CALLVALUE DUP1 ISZERO PUSH2 0xF JUMPI PUSH0 PUSH0 REVERT JUMPDEST POP PUSH1 0x4 CALLDATASIZE LT PUSH2 0x3F JUMPI PUSH0 CALLDATALOAD PUSH1 0xE0 SHR DUP1 PUSH4 0x5877F1C1 EQ PUSH2 0x43 JUMPI DUP1 PUSH4 0xC2985578 EQ PUSH2 0x73 JUMPI DUP1 PUSH4 0xF2A03A95 EQ PUSH2 0x7D JUMPI JUMPDEST PUSH0 PUSH0 REVERT JUMPDEST PUSH2 0x5D PUSH1 0x4 DUP1 CALLDATASIZE SUB DUP2 ADD SWAP1 PUSH2 0x58 SWAP2 SWAP1 PUSH2 0x135 JUMP JUMPDEST PUSH2 0xAD JUMP JUMPDEST PUSH1 0x40 MLOAD PUSH2 0x6A SWAP2 SWAP1 PUSH2 0x182 JUMP JUMPDEST PUSH1 0x40 MLOAD DUP1 SWAP2 SUB SWAP1 RETURN JUMPDEST PUSH2 0x7B PUSH2 0xBE JUMP JUMPDEST STOP JUMPDEST PUSH2 0x97 PUSH1 0x4 DUP1 CALLDATASIZE SUB DUP2 ADD SWAP1 PUSH2 0x92 SWAP2 SWAP1 PUSH2 0x1F0 JUMP JUMPDEST PUSH2 0xC0 JUMP JUMPDEST PUSH1 0x40 MLOAD PUSH2 0xA4 SWAP2 SWAP1 PUSH2 0x22A JUMP JUMPDEST PUSH1 0x40 MLOAD DUP1 SWAP2 SUB SWAP1 RETURN JUMPDEST PUSH0 DUP2 ISZERO PUSH2 0xB8 JUMPI DUP3 SWAP1 POP JUMPDEST SWAP3 SWAP2 POP POP JUMP JUMPDEST JUMP JUMPDEST PUSH0 DUP2 SWAP1 POP SWAP2 SWAP1 POP JUMP JUMPDEST PUSH0 PUSH0 REVERT JUMPDEST PUSH0 DUP2 SWAP1 POP SWAP2 SWAP1 POP JUMP JUMPDEST PUSH2 0xDF DUP2 PUSH2 0xCD JUMP JUMPDEST DUP2 EQ PUSH2 0xE9 JUMPI PUSH0 PUSH0 REVERT JUMPDEST POP JUMP JUMPDEST PUSH0 DUP2 CALLDATALOAD SWAP1 POP PUSH2 0xFA DUP2 PUSH2 0xD6 JUMP JUMPDEST SWAP3 SWAP2 POP POP JUMP JUMPDEST PUSH0 DUP2 ISZERO ISZERO SWAP1 POP SWAP2 SWAP1 POP JUMP JUMPDEST PUSH2 0x114 DUP2 PUSH2 0x100 JUMP JUMPDEST DUP2 EQ PUSH2 0x11E JUMPI PUSH0 PUSH0 REVERT JUMPDEST POP JUMP JUMPDEST PUSH0 DUP2 CALLDATALOAD SWAP1 POP PUSH2 0x12F DUP2 PUSH2 0x10B JUMP JUMPDEST SWAP3 SWAP2 POP POP JUMP JUMPDEST PUSH0 PUSH0 PUSH1 0x40 DUP4 DUP6 SUB SLT ISZERO PUSH2 0x14B JUMPI PUSH2 0x14A PUSH2 0xC9 JUMP JUMPDEST JUMPDEST PUSH0 PUSH2 0x158 DUP6 DUP3 DUP7 ADD PUSH2 0xEC JUMP JUMPDEST SWAP3 POP POP PUSH1 0x20 PUSH2 0x169 DUP6 DUP3 DUP7 ADD PUSH2 0x121 JUMP JUMPDEST SWAP2 POP POP SWAP3 POP SWAP3 SWAP1 POP JUMP JUMPDEST PUSH2 0x17C DUP2 PUSH2 0xCD JUMP JUMPDEST DUP3 MSTORE POP POP JUMP JUMPDEST PUSH0 PUSH1 0x20 DUP3 ADD SWAP1 POP PUSH2 0x195 PUSH0 DUP4 ADD DUP5 PUSH2 0x173 JUMP JUMPDEST SWAP3 SWAP2 POP POP JUMP JUMPDEST PUSH0 PUSH32 0xFF00000000000000000000000000000000000000000000000000000000000000 DUP3 AND SWAP1 POP SWAP2 SWAP1 POP JUMP JUMPDEST PUSH2 0x1CF DUP2 PUSH2 0x19B JUMP JUMPDEST DUP2 EQ PUSH2 0x1D9 JUMPI PUSH0 PUSH0 REVERT JUMPDEST POP JUMP JUMPDEST PUSH0 DUP2 CALLDATALOAD SWAP1 POP PUSH2 0x1EA DUP2 PUSH2 0x1C6 JUMP JUMPDEST SWAP3 SWAP2 POP POP JUMP JUMPDEST PUSH0 PUSH1 0x20 DUP3 DUP5 SUB SLT ISZERO PUSH2 0x205 JUMPI PUSH2 0x204 PUSH2 0xC9 JUMP JUMPDEST JUMPDEST PUSH0 PUSH2 0x212 DUP5 DUP3 DUP6 ADD PUSH2 0x1DC JUMP JUMPDEST SWAP2 POP POP SWAP3 SWAP2 POP POP JUMP JUMPDEST PUSH2 0x224 DUP2 PUSH2 0x19B JUMP JUMPDEST DUP3 MSTORE POP POP JUMP JUMPDEST PUSH0 PUSH1 0x20 DUP3 ADD SWAP1 POP PUSH2 0x23D PUSH0 DUP4 ADD DUP5 PUSH2 0x21B JUMP JUMPDEST SWAP3 SWAP2 POP POP JUMP INVALID LOG2 PUSH5 0x6970667358 0x22 SLT KECCAK256 0xC3 ADDRESS 0xDE REVERT PUSH13 0xD375428960E9F5D8D40FC2A5C2 LOG0 EXTCALL EXTCODEHASH MSIZE DUP14 0x2F PUSH30 0x2B3FFF1172485D64736F6C634300081E0033000000000000000000000000 "
				},
				"gasEstimates": {
					"creation": {
						"codeDepositCost": "126600",
						"executionCost": "169",
						"totalCost": "126769"
					},
					"external": {
						"f(bytes1)": "infinite",
						"f(bytes32,bool)": "infinite",
						"foo()": "143"
					}
				},
				"methodIdentifiers": {
					"f(bytes1)": "f2a03a95",
					"f(bytes32,bool)": "5877f1c1",
					"foo()": "c2985578"
				}
			},
			"storageLayout": {
				"storage": [],
				"types": null
			},
			"userdoc": {
				"kind": "user",
				"methods": {},
				"version": 1
			}
		}
	}
}