{
	"contracts/4.contract/Receive.sol": {
		"Caller1": {
			"abi": [
				{
					"inputs": [],
					"stateMutability": "payable",
					"type": "constructor"
				},
				{
					"inputs": [],
					"name": "callFallback",
					"outputs": [],
					"stateMutability": "nonpayable",
					"type": "function"
				},
				{
					"inputs": [],
					"name": "callFoo",
					"outputs": [],
					"stateMutability": "nonpayable",
					"type": "function"
				},
				{
					"inputs": [],
					"name": "callReceive",
					"outputs": [],
					"stateMutability": "nonpayable",
					"type": "function"
				},
				{
					"inputs": [],
					"name": "sendReceive",
					"outputs": [],
					"stateMutability": "nonpayable",
					"type": "function"
				},
				{
					"inputs": [],
					"name": "transferReceive",
					"outputs": [],
					"stateMutability": "nonpayable",
					"type": "function"
				}
			],
			"devdoc": {
				"kind": "dev",
				"methods": {},
				"version": 1
			},
			"evm": {
				"assembly": "    /* \"contracts/4.contract/Receive.sol\":2563:3737  contract Caller1 {... */\n  mstore(0x40, 0x80)\n    /* \"contracts/4.contract/Receive.sol\":2676:2689  new Callee1() */\n  mload(0x40)\n  tag_3\n  swap1\n  tag_4\n  jump\t// in\ntag_3:\n  mload(0x40)\n  dup1\n  swap2\n  sub\n  swap1\n  0x00\n  create\n  dup1\n  iszero\n  dup1\n  iszero\n  tag_5\n  jumpi\n  returndatacopy(0x00, 0x00, returndatasize)\n  revert(0x00, returndatasize)\ntag_5:\n  pop\n    /* \"contracts/4.contract/Receive.sol\":2651:2657  callee */\n  0x00\n  0x00\n    /* \"contracts/4.contract/Receive.sol\":2651:2691  callee = payable(address(new Callee1())) */\n  0x0100\n  exp\n  dup2\n  sload\n  dup2\n  0xffffffffffffffffffffffffffffffffffffffff\n  mul\n  not\n  and\n  swap1\n  dup4\n  0xffffffffffffffffffffffffffffffffffffffff\n  and\n  mul\n  or\n  swap1\n  sstore\n  pop\n    /* \"contracts/4.contract/Receive.sol\":2563:3737  contract Caller1 {... */\n  jump(tag_6)\ntag_4:\n  dataSize(sub_1)\n  dup1\n  dataOffset(sub_1)\n  dup4\n  codecopy\n  add\n  swap1\n  jump\t// out\ntag_6:\n  dataSize(sub_0)\n  dup1\n  dataOffset(sub_0)\n  0x00\n  codecopy\n  0x00\n  return\nstop\n\nsub_0: assembly {\n        /* \"contracts/4.contract/Receive.sol\":2563:3737  contract Caller1 {... */\n      mstore(0x40, 0x80)\n      callvalue\n      dup1\n      iszero\n      tag_1\n      jumpi\n      revert(0x00, 0x00)\n    tag_1:\n      pop\n      jumpi(tag_2, lt(calldatasize, 0x04))\n      shr(0xe0, calldataload(0x00))\n      dup1\n      0x366a4a1e\n      eq\n      tag_3\n      jumpi\n      dup1\n      0x6085f0e9\n      eq\n      tag_4\n      jumpi\n      dup1\n      0x6fbac4b5\n      eq\n      tag_5\n      jumpi\n      dup1\n      0xeb17881c\n      eq\n      tag_6\n      jumpi\n      dup1\n      0xff1a7bcf\n      eq\n      tag_7\n      jumpi\n    tag_2:\n      revert(0x00, 0x00)\n        /* \"contracts/4.contract/Receive.sol\":3507:3734  function callFallback() external {... */\n    tag_3:\n      tag_8\n      tag_9\n      jump\t// in\n    tag_8:\n      stop\n        /* \"contracts/4.contract/Receive.sol\":3209:3422  function callFoo() external {... */\n    tag_4:\n      tag_10\n      tag_11\n      jump\t// in\n    tag_10:\n      stop\n        /* \"contracts/4.contract/Receive.sol\":3014:3177  function callReceive() external {... */\n    tag_5:\n      tag_12\n      tag_13\n      jump\t// in\n    tag_12:\n      stop\n        /* \"contracts/4.contract/Receive.sol\":2858:2981  function sendReceive() external {... */\n    tag_6:\n      tag_14\n      tag_15\n      jump\t// in\n    tag_14:\n      stop\n        /* \"contracts/4.contract/Receive.sol\":2732:2825  function transferReceive() external {... */\n    tag_7:\n      tag_16\n      tag_17\n      jump\t// in\n    tag_16:\n      stop\n        /* \"contracts/4.contract/Receive.sol\":3507:3734  function callFallback() external {... */\n    tag_9:\n        /* \"contracts/4.contract/Receive.sol\":3552:3564  bool success */\n      0x00\n        /* \"contracts/4.contract/Receive.sol\":3566:3583  bytes memory data */\n      0x00\n        /* \"contracts/4.contract/Receive.sol\":3587:3593  callee */\n      0x00\n      0x00\n      swap1\n      sload\n      swap1\n      0x0100\n      exp\n      swap1\n      div\n      0xffffffffffffffffffffffffffffffffffffffff\n      and\n        /* \"contracts/4.contract/Receive.sol\":3587:3598  callee.call */\n      0xffffffffffffffffffffffffffffffffffffffff\n      and\n        /* \"contracts/4.contract/Receive.sol\":3606:3607  1 */\n      0x01\n        /* \"contracts/4.contract/Receive.sol\":3623:3664  abi.encodeWithSignature(\"funcNotExist()\") */\n      add(0x24, mload(0x40))\n      mload(0x40)\n      0x20\n      dup2\n      dup4\n      sub\n      sub\n      dup2\n      mstore\n      swap1\n      0x40\n      mstore\n      and(not(0xffffffffffffffffffffffffffffffffffffffffffffffffffffffff), 0x9f862ee200000000000000000000000000000000000000000000000000000000)\n      0x20\n      dup3\n      add\n      dup1\n      mload\n      0xffffffffffffffffffffffffffffffffffffffffffffffffffffffff\n      dup4\n      dup2\n      dup4\n      and\n      or\n      dup4\n      mstore\n      pop\n      pop\n      pop\n      pop\n        /* \"contracts/4.contract/Receive.sol\":3587:3675  callee.call{value: 1}(... */\n      mload(0x40)\n      tag_19\n      swap2\n      swap1\n      tag_20\n      jump\t// in\n    tag_19:\n      0x00\n      mload(0x40)\n      dup1\n      dup4\n      sub\n      dup2\n      dup6\n      dup8\n      gas\n      call\n      swap3\n      pop\n      pop\n      pop\n      returndatasize\n      dup1\n      0x00\n      dup2\n      eq\n      tag_23\n      jumpi\n      mload(0x40)\n      swap2\n      pop\n      and(add(returndatasize, 0x3f), not(0x1f))\n      dup3\n      add\n      0x40\n      mstore\n      returndatasize\n      dup3\n      mstore\n      returndatasize\n      0x00\n      0x20\n      dup5\n      add\n      returndatacopy\n      jump(tag_22)\n    tag_23:\n      0x60\n      swap2\n      pop\n    tag_22:\n      pop\n        /* \"contracts/4.contract/Receive.sol\":3551:3675  (bool success, bytes memory data) = callee.call{value: 1}(... */\n      swap2\n      pop\n      swap2\n      pop\n        /* \"contracts/4.contract/Receive.sol\":3694:3701  success */\n      dup2\n        /* \"contracts/4.contract/Receive.sol\":3686:3726  require(success, \"Failed to send Ether\") */\n      tag_24\n      jumpi\n      mload(0x40)\n      0x08c379a000000000000000000000000000000000000000000000000000000000\n      dup2\n      mstore\n      0x04\n      add\n      tag_25\n      swap1\n      tag_26\n      jump\t// in\n    tag_25:\n      mload(0x40)\n      dup1\n      swap2\n      sub\n      swap1\n      revert\n    tag_24:\n        /* \"contracts/4.contract/Receive.sol\":3540:3734  {... */\n      pop\n      pop\n        /* \"contracts/4.contract/Receive.sol\":3507:3734  function callFallback() external {... */\n      jump\t// out\n        /* \"contracts/4.contract/Receive.sol\":3209:3422  function callFoo() external {... */\n    tag_11:\n        /* \"contracts/4.contract/Receive.sol\":3249:3261  bool success */\n      0x00\n        /* \"contracts/4.contract/Receive.sol\":3263:3280  bytes memory data */\n      0x00\n        /* \"contracts/4.contract/Receive.sol\":3284:3290  callee */\n      0x00\n      0x00\n      swap1\n      sload\n      swap1\n      0x0100\n      exp\n      swap1\n      div\n      0xffffffffffffffffffffffffffffffffffffffff\n      and\n        /* \"contracts/4.contract/Receive.sol\":3284:3295  callee.call */\n      0xffffffffffffffffffffffffffffffffffffffff\n      and\n        /* \"contracts/4.contract/Receive.sol\":3303:3304  1 */\n      0x01\n        /* \"contracts/4.contract/Receive.sol\":3320:3352  abi.encodeWithSignature(\"foo()\") */\n      add(0x24, mload(0x40))\n      mload(0x40)\n      0x20\n      dup2\n      dup4\n      sub\n      sub\n      dup2\n      mstore\n      swap1\n      0x40\n      mstore\n      and(not(0xffffffffffffffffffffffffffffffffffffffffffffffffffffffff), 0xc298557800000000000000000000000000000000000000000000000000000000)\n      0x20\n      dup3\n      add\n      dup1\n      mload\n      0xffffffffffffffffffffffffffffffffffffffffffffffffffffffff\n      dup4\n      dup2\n      dup4\n      and\n      or\n      dup4\n      mstore\n      pop\n      pop\n      pop\n      pop\n        /* \"contracts/4.contract/Receive.sol\":3284:3363  callee.call{value: 1}(... */\n      mload(0x40)\n      tag_28\n      swap2\n      swap1\n      tag_20\n      jump\t// in\n    tag_28:\n      0x00\n      mload(0x40)\n      dup1\n      dup4\n      sub\n      dup2\n      dup6\n      dup8\n      gas\n      call\n      swap3\n      pop\n      pop\n      pop\n      returndatasize\n      dup1\n      0x00\n      dup2\n      eq\n      tag_31\n      jumpi\n      mload(0x40)\n      swap2\n      pop\n      and(add(returndatasize, 0x3f), not(0x1f))\n      dup3\n      add\n      0x40\n      mstore\n      returndatasize\n      dup3\n      mstore\n      returndatasize\n      0x00\n      0x20\n      dup5\n      add\n      returndatacopy\n      jump(tag_30)\n    tag_31:\n      0x60\n      swap2\n      pop\n    tag_30:\n      pop\n        /* \"contracts/4.contract/Receive.sol\":3248:3363  (bool success, bytes memory data) = callee.call{value: 1}(... */\n      swap2\n      pop\n      swap2\n      pop\n        /* \"contracts/4.contract/Receive.sol\":3382:3389  success */\n      dup2\n        /* \"contracts/4.contract/Receive.sol\":3374:3414  require(success, \"Failed to send Ether\") */\n      tag_32\n      jumpi\n      mload(0x40)\n      0x08c379a000000000000000000000000000000000000000000000000000000000\n      dup2\n      mstore\n      0x04\n      add\n      tag_33\n      swap1\n      tag_26\n      jump\t// in\n    tag_33:\n      mload(0x40)\n      dup1\n      swap2\n      sub\n      swap1\n      revert\n    tag_32:\n        /* \"contracts/4.contract/Receive.sol\":3237:3422  {... */\n      pop\n      pop\n        /* \"contracts/4.contract/Receive.sol\":3209:3422  function callFoo() external {... */\n      jump\t// out\n        /* \"contracts/4.contract/Receive.sol\":3014:3177  function callReceive() external {... */\n    tag_13:\n        /* \"contracts/4.contract/Receive.sol\":3058:3070  bool success */\n      0x00\n        /* \"contracts/4.contract/Receive.sol\":3072:3089  bytes memory data */\n      0x00\n        /* \"contracts/4.contract/Receive.sol\":3093:3099  callee */\n      0x00\n      0x00\n      swap1\n      sload\n      swap1\n      0x0100\n      exp\n      swap1\n      div\n      0xffffffffffffffffffffffffffffffffffffffff\n      and\n        /* \"contracts/4.contract/Receive.sol\":3093:3104  callee.call */\n      0xffffffffffffffffffffffffffffffffffffffff\n      and\n        /* \"contracts/4.contract/Receive.sol\":3112:3113  1 */\n      0x01\n        /* \"contracts/4.contract/Receive.sol\":3093:3118  callee.call{value: 1}(\"\") */\n      mload(0x40)\n      tag_35\n      swap1\n      tag_36\n      jump\t// in\n    tag_35:\n      0x00\n      mload(0x40)\n      dup1\n      dup4\n      sub\n      dup2\n      dup6\n      dup8\n      gas\n      call\n      swap3\n      pop\n      pop\n      pop\n      returndatasize\n      dup1\n      0x00\n      dup2\n      eq\n      tag_39\n      jumpi\n      mload(0x40)\n      swap2\n      pop\n      and(add(returndatasize, 0x3f), not(0x1f))\n      dup3\n      add\n      0x40\n      mstore\n      returndatasize\n      dup3\n      mstore\n      returndatasize\n      0x00\n      0x20\n      dup5\n      add\n      returndatacopy\n      jump(tag_38)\n    tag_39:\n      0x60\n      swap2\n      pop\n    tag_38:\n      pop\n        /* \"contracts/4.contract/Receive.sol\":3057:3118  (bool success, bytes memory data) = callee.call{value: 1}(\"\") */\n      swap2\n      pop\n      swap2\n      pop\n        /* \"contracts/4.contract/Receive.sol\":3137:3144  success */\n      dup2\n        /* \"contracts/4.contract/Receive.sol\":3129:3169  require(success, \"Failed to send Ether\") */\n      tag_40\n      jumpi\n      mload(0x40)\n      0x08c379a000000000000000000000000000000000000000000000000000000000\n      dup2\n      mstore\n      0x04\n      add\n      tag_41\n      swap1\n      tag_26\n      jump\t// in\n    tag_41:\n      mload(0x40)\n      dup1\n      swap2\n      sub\n      swap1\n      revert\n    tag_40:\n        /* \"contracts/4.contract/Receive.sol\":3046:3177  {... */\n      pop\n      pop\n        /* \"contracts/4.contract/Receive.sol\":3014:3177  function callReceive() external {... */\n      jump\t// out\n        /* \"contracts/4.contract/Receive.sol\":2858:2981  function sendReceive() external {... */\n    tag_15:\n        /* \"contracts/4.contract/Receive.sol\":2901:2913  bool success */\n      0x00\n        /* \"contracts/4.contract/Receive.sol\":2916:2922  callee */\n      0x00\n      0x00\n      swap1\n      sload\n      swap1\n      0x0100\n      exp\n      swap1\n      div\n      0xffffffffffffffffffffffffffffffffffffffff\n      and\n        /* \"contracts/4.contract/Receive.sol\":2916:2927  callee.send */\n      0xffffffffffffffffffffffffffffffffffffffff\n      and\n        /* \"contracts/4.contract/Receive.sol\":2916:2930  callee.send(1) */\n      0x08fc\n        /* \"contracts/4.contract/Receive.sol\":2928:2929  1 */\n      0x01\n        /* \"contracts/4.contract/Receive.sol\":2916:2930  callee.send(1) */\n      swap1\n      dup2\n      iszero\n      mul\n      swap1\n      mload(0x40)\n      0x00\n      mload(0x40)\n      dup1\n      dup4\n      sub\n      dup2\n      dup6\n      dup9\n      dup9\n      call\n      swap4\n      pop\n      pop\n      pop\n      pop\n        /* \"contracts/4.contract/Receive.sol\":2901:2930  bool success = callee.send(1) */\n      swap1\n      pop\n        /* \"contracts/4.contract/Receive.sol\":2949:2956  success */\n      dup1\n        /* \"contracts/4.contract/Receive.sol\":2941:2973  require(success, \"fail to send\") */\n      tag_44\n      jumpi\n      mload(0x40)\n      0x08c379a000000000000000000000000000000000000000000000000000000000\n      dup2\n      mstore\n      0x04\n      add\n      tag_45\n      swap1\n      tag_46\n      jump\t// in\n    tag_45:\n      mload(0x40)\n      dup1\n      swap2\n      sub\n      swap1\n      revert\n    tag_44:\n        /* \"contracts/4.contract/Receive.sol\":2890:2981  {... */\n      pop\n        /* \"contracts/4.contract/Receive.sol\":2858:2981  function sendReceive() external {... */\n      jump\t// out\n        /* \"contracts/4.contract/Receive.sol\":2732:2825  function transferReceive() external {... */\n    tag_17:\n        /* \"contracts/4.contract/Receive.sol\":2779:2785  callee */\n      0x00\n      0x00\n      swap1\n      sload\n      swap1\n      0x0100\n      exp\n      swap1\n      div\n      0xffffffffffffffffffffffffffffffffffffffff\n      and\n        /* \"contracts/4.contract/Receive.sol\":2779:2794  callee.transfer */\n      0xffffffffffffffffffffffffffffffffffffffff\n      and\n        /* \"contracts/4.contract/Receive.sol\":2779:2797  callee.transfer(1) */\n      0x08fc\n        /* \"contracts/4.contract/Receive.sol\":2795:2796  1 */\n      0x01\n        /* \"contracts/4.contract/Receive.sol\":2779:2797  callee.transfer(1) */\n      swap1\n      dup2\n      iszero\n      mul\n      swap1\n      mload(0x40)\n      0x00\n      mload(0x40)\n      dup1\n      dup4\n      sub\n      dup2\n      dup6\n      dup9\n      dup9\n      call\n      swap4\n      pop\n      pop\n      pop\n      pop\n      iszero\n      dup1\n      iszero\n      tag_49\n      jumpi\n      returndatacopy(0x00, 0x00, returndatasize)\n      revert(0x00, returndatasize)\n    tag_49:\n      pop\n        /* \"contracts/4.contract/Receive.sol\":2732:2825  function transferReceive() external {... */\n      jump\t// out\n        /* \"#utility.yul\":7:105   */\n    tag_50:\n        /* \"#utility.yul\":58:64   */\n      0x00\n        /* \"#utility.yul\":92:97   */\n      dup2\n        /* \"#utility.yul\":86:98   */\n      mload\n        /* \"#utility.yul\":76:98   */\n      swap1\n      pop\n        /* \"#utility.yul\":7:105   */\n      swap2\n      swap1\n      pop\n      jump\t// out\n        /* \"#utility.yul\":111:258   */\n    tag_51:\n        /* \"#utility.yul\":212:223   */\n      0x00\n        /* \"#utility.yul\":249:252   */\n      dup2\n        /* \"#utility.yul\":234:252   */\n      swap1\n      pop\n        /* \"#utility.yul\":111:258   */\n      swap3\n      swap2\n      pop\n      pop\n      jump\t// out\n        /* \"#utility.yul\":264:403   */\n    tag_52:\n        /* \"#utility.yul\":353:359   */\n      dup3\n        /* \"#utility.yul\":348:351   */\n      dup2\n        /* \"#utility.yul\":343:346   */\n      dup4\n        /* \"#utility.yul\":337:360   */\n      mcopy\n        /* \"#utility.yul\":394:395   */\n      0x00\n        /* \"#utility.yul\":385:391   */\n      dup4\n        /* \"#utility.yul\":380:383   */\n      dup4\n        /* \"#utility.yul\":376:392   */\n      add\n        /* \"#utility.yul\":369:396   */\n      mstore\n        /* \"#utility.yul\":264:403   */\n      pop\n      pop\n      pop\n      jump\t// out\n        /* \"#utility.yul\":409:795   */\n    tag_53:\n        /* \"#utility.yul\":513:516   */\n      0x00\n        /* \"#utility.yul\":541:579   */\n      tag_66\n        /* \"#utility.yul\":573:578   */\n      dup3\n        /* \"#utility.yul\":541:579   */\n      tag_50\n      jump\t// in\n    tag_66:\n        /* \"#utility.yul\":595:683   */\n      tag_67\n        /* \"#utility.yul\":676:682   */\n      dup2\n        /* \"#utility.yul\":671:674   */\n      dup6\n        /* \"#utility.yul\":595:683   */\n      tag_51\n      jump\t// in\n    tag_67:\n        /* \"#utility.yul\":588:683   */\n      swap4\n      pop\n        /* \"#utility.yul\":692:757   */\n      tag_68\n        /* \"#utility.yul\":750:756   */\n      dup2\n        /* \"#utility.yul\":745:748   */\n      dup6\n        /* \"#utility.yul\":738:742   */\n      0x20\n        /* \"#utility.yul\":731:736   */\n      dup7\n        /* \"#utility.yul\":727:743   */\n      add\n        /* \"#utility.yul\":692:757   */\n      tag_52\n      jump\t// in\n    tag_68:\n        /* \"#utility.yul\":782:788   */\n      dup1\n        /* \"#utility.yul\":777:780   */\n      dup5\n        /* \"#utility.yul\":773:789   */\n      add\n        /* \"#utility.yul\":766:789   */\n      swap2\n      pop\n        /* \"#utility.yul\":517:795   */\n      pop\n        /* \"#utility.yul\":409:795   */\n      swap3\n      swap2\n      pop\n      pop\n      jump\t// out\n        /* \"#utility.yul\":801:1072   */\n    tag_20:\n        /* \"#utility.yul\":931:934   */\n      0x00\n        /* \"#utility.yul\":953:1046   */\n      tag_70\n        /* \"#utility.yul\":1042:1045   */\n      dup3\n        /* \"#utility.yul\":1033:1039   */\n      dup5\n        /* \"#utility.yul\":953:1046   */\n      tag_53\n      jump\t// in\n    tag_70:\n        /* \"#utility.yul\":946:1046   */\n      swap2\n      pop\n        /* \"#utility.yul\":1063:1066   */\n      dup2\n        /* \"#utility.yul\":1056:1066   */\n      swap1\n      pop\n        /* \"#utility.yul\":801:1072   */\n      swap3\n      swap2\n      pop\n      pop\n      jump\t// out\n        /* \"#utility.yul\":1078:1247   */\n    tag_54:\n        /* \"#utility.yul\":1162:1173   */\n      0x00\n        /* \"#utility.yul\":1196:1202   */\n      dup3\n        /* \"#utility.yul\":1191:1194   */\n      dup3\n        /* \"#utility.yul\":1184:1203   */\n      mstore\n        /* \"#utility.yul\":1236:1240   */\n      0x20\n        /* \"#utility.yul\":1231:1234   */\n      dup3\n        /* \"#utility.yul\":1227:1241   */\n      add\n        /* \"#utility.yul\":1212:1241   */\n      swap1\n      pop\n        /* \"#utility.yul\":1078:1247   */\n      swap3\n      swap2\n      pop\n      pop\n      jump\t// out\n        /* \"#utility.yul\":1253:1423   */\n    tag_55:\n        /* \"#utility.yul\":1393:1415   */\n      0x4661696c656420746f2073656e64204574686572000000000000000000000000\n        /* \"#utility.yul\":1389:1390   */\n      0x00\n        /* \"#utility.yul\":1381:1387   */\n      dup3\n        /* \"#utility.yul\":1377:1391   */\n      add\n        /* \"#utility.yul\":1370:1416   */\n      mstore\n        /* \"#utility.yul\":1253:1423   */\n      pop\n      jump\t// out\n        /* \"#utility.yul\":1429:1795   */\n    tag_56:\n        /* \"#utility.yul\":1571:1574   */\n      0x00\n        /* \"#utility.yul\":1592:1659   */\n      tag_74\n        /* \"#utility.yul\":1656:1658   */\n      0x14\n        /* \"#utility.yul\":1651:1654   */\n      dup4\n        /* \"#utility.yul\":1592:1659   */\n      tag_54\n      jump\t// in\n    tag_74:\n        /* \"#utility.yul\":1585:1659   */\n      swap2\n      pop\n        /* \"#utility.yul\":1668:1761   */\n      tag_75\n        /* \"#utility.yul\":1757:1760   */\n      dup3\n        /* \"#utility.yul\":1668:1761   */\n      tag_55\n      jump\t// in\n    tag_75:\n        /* \"#utility.yul\":1786:1788   */\n      0x20\n        /* \"#utility.yul\":1781:1784   */\n      dup3\n        /* \"#utility.yul\":1777:1789   */\n      add\n        /* \"#utility.yul\":1770:1789   */\n      swap1\n      pop\n        /* \"#utility.yul\":1429:1795   */\n      swap2\n      swap1\n      pop\n      jump\t// out\n        /* \"#utility.yul\":1801:2220   */\n    tag_26:\n        /* \"#utility.yul\":1967:1971   */\n      0x00\n        /* \"#utility.yul\":2005:2007   */\n      0x20\n        /* \"#utility.yul\":1994:2003   */\n      dup3\n        /* \"#utility.yul\":1990:2008   */\n      add\n        /* \"#utility.yul\":1982:2008   */\n      swap1\n      pop\n        /* \"#utility.yul\":2054:2063   */\n      dup2\n        /* \"#utility.yul\":2048:2052   */\n      dup2\n        /* \"#utility.yul\":2044:2064   */\n      sub\n        /* \"#utility.yul\":2040:2041   */\n      0x00\n        /* \"#utility.yul\":2029:2038   */\n      dup4\n        /* \"#utility.yul\":2025:2042   */\n      add\n        /* \"#utility.yul\":2018:2065   */\n      mstore\n        /* \"#utility.yul\":2082:2213   */\n      tag_77\n        /* \"#utility.yul\":2208:2212   */\n      dup2\n        /* \"#utility.yul\":2082:2213   */\n      tag_56\n      jump\t// in\n    tag_77:\n        /* \"#utility.yul\":2074:2213   */\n      swap1\n      pop\n        /* \"#utility.yul\":1801:2220   */\n      swap2\n      swap1\n      pop\n      jump\t// out\n        /* \"#utility.yul\":2226:2340   */\n    tag_57:\n      pop\n      jump\t// out\n        /* \"#utility.yul\":2346:2744   */\n    tag_58:\n        /* \"#utility.yul\":2505:2508   */\n      0x00\n        /* \"#utility.yul\":2526:2609   */\n      tag_80\n        /* \"#utility.yul\":2607:2608   */\n      0x00\n        /* \"#utility.yul\":2602:2605   */\n      dup4\n        /* \"#utility.yul\":2526:2609   */\n      tag_51\n      jump\t// in\n    tag_80:\n        /* \"#utility.yul\":2519:2609   */\n      swap2\n      pop\n        /* \"#utility.yul\":2618:2711   */\n      tag_81\n        /* \"#utility.yul\":2707:2710   */\n      dup3\n        /* \"#utility.yul\":2618:2711   */\n      tag_57\n      jump\t// in\n    tag_81:\n        /* \"#utility.yul\":2736:2737   */\n      0x00\n        /* \"#utility.yul\":2731:2734   */\n      dup3\n        /* \"#utility.yul\":2727:2738   */\n      add\n        /* \"#utility.yul\":2720:2738   */\n      swap1\n      pop\n        /* \"#utility.yul\":2346:2744   */\n      swap2\n      swap1\n      pop\n      jump\t// out\n        /* \"#utility.yul\":2750:3129   */\n    tag_36:\n        /* \"#utility.yul\":2934:2937   */\n      0x00\n        /* \"#utility.yul\":2956:3103   */\n      tag_83\n        /* \"#utility.yul\":3099:3102   */\n      dup3\n        /* \"#utility.yul\":2956:3103   */\n      tag_58\n      jump\t// in\n    tag_83:\n        /* \"#utility.yul\":2949:3103   */\n      swap2\n      pop\n        /* \"#utility.yul\":3120:3123   */\n      dup2\n        /* \"#utility.yul\":3113:3123   */\n      swap1\n      pop\n        /* \"#utility.yul\":2750:3129   */\n      swap2\n      swap1\n      pop\n      jump\t// out\n        /* \"#utility.yul\":3135:3297   */\n    tag_59:\n        /* \"#utility.yul\":3275:3289   */\n      0x6661696c20746f2073656e640000000000000000000000000000000000000000\n        /* \"#utility.yul\":3271:3272   */\n      0x00\n        /* \"#utility.yul\":3263:3269   */\n      dup3\n        /* \"#utility.yul\":3259:3273   */\n      add\n        /* \"#utility.yul\":3252:3290   */\n      mstore\n        /* \"#utility.yul\":3135:3297   */\n      pop\n      jump\t// out\n        /* \"#utility.yul\":3303:3669   */\n    tag_60:\n        /* \"#utility.yul\":3445:3448   */\n      0x00\n        /* \"#utility.yul\":3466:3533   */\n      tag_86\n        /* \"#utility.yul\":3530:3532   */\n      0x0c\n        /* \"#utility.yul\":3525:3528   */\n      dup4\n        /* \"#utility.yul\":3466:3533   */\n      tag_54\n      jump\t// in\n    tag_86:\n        /* \"#utility.yul\":3459:3533   */\n      swap2\n      pop\n        /* \"#utility.yul\":3542:3635   */\n      tag_87\n        /* \"#utility.yul\":3631:3634   */\n      dup3\n        /* \"#utility.yul\":3542:3635   */\n      tag_59\n      jump\t// in\n    tag_87:\n        /* \"#utility.yul\":3660:3662   */\n      0x20\n        /* \"#utility.yul\":3655:3658   */\n      dup3\n        /* \"#utility.yul\":3651:3663   */\n      add\n        /* \"#utility.yul\":3644:3663   */\n      swap1\n      pop\n        /* \"#utility.yul\":3303:3669   */\n      swap2\n      swap1\n      pop\n      jump\t// out\n        /* \"#utility.yul\":3675:4094   */\n    tag_46:\n        /* \"#utility.yul\":3841:3845   */\n      0x00\n        /* \"#utility.yul\":3879:3881   */\n      0x20\n        /* \"#utility.yul\":3868:3877   */\n      dup3\n        /* \"#utility.yul\":3864:3882   */\n      add\n        /* \"#utility.yul\":3856:3882   */\n      swap1\n      pop\n        /* \"#utility.yul\":3928:3937   */\n      dup2\n        /* \"#utility.yul\":3922:3926   */\n      dup2\n        /* \"#utility.yul\":3918:3938   */\n      sub\n        /* \"#utility.yul\":3914:3915   */\n      0x00\n        /* \"#utility.yul\":3903:3912   */\n      dup4\n        /* \"#utility.yul\":3899:3916   */\n      add\n        /* \"#utility.yul\":3892:3939   */\n      mstore\n        /* \"#utility.yul\":3956:4087   */\n      tag_89\n        /* \"#utility.yul\":4082:4086   */\n      dup2\n        /* \"#utility.yul\":3956:4087   */\n      tag_60\n      jump\t// in\n    tag_89:\n        /* \"#utility.yul\":3948:4087   */\n      swap1\n      pop\n        /* \"#utility.yul\":3675:4094   */\n      swap2\n      swap1\n      pop\n      jump\t// out\n\n    auxdata: 0xa2646970667358221220751130d87d59735e192511190365d066a60ba8d87855a4892853b7bcade65d9964736f6c634300081e0033\n}\n\nsub_1: assembly {\n        /* \"contracts/4.contract/Receive.sol\":2225:2559  contract Callee1  {... */\n      mstore(0x40, 0x80)\n      callvalue\n      dup1\n      iszero\n      tag_1\n      jumpi\n      revert(0x00, 0x00)\n    tag_1:\n      pop\n      dataSize(sub_0)\n      dup1\n      dataOffset(sub_0)\n      0x00\n      codecopy\n      0x00\n      return\n    stop\n\n    sub_0: assembly {\n            /* \"contracts/4.contract/Receive.sol\":2225:2559  contract Callee1  {... */\n          mstore(0x40, 0x80)\n          jumpi(tag_1, lt(calldatasize, 0x04))\n          shr(0xe0, calldataload(0x00))\n          dup1\n          0xc2985578\n          eq\n          tag_3\n          jumpi\n          jump(tag_2)\n        tag_1:\n          jumpi(tag_2, calldatasize)\n            /* \"contracts/4.contract/Receive.sol\":2423:2456  FunctionCalled(\"this is receive\") */\n          0xac7c932dfed5a12f8cee69b87b1db28759f9abab0760d37031670980a55a2168\n          mload(0x40)\n          tag_6\n          swap1\n          tag_7\n          jump\t// in\n        tag_6:\n          mload(0x40)\n          dup1\n          swap2\n          sub\n          swap1\n          log1\n            /* \"contracts/4.contract/Receive.sol\":2225:2559  contract Callee1  {... */\n          stop\n        tag_2:\n            /* \"contracts/4.contract/Receive.sol\":2514:2548  FunctionCalled(\"this is fallback\") */\n          0xac7c932dfed5a12f8cee69b87b1db28759f9abab0760d37031670980a55a2168\n          mload(0x40)\n          tag_10\n          swap1\n          tag_11\n          jump\t// in\n        tag_10:\n          mload(0x40)\n          dup1\n          swap2\n          sub\n          swap1\n          log1\n            /* \"contracts/4.contract/Receive.sol\":2225:2559  contract Callee1  {... */\n          stop\n            /* \"contracts/4.contract/Receive.sol\":2287:2373  function foo() external payable  {... */\n        tag_3:\n          tag_12\n          tag_13\n          jump\t// in\n        tag_12:\n          stop\n        tag_13:\n            /* \"contracts/4.contract/Receive.sol\":2336:2365  FunctionCalled(\"this is foo\") */\n          0xac7c932dfed5a12f8cee69b87b1db28759f9abab0760d37031670980a55a2168\n          mload(0x40)\n          tag_15\n          swap1\n          tag_16\n          jump\t// in\n        tag_15:\n          mload(0x40)\n          dup1\n          swap2\n          sub\n          swap1\n          log1\n            /* \"contracts/4.contract/Receive.sol\":2287:2373  function foo() external payable  {... */\n          jump\t// out\n            /* \"#utility.yul\":7:176   */\n        tag_17:\n            /* \"#utility.yul\":91:102   */\n          0x00\n            /* \"#utility.yul\":125:131   */\n          dup3\n            /* \"#utility.yul\":120:123   */\n          dup3\n            /* \"#utility.yul\":113:132   */\n          mstore\n            /* \"#utility.yul\":165:169   */\n          0x20\n            /* \"#utility.yul\":160:163   */\n          dup3\n            /* \"#utility.yul\":156:170   */\n          add\n            /* \"#utility.yul\":141:170   */\n          swap1\n          pop\n            /* \"#utility.yul\":7:176   */\n          swap3\n          swap2\n          pop\n          pop\n          jump\t// out\n            /* \"#utility.yul\":182:347   */\n        tag_18:\n            /* \"#utility.yul\":322:339   */\n          0x7468697320697320726563656976650000000000000000000000000000000000\n            /* \"#utility.yul\":318:319   */\n          0x00\n            /* \"#utility.yul\":310:316   */\n          dup3\n            /* \"#utility.yul\":306:320   */\n          add\n            /* \"#utility.yul\":299:340   */\n          mstore\n            /* \"#utility.yul\":182:347   */\n          pop\n          jump\t// out\n            /* \"#utility.yul\":353:719   */\n        tag_19:\n            /* \"#utility.yul\":495:498   */\n          0x00\n            /* \"#utility.yul\":516:583   */\n          tag_28\n            /* \"#utility.yul\":580:582   */\n          0x0f\n            /* \"#utility.yul\":575:578   */\n          dup4\n            /* \"#utility.yul\":516:583   */\n          tag_17\n          jump\t// in\n        tag_28:\n            /* \"#utility.yul\":509:583   */\n          swap2\n          pop\n            /* \"#utility.yul\":592:685   */\n          tag_29\n            /* \"#utility.yul\":681:684   */\n          dup3\n            /* \"#utility.yul\":592:685   */\n          tag_18\n          jump\t// in\n        tag_29:\n            /* \"#utility.yul\":710:712   */\n          0x20\n            /* \"#utility.yul\":705:708   */\n          dup3\n            /* \"#utility.yul\":701:713   */\n          add\n            /* \"#utility.yul\":694:713   */\n          swap1\n          pop\n            /* \"#utility.yul\":353:719   */\n          swap2\n          swap1\n          pop\n          jump\t// out\n            /* \"#utility.yul\":725:1144   */\n        tag_7:\n            /* \"#utility.yul\":891:895   */\n          0x00\n            /* \"#utility.yul\":929:931   */\n          0x20\n            /* \"#utility.yul\":918:927   */\n          dup3\n            /* \"#utility.yul\":914:932   */\n          add\n            /* \"#utility.yul\":906:932   */\n          swap1\n          pop\n            /* \"#utility.yul\":978:987   */\n          dup2\n            /* \"#utility.yul\":972:976   */\n          dup2\n            /* \"#utility.yul\":968:988   */\n          sub\n            /* \"#utility.yul\":964:965   */\n          0x00\n            /* \"#utility.yul\":953:962   */\n          dup4\n            /* \"#utility.yul\":949:966   */\n          add\n            /* \"#utility.yul\":942:989   */\n          mstore\n            /* \"#utility.yul\":1006:1137   */\n          tag_31\n            /* \"#utility.yul\":1132:1136   */\n          dup2\n            /* \"#utility.yul\":1006:1137   */\n          tag_19\n          jump\t// in\n        tag_31:\n            /* \"#utility.yul\":998:1137   */\n          swap1\n          pop\n            /* \"#utility.yul\":725:1144   */\n          swap2\n          swap1\n          pop\n          jump\t// out\n            /* \"#utility.yul\":1150:1316   */\n        tag_20:\n            /* \"#utility.yul\":1290:1308   */\n          0x746869732069732066616c6c6261636b00000000000000000000000000000000\n            /* \"#utility.yul\":1286:1287   */\n          0x00\n            /* \"#utility.yul\":1278:1284   */\n          dup3\n            /* \"#utility.yul\":1274:1288   */\n          add\n            /* \"#utility.yul\":1267:1309   */\n          mstore\n            /* \"#utility.yul\":1150:1316   */\n          pop\n          jump\t// out\n            /* \"#utility.yul\":1322:1688   */\n        tag_21:\n            /* \"#utility.yul\":1464:1467   */\n          0x00\n            /* \"#utility.yul\":1485:1552   */\n          tag_34\n            /* \"#utility.yul\":1549:1551   */\n          0x10\n            /* \"#utility.yul\":1544:1547   */\n          dup4\n            /* \"#utility.yul\":1485:1552   */\n          tag_17\n          jump\t// in\n        tag_34:\n            /* \"#utility.yul\":1478:1552   */\n          swap2\n          pop\n            /* \"#utility.yul\":1561:1654   */\n          tag_35\n            /* \"#utility.yul\":1650:1653   */\n          dup3\n            /* \"#utility.yul\":1561:1654   */\n          tag_20\n          jump\t// in\n        tag_35:\n            /* \"#utility.yul\":1679:1681   */\n          0x20\n            /* \"#utility.yul\":1674:1677   */\n          dup3\n            /* \"#utility.yul\":1670:1682   */\n          add\n            /* \"#utility.yul\":1663:1682   */\n          swap1\n          pop\n            /* \"#utility.yul\":1322:1688   */\n          swap2\n          swap1\n          pop\n          jump\t// out\n            /* \"#utility.yul\":1694:2113   */\n        tag_11:\n            /* \"#utility.yul\":1860:1864   */\n          0x00\n            /* \"#utility.yul\":1898:1900   */\n          0x20\n            /* \"#utility.yul\":1887:1896   */\n          dup3\n            /* \"#utility.yul\":1883:1901   */\n          add\n            /* \"#utility.yul\":1875:1901   */\n          swap1\n          pop\n            /* \"#utility.yul\":1947:1956   */\n          dup2\n            /* \"#utility.yul\":1941:1945   */\n          dup2\n            /* \"#utility.yul\":1937:1957   */\n          sub\n            /* \"#utility.yul\":1933:1934   */\n          0x00\n            /* \"#utility.yul\":1922:1931   */\n          dup4\n            /* \"#utility.yul\":1918:1935   */\n          add\n            /* \"#utility.yul\":1911:1958   */\n          mstore\n            /* \"#utility.yul\":1975:2106   */\n          tag_37\n            /* \"#utility.yul\":2101:2105   */\n          dup2\n            /* \"#utility.yul\":1975:2106   */\n          tag_21\n          jump\t// in\n        tag_37:\n            /* \"#utility.yul\":1967:2106   */\n          swap1\n          pop\n            /* \"#utility.yul\":1694:2113   */\n          swap2\n          swap1\n          pop\n          jump\t// out\n            /* \"#utility.yul\":2119:2280   */\n        tag_22:\n            /* \"#utility.yul\":2259:2272   */\n          0x7468697320697320666f6f000000000000000000000000000000000000000000\n            /* \"#utility.yul\":2255:2256   */\n          0x00\n            /* \"#utility.yul\":2247:2253   */\n          dup3\n            /* \"#utility.yul\":2243:2257   */\n          add\n            /* \"#utility.yul\":2236:2273   */\n          mstore\n            /* \"#utility.yul\":2119:2280   */\n          pop\n          jump\t// out\n            /* \"#utility.yul\":2286:2652   */\n        tag_23:\n            /* \"#utility.yul\":2428:2431   */\n          0x00\n            /* \"#utility.yul\":2449:2516   */\n          tag_40\n            /* \"#utility.yul\":2513:2515   */\n          0x0b\n            /* \"#utility.yul\":2508:2511   */\n          dup4\n            /* \"#utility.yul\":2449:2516   */\n          tag_17\n          jump\t// in\n        tag_40:\n            /* \"#utility.yul\":2442:2516   */\n          swap2\n          pop\n            /* \"#utility.yul\":2525:2618   */\n          tag_41\n            /* \"#utility.yul\":2614:2617   */\n          dup3\n            /* \"#utility.yul\":2525:2618   */\n          tag_22\n          jump\t// in\n        tag_41:\n            /* \"#utility.yul\":2643:2645   */\n          0x20\n            /* \"#utility.yul\":2638:2641   */\n          dup3\n            /* \"#utility.yul\":2634:2646   */\n          add\n            /* \"#utility.yul\":2627:2646   */\n          swap1\n          pop\n            /* \"#utility.yul\":2286:2652   */\n          swap2\n          swap1\n          pop\n          jump\t// out\n            /* \"#utility.yul\":2658:3077   */\n        tag_16:\n            /* \"#utility.yul\":2824:2828   */\n          0x00\n            /* \"#utility.yul\":2862:2864   */\n          0x20\n            /* \"#utility.yul\":2851:2860   */\n          dup3\n            /* \"#utility.yul\":2847:2865   */\n          add\n            /* \"#utility.yul\":2839:2865   */\n          swap1\n          pop\n            /* \"#utility.yul\":2911:2920   */\n          dup2\n            /* \"#utility.yul\":2905:2909   */\n          dup2\n            /* \"#utility.yul\":2901:2921   */\n          sub\n            /* \"#utility.yul\":2897:2898   */\n          0x00\n            /* \"#utility.yul\":2886:2895   */\n          dup4\n            /* \"#utility.yul\":2882:2899   */\n          add\n            /* \"#utility.yul\":2875:2922   */\n          mstore\n            /* \"#utility.yul\":2939:3070   */\n          tag_43\n            /* \"#utility.yul\":3065:3069   */\n          dup2\n            /* \"#utility.yul\":2939:3070   */\n          tag_23\n          jump\t// in\n        tag_43:\n            /* \"#utility.yul\":2931:3070   */\n          swap1\n          pop\n            /* \"#utility.yul\":2658:3077   */\n          swap2\n          swap1\n          pop\n          jump\t// out\n\n        auxdata: 0xa26469706673582212200bc227454ea7fec49ee6e0eaa570fa16d881eeac9dfd94f653d8d1d2145cdedc64736f6c634300081e0033\n    }\n}\n",
				"bytecode": {
					"linkReferences": {},
					"object": "6080604052604051600e906069565b604051809103905ff0801580156026573d5f5f3e3d5ffd5b505f5f6101000a81548173ffffffffffffffffffffffffffffffffffffffff021916908373ffffffffffffffffffffffffffffffffffffffff1602179055506076565b61026f8061073a83390190565b6106b7806100835f395ff3fe608060405234801561000f575f5ffd5b5060043610610055575f3560e01c8063366a4a1e146100595780636085f0e9146100635780636fbac4b51461006d578063eb17881c14610077578063ff1a7bcf14610081575b5f5ffd5b61006161008b565b005b61006b6101de565b005b610075610331565b005b61007f610400565b005b61008961049b565b005b5f5f5f5f9054906101000a900473ffffffffffffffffffffffffffffffffffffffff1673ffffffffffffffffffffffffffffffffffffffff1660016040516024016040516020818303038152906040527f9f862ee2000000000000000000000000000000000000000000000000000000007bffffffffffffffffffffffffffffffffffffffffffffffffffffffff19166020820180517bffffffffffffffffffffffffffffffffffffffffffffffffffffffff83818316178352505050506040516101569190610554565b5f6040518083038185875af1925050503d805f8114610190576040519150601f19603f3d011682016040523d82523d5f602084013e610195565b606091505b5091509150816101da576040517f08c379a00000000000000000000000000000000000000000000000000000000081526004016101d1906105c4565b60405180910390fd5b5050565b5f5f5f5f9054906101000a900473ffffffffffffffffffffffffffffffffffffffff1673ffffffffffffffffffffffffffffffffffffffff1660016040516024016040516020818303038152906040527fc2985578000000000000000000000000000000000000000000000000000000007bffffffffffffffffffffffffffffffffffffffffffffffffffffffff19166020820180517bffffffffffffffffffffffffffffffffffffffffffffffffffffffff83818316178352505050506040516102a99190610554565b5f6040518083038185875af1925050503d805f81146102e3576040519150601f19603f3d011682016040523d82523d5f602084013e6102e8565b606091505b50915091508161032d576040517f08c379a0000000000000000000000000000000000000000000000000000000008152600401610324906105c4565b60405180910390fd5b5050565b5f5f5f5f9054906101000a900473ffffffffffffffffffffffffffffffffffffffff1673ffffffffffffffffffffffffffffffffffffffff16600160405161037890610605565b5f6040518083038185875af1925050503d805f81146103b2576040519150601f19603f3d011682016040523d82523d5f602084013e6103b7565b606091505b5091509150816103fc576040517f08c379a00000000000000000000000000000000000000000000000000000000081526004016103f3906105c4565b60405180910390fd5b5050565b5f5f5f9054906101000a900473ffffffffffffffffffffffffffffffffffffffff1673ffffffffffffffffffffffffffffffffffffffff166108fc600190811502906040515f60405180830381858888f19350505050905080610498576040517f08c379a000000000000000000000000000000000000000000000000000000000815260040161048f90610663565b60405180910390fd5b50565b5f5f9054906101000a900473ffffffffffffffffffffffffffffffffffffffff1673ffffffffffffffffffffffffffffffffffffffff166108fc600190811502906040515f60405180830381858888f193505050501580156104ff573d5f5f3e3d5ffd5b50565b5f81519050919050565b5f81905092915050565b8281835e5f83830152505050565b5f61052e82610502565b610538818561050c565b9350610548818560208601610516565b80840191505092915050565b5f61055f8284610524565b915081905092915050565b5f82825260208201905092915050565b7f4661696c656420746f2073656e642045746865720000000000000000000000005f82015250565b5f6105ae60148361056a565b91506105b98261057a565b602082019050919050565b5f6020820190508181035f8301526105db816105a2565b9050919050565b50565b5f6105f05f8361050c565b91506105fb826105e2565b5f82019050919050565b5f61060f826105e5565b9150819050919050565b7f6661696c20746f2073656e6400000000000000000000000000000000000000005f82015250565b5f61064d600c8361056a565b915061065882610619565b602082019050919050565b5f6020820190508181035f83015261067a81610641565b905091905056fea2646970667358221220751130d87d59735e192511190365d066a60ba8d87855a4892853b7bcade65d9964736f6c634300081e00336080604052348015600e575f5ffd5b506102538061001c5f395ff3fe608060405260043610610021575f3560e01c8063c2985578146100945761005d565b3661005d577fac7c932dfed5a12f8cee69b87b1db28759f9abab0760d37031670980a55a21686040516100539061012f565b60405180910390a1005b7fac7c932dfed5a12f8cee69b87b1db28759f9abab0760d37031670980a55a216860405161008a90610197565b60405180910390a1005b61009c61009e565b005b7fac7c932dfed5a12f8cee69b87b1db28759f9abab0760d37031670980a55a21686040516100cb906101ff565b60405180910390a1565b5f82825260208201905092915050565b7f74686973206973207265636569766500000000000000000000000000000000005f82015250565b5f610119600f836100d5565b9150610124826100e5565b602082019050919050565b5f6020820190508181035f8301526101468161010d565b9050919050565b7f746869732069732066616c6c6261636b000000000000000000000000000000005f82015250565b5f6101816010836100d5565b915061018c8261014d565b602082019050919050565b5f6020820190508181035f8301526101ae81610175565b9050919050565b7f7468697320697320666f6f0000000000000000000000000000000000000000005f82015250565b5f6101e9600b836100d5565b91506101f4826101b5565b602082019050919050565b5f6020820190508181035f830152610216816101dd565b905091905056fea26469706673582212200bc227454ea7fec49ee6e0eaa570fa16d881eeac9dfd94f653d8d1d2145cdedc64736f6c634300081e0033",
					"opcodes": "PUSH1 0x80 PUSH1 0x40 MSTORE PUSH1 0x40 MLOAD PUSH1 0xE SWAP1 PUSH1 0x69 JUMP JUMPDEST PUSH1 0x40 MLOAD DUP1 SWAP2 SUB SWAP1 PUSH0 CREATE DUP1 ISZERO DUP1 ISZERO PUSH1 0x26 JUMPI RETURNDATASIZE PUSH0 PUSH0 RETURNDATACOPY RETURNDATASIZE PUSH0 REVERT JUMPDEST POP PUSH0 PUSH0 PUSH2 0x100 EXP DUP2 SLOAD DUP2 PUSH20 0xFFFFFFFFFFFFFFFFFFFFFFFFFFFFFFFFFFFFFFFF MUL NOT AND SWAP1 DUP4 PUSH20 0xFFFFFFFFFFFFFFFFFFFFFFFFFFFFFFFFFFFFFFFF AND MUL OR SWAP1 SSTORE POP PUSH1 0x76 JUMP JUMPDEST PUSH2 0x26F DUP1 PUSH2 0x73A DUP4 CODECOPY ADD SWAP1 JUMP JUMPDEST PUSH2 0x6B7 DUP1 PUSH2 0x83 PUSH0 CODECOPY PUSH0 RETURN INVALID PUSH1 0x80 PUSH1 0x40 MSTORE CALLVALUE DUP1 ISZERO PUSH2 0xF JUMPI PUSH0 PUSH0 REVERT JUMPDEST POP PUSH1 0x4 CALLDATASIZE LT PUSH2 0x55 JUMPI PUSH0 CALLDATALOAD PUSH1 0xE0 SHR DUP1 PUSH4 0x366A4A1E EQ PUSH2 0x59 JUMPI DUP1 PUSH4 0x6085F0E9 EQ PUSH2 0x63 JUMPI DUP1 PUSH4 0x6FBAC4B5 EQ PUSH2 0x6D JUMPI DUP1 PUSH4 0xEB17881C EQ PUSH2 0x77 JUMPI DUP1 PUSH4 0xFF1A7BCF EQ PUSH2 0x81 JUMPI JUMPDEST PUSH0 PUSH0 REVERT JUMPDEST PUSH2 0x61 PUSH2 0x8B JUMP JUMPDEST STOP JUMPDEST PUSH2 0x6B PUSH2 0x1DE JUMP JUMPDEST STOP JUMPDEST PUSH2 0x75 PUSH2 0x331 JUMP JUMPDEST STOP JUMPDEST PUSH2 0x7F PUSH2 0x400 JUMP JUMPDEST STOP JUMPDEST PUSH2 0x89 PUSH2 0x49B JUMP JUMPDEST STOP JUMPDEST PUSH0 PUSH0 PUSH0 PUSH0 SWAP1 SLOAD SWAP1 PUSH2 0x100 EXP SWAP1 DIV PUSH20 0xFFFFFFFFFFFFFFFFFFFFFFFFFFFFFFFFFFFFFFFF AND PUSH20 0xFFFFFFFFFFFFFFFFFFFFFFFFFFFFFFFFFFFFFFFF AND PUSH1 0x1 PUSH1 0x40 MLOAD PUSH1 0x24 ADD PUSH1 0x40 MLOAD PUSH1 0x20 DUP2 DUP4 SUB SUB DUP2 MSTORE SWAP1 PUSH1 0x40 MSTORE PUSH32 0x9F862EE200000000000000000000000000000000000000000000000000000000 PUSH28 0xFFFFFFFFFFFFFFFFFFFFFFFFFFFFFFFFFFFFFFFFFFFFFFFFFFFFFFFF NOT AND PUSH1 0x20 DUP3 ADD DUP1 MLOAD PUSH28 0xFFFFFFFFFFFFFFFFFFFFFFFFFFFFFFFFFFFFFFFFFFFFFFFFFFFFFFFF DUP4 DUP2 DUP4 AND OR DUP4 MSTORE POP POP POP POP PUSH1 0x40 MLOAD PUSH2 0x156 SWAP2 SWAP1 PUSH2 0x554 JUMP JUMPDEST PUSH0 PUSH1 0x40 MLOAD DUP1 DUP4 SUB DUP2 DUP6 DUP8 GAS CALL SWAP3 POP POP POP RETURNDATASIZE DUP1 PUSH0 DUP2 EQ PUSH2 0x190 JUMPI PUSH1 0x40 MLOAD SWAP2 POP PUSH1 0x1F NOT PUSH1 0x3F RETURNDATASIZE ADD AND DUP3 ADD PUSH1 0x40 MSTORE RETURNDATASIZE DUP3 MSTORE RETURNDATASIZE PUSH0 PUSH1 0x20 DUP5 ADD RETURNDATACOPY PUSH2 0x195 JUMP JUMPDEST PUSH1 0x60 SWAP2 POP JUMPDEST POP SWAP2 POP SWAP2 POP DUP2 PUSH2 0x1DA JUMPI PUSH1 0x40 MLOAD PUSH32 0x8C379A000000000000000000000000000000000000000000000000000000000 DUP2 MSTORE PUSH1 0x4 ADD PUSH2 0x1D1 SWAP1 PUSH2 0x5C4 JUMP JUMPDEST PUSH1 0x40 MLOAD DUP1 SWAP2 SUB SWAP1 REVERT JUMPDEST POP POP JUMP JUMPDEST PUSH0 PUSH0 PUSH0 PUSH0 SWAP1 SLOAD SWAP1 PUSH2 0x100 EXP SWAP1 DIV PUSH20 0xFFFFFFFFFFFFFFFFFFFFFFFFFFFFFFFFFFFFFFFF AND PUSH20 0xFFFFFFFFFFFFFFFFFFFFFFFFFFFFFFFFFFFFFFFF AND PUSH1 0x1 PUSH1 0x40 MLOAD PUSH1 0x24 ADD PUSH1 0x40 MLOAD PUSH1 0x20 DUP2 DUP4 SUB SUB DUP2 MSTORE SWAP1 PUSH1 0x40 MSTORE PUSH32 0xC298557800000000000000000000000000000000000000000000000000000000 PUSH28 0xFFFFFFFFFFFFFFFFFFFFFFFFFFFFFFFFFFFFFFFFFFFFFFFFFFFFFFFF NOT AND PUSH1 0x20 DUP3 ADD DUP1 MLOAD PUSH28 0xFFFFFFFFFFFFFFFFFFFFFFFFFFFFFFFFFFFFFFFFFFFFFFFFFFFFFFFF DUP4 DUP2 DUP4 AND OR DUP4 MSTORE POP POP POP POP PUSH1 0x40 MLOAD PUSH2 0x2A9 SWAP2 SWAP1 PUSH2 0x554 JUMP JUMPDEST PUSH0 PUSH1 0x40 MLOAD DUP1 DUP4 SUB DUP2 DUP6 DUP8 GAS CALL SWAP3 POP POP POP RETURNDATASIZE DUP1 PUSH0 DUP2 EQ PUSH2 0x2E3 JUMPI PUSH1 0x40 MLOAD SWAP2 POP PUSH1 0x1F NOT PUSH1 0x3F RETURNDATASIZE ADD AND DUP3 ADD PUSH1 0x40 MSTORE RETURNDATASIZE DUP3 MSTORE RETURNDATASIZE PUSH0 PUSH1 0x20 DUP5 ADD RETURNDATACOPY PUSH2 0x2E8 JUMP JUMPDEST PUSH1 0x60 SWAP2 POP JUMPDEST POP SWAP2 POP SWAP2 POP DUP2 PUSH2 0x32D JUMPI PUSH1 0x40 MLOAD PUSH32 0x8C379A000000000000000000000000000000000000000000000000000000000 DUP2 MSTORE PUSH1 0x4 ADD PUSH2 0x324 SWAP1 PUSH2 0x5C4 JUMP JUMPDEST PUSH1 0x40 MLOAD DUP1 SWAP2 SUB SWAP1 REVERT JUMPDEST POP POP JUMP JUMPDEST PUSH0 PUSH0 PUSH0 PUSH0 SWAP1 SLOAD SWAP1 PUSH2 0x100 EXP SWAP1 DIV PUSH20 0xFFFFFFFFFFFFFFFFFFFFFFFFFFFFFFFFFFFFFFFF AND PUSH20 0xFFFFFFFFFFFFFFFFFFFFFFFFFFFFFFFFFFFFFFFF AND PUSH1 0x1 PUSH1 0x40 MLOAD PUSH2 0x378 SWAP1 PUSH2 0x605 JUMP JUMPDEST PUSH0 PUSH1 0x40 MLOAD DUP1 DUP4 SUB DUP2 DUP6 DUP8 GAS CALL SWAP3 POP POP POP RETURNDATASIZE DUP1 PUSH0 DUP2 EQ PUSH2 0x3B2 JUMPI PUSH1 0x40 MLOAD SWAP2 POP PUSH1 0x1F NOT PUSH1 0x3F RETURNDATASIZE ADD AND DUP3 ADD PUSH1 0x40 MSTORE RETURNDATASIZE DUP3 MSTORE RETURNDATASIZE PUSH0 PUSH1 0x20 DUP5 ADD RETURNDATACOPY PUSH2 0x3B7 JUMP JUMPDEST PUSH1 0x60 SWAP2 POP JUMPDEST POP SWAP2 POP SWAP2 POP DUP2 PUSH2 0x3FC JUMPI PUSH1 0x40 MLOAD PUSH32 0x8C379A000000000000000000000000000000000000000000000000000000000 DUP2 MSTORE PUSH1 0x4 ADD PUSH2 0x3F3 SWAP1 PUSH2 0x5C4 JUMP JUMPDEST PUSH1 0x40 MLOAD DUP1 SWAP2 SUB SWAP1 REVERT JUMPDEST POP POP JUMP JUMPDEST PUSH0 PUSH0 PUSH0 SWAP1 SLOAD SWAP1 PUSH2 0x100 EXP SWAP1 DIV PUSH20 0xFFFFFFFFFFFFFFFFFFFFFFFFFFFFFFFFFFFFFFFF AND PUSH20 0xFFFFFFFFFFFFFFFFFFFFFFFFFFFFFFFFFFFFFFFF AND PUSH2 0x8FC PUSH1 0x1 SWAP1 DUP2 ISZERO MUL SWAP1 PUSH1 0x40 MLOAD PUSH0 PUSH1 0x40 MLOAD DUP1 DUP4 SUB DUP2 DUP6 DUP9 DUP9 CALL SWAP4 POP POP POP POP SWAP1 POP DUP1 PUSH2 0x498 JUMPI PUSH1 0x40 MLOAD PUSH32 0x8C379A000000000000000000000000000000000000000000000000000000000 DUP2 MSTORE PUSH1 0x4 ADD PUSH2 0x48F SWAP1 PUSH2 0x663 JUMP JUMPDEST PUSH1 0x40 MLOAD DUP1 SWAP2 SUB SWAP1 REVERT JUMPDEST POP JUMP JUMPDEST PUSH0 PUSH0 SWAP1 SLOAD SWAP1 PUSH2 0x100 EXP SWAP1 DIV PUSH20 0xFFFFFFFFFFFFFFFFFFFFFFFFFFFFFFFFFFFFFFFF AND PUSH20 0xFFFFFFFFFFFFFFFFFFFFFFFFFFFFFFFFFFFFFFFF AND PUSH2 0x8FC PUSH1 0x1 SWAP1 DUP2 ISZERO MUL SWAP1 PUSH1 0x40 MLOAD PUSH0 PUSH1 0x40 MLOAD DUP1 DUP4 SUB DUP2 DUP6 DUP9 DUP9 CALL SWAP4 POP POP POP POP ISZERO DUP1 ISZERO PUSH2 0x4FF JUMPI RETURNDATASIZE PUSH0 PUSH0 RETURNDATACOPY RETURNDATASIZE PUSH0 REVERT JUMPDEST POP JUMP JUMPDEST PUSH0 DUP2 MLOAD SWAP1 POP SWAP2 SWAP1 POP JUMP JUMPDEST PUSH0 DUP2 SWAP1 POP SWAP3 SWAP2 POP POP JUMP JUMPDEST DUP3 DUP2 DUP4 MCOPY PUSH0 DUP4 DUP4 ADD MSTORE POP POP POP JUMP JUMPDEST PUSH0 PUSH2 0x52E DUP3 PUSH2 0x502 JUMP JUMPDEST PUSH2 0x538 DUP2 DUP6 PUSH2 0x50C JUMP JUMPDEST SWAP4 POP PUSH2 0x548 DUP2 DUP6 PUSH1 0x20 DUP7 ADD PUSH2 0x516 JUMP JUMPDEST DUP1 DUP5 ADD SWAP2 POP POP SWAP3 SWAP2 POP POP JUMP JUMPDEST PUSH0 PUSH2 0x55F DUP3 DUP5 PUSH2 0x524 JUMP JUMPDEST SWAP2 POP DUP2 SWAP1 POP SWAP3 SWAP2 POP POP JUMP JUMPDEST PUSH0 DUP3 DUP3 MSTORE PUSH1 0x20 DUP3 ADD SWAP1 POP SWAP3 SWAP2 POP POP JUMP JUMPDEST PUSH32 0x4661696C656420746F2073656E64204574686572000000000000000000000000 PUSH0 DUP3 ADD MSTORE POP JUMP JUMPDEST PUSH0 PUSH2 0x5AE PUSH1 0x14 DUP4 PUSH2 0x56A JUMP JUMPDEST SWAP2 POP PUSH2 0x5B9 DUP3 PUSH2 0x57A JUMP JUMPDEST PUSH1 0x20 DUP3 ADD SWAP1 POP SWAP2 SWAP1 POP JUMP JUMPDEST PUSH0 PUSH1 0x20 DUP3 ADD SWAP1 POP DUP2 DUP2 SUB PUSH0 DUP4 ADD MSTORE PUSH2 0x5DB DUP2 PUSH2 0x5A2 JUMP JUMPDEST SWAP1 POP SWAP2 SWAP1 POP JUMP JUMPDEST POP JUMP JUMPDEST PUSH0 PUSH2 0x5F0 PUSH0 DUP4 PUSH2 0x50C JUMP JUMPDEST SWAP2 POP PUSH2 0x5FB DUP3 PUSH2 0x5E2 JUMP JUMPDEST PUSH0 DUP3 ADD SWAP1 POP SWAP2 SWAP1 POP JUMP JUMPDEST PUSH0 PUSH2 0x60F DUP3 PUSH2 0x5E5 JUMP JUMPDEST SWAP2 POP DUP2 SWAP1 POP SWAP2 SWAP1 POP JUMP JUMPDEST PUSH32 0x6661696C20746F2073656E640000000000000000000000000000000000000000 PUSH0 DUP3 ADD MSTORE POP JUMP JUMPDEST PUSH0 PUSH2 0x64D PUSH1 0xC DUP4 PUSH2 0x56A JUMP JUMPDEST SWAP2 POP PUSH2 0x658 DUP3 PUSH2 0x619 JUMP JUMPDEST PUSH1 0x20 DUP3 ADD SWAP1 POP SWAP2 SWAP1 POP JUMP JUMPDEST PUSH0 PUSH1 0x20 DUP3 ADD SWAP1 POP DUP2 DUP2 SUB PUSH0 DUP4 ADD MSTORE PUSH2 0x67A DUP2 PUSH2 0x641 JUMP JUMPDEST SWAP1 POP SWAP2 SWAP1 POP JUMP INVALID LOG2 PUSH5 0x6970667358 0x22 SLT KECCAK256 PUSH22 0x1130D87D59735E192511190365D066A60BA8D87855A4 DUP10 0x28 MSTORE8 0xB7 0xBC 0xAD DUPN 0x5D SWAP10 PUSH5 0x736F6C6343 STOP ADDMOD 0x1E STOP CALLER PUSH1 0x80 PUSH1 0x40 MSTORE CALLVALUE DUP1 ISZERO PUSH1 0xE JUMPI PUSH0 PUSH0 REVERT JUMPDEST POP PUSH2 0x253 DUP1 PUSH2 0x1C PUSH0 CODECOPY PUSH0 RETURN INVALID PUSH1 0x80 PUSH1 0x40 MSTORE PUSH1 0x4 CALLDATASIZE LT PUSH2 0x21 JUMPI PUSH0 CALLDATALOAD PUSH1 0xE0 SHR DUP1 PUSH4 0xC2985578 EQ PUSH2 0x94 JUMPI PUSH2 0x5D JUMP JUMPDEST CALLDATASIZE PUSH2 0x5D JUMPI PUSH32 0xAC7C932DFED5A12F8CEE69B87B1DB28759F9ABAB0760D37031670980A55A2168 PUSH1 0x40 MLOAD PUSH2 0x53 SWAP1 PUSH2 0x12F JUMP JUMPDEST PUSH1 0x40 MLOAD DUP1 SWAP2 SUB SWAP1 LOG1 STOP JUMPDEST PUSH32 0xAC7C932DFED5A12F8CEE69B87B1DB28759F9ABAB0760D37031670980A55A2168 PUSH1 0x40 MLOAD PUSH2 0x8A SWAP1 PUSH2 0x197 JUMP JUMPDEST PUSH1 0x40 MLOAD DUP1 SWAP2 SUB SWAP1 LOG1 STOP JUMPDEST PUSH2 0x9C PUSH2 0x9E JUMP JUMPDEST STOP JUMPDEST PUSH32 0xAC7C932DFED5A12F8CEE69B87B1DB28759F9ABAB0760D37031670980A55A2168 PUSH1 0x40 MLOAD PUSH2 0xCB SWAP1 PUSH2 0x1FF JUMP JUMPDEST PUSH1 0x40 MLOAD DUP1 SWAP2 SUB SWAP1 LOG1 JUMP JUMPDEST PUSH0 DUP3 DUP3 MSTORE PUSH1 0x20 DUP3 ADD SWAP1 POP SWAP3 SWAP2 POP POP JUMP JUMPDEST PUSH32 0x7468697320697320726563656976650000000000000000000000000000000000 PUSH0 DUP3 ADD MSTORE POP JUMP JUMPDEST PUSH0 PUSH2 0x119 PUSH1 0xF DUP4 PUSH2 0xD5 JUMP JUMPDEST SWAP2 POP PUSH2 0x124 DUP3 PUSH2 0xE5 JUMP JUMPDEST PUSH1 0x20 DUP3 ADD SWAP1 POP SWAP2 SWAP1 POP JUMP JUMPDEST PUSH0 PUSH1 0x20 DUP3 ADD SWAP1 POP DUP2 DUP2 SUB PUSH0 DUP4 ADD MSTORE PUSH2 0x146 DUP2 PUSH2 0x10D JUMP JUMPDEST SWAP1 POP SWAP2 SWAP1 POP JUMP JUMPDEST PUSH32 0x746869732069732066616C6C6261636B00000000000000000000000000000000 PUSH0 DUP3 ADD MSTORE POP JUMP JUMPDEST PUSH0 PUSH2 0x181 PUSH1 0x10 DUP4 PUSH2 0xD5 JUMP JUMPDEST SWAP2 POP PUSH2 0x18C DUP3 PUSH2 0x14D JUMP JUMPDEST PUSH1 0x20 DUP3 ADD SWAP1 POP SWAP2 SWAP1 POP JUMP JUMPDEST PUSH0 PUSH1 0x20 DUP3 ADD SWAP1 POP DUP2 DUP2 SUB PUSH0 DUP4 ADD MSTORE PUSH2 0x1AE DUP2 PUSH2 0x175 JUMP JUMPDEST SWAP1 POP SWAP2 SWAP1 POP JUMP JUMPDEST PUSH32 0x7468697320697320666F6F000000000000000000000000000000000000000000 PUSH0 DUP3 ADD MSTORE POP JUMP JUMPDEST PUSH0 PUSH2 0x1E9 PUSH1 0xB DUP4 PUSH2 0xD5 JUMP JUMPDEST SWAP2 POP PUSH2 0x1F4 DUP3 PUSH2 0x1B5 JUMP JUMPDEST PUSH1 0x20 DUP3 ADD SWAP1 POP SWAP2 SWAP1 POP JUMP JUMPDEST PUSH0 PUSH1 0x20 DUP3 ADD SWAP1 POP DUP2 DUP2 SUB PUSH0 DUP4 ADD MSTORE PUSH2 0x216 DUP2 PUSH2 0x1DD JUMP JUMPDEST SWAP1 POP SWAP2 SWAP1 POP JUMP INVALID LOG2 PUSH5 0x6970667358 0x22 SLT KECCAK256 SIGNEXTEND 0xC2 0x27 GASLIMIT 0x4E 0xA7 INVALID 0xC4 SWAP15 DUPN 0xE0 0xEA 0xA5 PUSH17 0xFA16D881EEAC9DFD94F653D8D1D2145CDE 0xDC PUSH5 0x736F6C6343 STOP ADDMOD 0x1E STOP CALLER "
				},
				"gasEstimates": {
					"creation": {
						"codeDepositCost": "343800",
						"executionCost": "infinite",
						"totalCost": "infinite"
					},
					"external": {
						"callFallback()": "infinite",
						"callFoo()": "infinite",
						"callReceive()": "infinite",
						"sendReceive()": "infinite",
						"transferReceive()": "infinite"
					}
				},
				"methodIdentifiers": {
					"callFallback()": "366a4a1e",
					"callFoo()": "6085f0e9",
					"callReceive()": "6fbac4b5",
					"sendReceive()": "eb17881c",
					"transferReceive()": "ff1a7bcf"
				}
			},
			"storageLayout": {
				"storage": [
					{
						"astId": 116,
						"contract": "contracts/4.contract/Receive.sol:Caller1",
						"label": "callee",
						"offset": 0,
						"slot": "0",
						"type": "t_address_payable"
					}
				],
				"types": {
					"t_address_payable": {
						"encoding": "inplace",
						"label": "address payable",
						"numberOfBytes": "20"
					}
				}
			},
			"userdoc": {
				"kind": "user",
				"methods": {},
				"version": 1
			}
		}
	}
}