{
	"contracts/EnumType.sol": {
		"EnumType": {
			"abi": [
				{
					"inputs": [
						{
							"internalType": "enum EnumType.ActionChoices",
							"name": "c",
							"type": "uint8"
						}
					],
					"name": "enumToUint",
					"outputs": [
						{
							"internalType": "uint256",
							"name": "",
							"type": "uint256"
						}
					],
					"stateMutability": "pure",
					"type": "function"
				},
				{
					"inputs": [],
					"name": "getMaxVal",
					"outputs": [
						{
							"internalType": "enum EnumType.ActionChoices",
							"name": "",
							"type": "uint8"
						}
					],
					"stateMutability": "pure",
					"type": "function"
				},
				{
					"inputs": [],
					"name": "getMinVal",
					"outputs": [
						{
							"internalType": "enum EnumType.ActionChoices",
							"name": "",
							"type": "uint8"
						}
					],
					"stateMutability": "pure",
					"type": "function"
				},
				{
					"inputs": [
						{
							"internalType": "uint256",
							"name": "i",
							"type": "uint256"
						}
					],
					"name": "uintToEnum",
					"outputs": [
						{
							"internalType": "enum EnumType.ActionChoices",
							"name": "",
							"type": "uint8"
						}
					],
					"stateMutability": "pure",
					"type": "function"
				}
			],
			"devdoc": {
				"kind": "dev",
				"methods": {},
				"version": 1
			},
			"evm": {
				"assembly": "    /* \"contracts/EnumType.sol\":61:680  contract EnumType {... */\n  mstore(0x40, 0x80)\n  callvalue\n  dup1\n  iszero\n  tag_1\n  jumpi\n  revert(0x00, 0x00)\ntag_1:\n  pop\n  dataSize(sub_0)\n  dup1\n  dataOffset(sub_0)\n  0x00\n  codecopy\n  0x00\n  return\nstop\n\nsub_0: assembly {\n        /* \"contracts/EnumType.sol\":61:680  contract EnumType {... */\n      mstore(0x40, 0x80)\n      callvalue\n      dup1\n      iszero\n      tag_1\n      jumpi\n      revert(0x00, 0x00)\n    tag_1:\n      pop\n      jumpi(tag_2, lt(calldatasize, 0x04))\n      shr(0xe0, calldataload(0x00))\n      dup1\n      0x34db6450\n      eq\n      tag_3\n      jumpi\n      dup1\n      0x82f6e2b2\n      eq\n      tag_4\n      jumpi\n      dup1\n      0x84c94d2e\n      eq\n      tag_5\n      jumpi\n      dup1\n      0xa79140b0\n      eq\n      tag_6\n      jumpi\n    tag_2:\n      revert(0x00, 0x00)\n        /* \"contracts/EnumType.sol\":208:319  function getMaxVal() public pure  returns(ActionChoices) {... */\n    tag_3:\n      tag_7\n      tag_8\n      jump\t// in\n    tag_7:\n      mload(0x40)\n      tag_9\n      swap2\n      swap1\n      tag_10\n      jump\t// in\n    tag_9:\n      mload(0x40)\n      dup1\n      swap2\n      sub\n      swap1\n      return\n        /* \"contracts/EnumType.sol\":325:436  function getMinVal() public pure  returns(ActionChoices) {... */\n    tag_4:\n      tag_11\n      tag_12\n      jump\t// in\n    tag_11:\n      mload(0x40)\n      tag_13\n      swap2\n      swap1\n      tag_10\n      jump\t// in\n    tag_13:\n      mload(0x40)\n      dup1\n      swap2\n      sub\n      swap1\n      return\n        /* \"contracts/EnumType.sol\":572:677  function uintToEnum(uint i) public pure returns(ActionChoices) {... */\n    tag_5:\n      tag_14\n      0x04\n      dup1\n      calldatasize\n      sub\n      dup2\n      add\n      swap1\n      tag_15\n      swap2\n      swap1\n      tag_16\n      jump\t// in\n    tag_15:\n      tag_17\n      jump\t// in\n    tag_14:\n      mload(0x40)\n      tag_18\n      swap2\n      swap1\n      tag_10\n      jump\t// in\n    tag_18:\n      mload(0x40)\n      dup1\n      swap2\n      sub\n      swap1\n      return\n        /* \"contracts/EnumType.sol\":468:564  function enumToUint(ActionChoices c) public pure returns(uint) {... */\n    tag_6:\n      tag_19\n      0x04\n      dup1\n      calldatasize\n      sub\n      dup2\n      add\n      swap1\n      tag_20\n      swap2\n      swap1\n      tag_21\n      jump\t// in\n    tag_20:\n      tag_22\n      jump\t// in\n    tag_19:\n      mload(0x40)\n      tag_23\n      swap2\n      swap1\n      tag_24\n      jump\t// in\n    tag_23:\n      mload(0x40)\n      dup1\n      swap2\n      sub\n      swap1\n      return\n        /* \"contracts/EnumType.sol\":208:319  function getMaxVal() public pure  returns(ActionChoices) {... */\n    tag_8:\n        /* \"contracts/EnumType.sol\":250:263  ActionChoices */\n      0x00\n        /* \"contracts/EnumType.sol\":283:306  type(ActionChoices).max */\n      0x03\n        /* \"contracts/EnumType.sol\":276:306  return type(ActionChoices).max */\n      swap1\n      pop\n        /* \"contracts/EnumType.sol\":208:319  function getMaxVal() public pure  returns(ActionChoices) {... */\n      swap1\n      jump\t// out\n        /* \"contracts/EnumType.sol\":325:436  function getMinVal() public pure  returns(ActionChoices) {... */\n    tag_12:\n        /* \"contracts/EnumType.sol\":367:380  ActionChoices */\n      0x00\n        /* \"contracts/EnumType.sol\":400:423  type(ActionChoices).min */\n      0x00\n        /* \"contracts/EnumType.sol\":393:423  return type(ActionChoices).min */\n      swap1\n      pop\n        /* \"contracts/EnumType.sol\":325:436  function getMinVal() public pure  returns(ActionChoices) {... */\n      swap1\n      jump\t// out\n        /* \"contracts/EnumType.sol\":572:677  function uintToEnum(uint i) public pure returns(ActionChoices) {... */\n    tag_17:\n        /* \"contracts/EnumType.sol\":620:633  ActionChoices */\n      0x00\n        /* \"contracts/EnumType.sol\":667:668  i */\n      dup2\n        /* \"contracts/EnumType.sol\":653:669  ActionChoices(i) */\n      0x03\n      dup2\n      gt\n      iszero\n      tag_28\n      jumpi\n      tag_29\n      tag_30\n      jump\t// in\n    tag_29:\n    tag_28:\n        /* \"contracts/EnumType.sol\":646:669  return ActionChoices(i) */\n      swap1\n      pop\n        /* \"contracts/EnumType.sol\":572:677  function uintToEnum(uint i) public pure returns(ActionChoices) {... */\n      swap2\n      swap1\n      pop\n      jump\t// out\n        /* \"contracts/EnumType.sol\":468:564  function enumToUint(ActionChoices c) public pure returns(uint) {... */\n    tag_22:\n        /* \"contracts/EnumType.sol\":525:529  uint */\n      0x00\n        /* \"contracts/EnumType.sol\":554:555  c */\n      dup2\n        /* \"contracts/EnumType.sol\":549:556  uint(c) */\n      0x03\n      dup2\n      gt\n      iszero\n      tag_32\n      jumpi\n      tag_33\n      tag_30\n      jump\t// in\n    tag_33:\n    tag_32:\n        /* \"contracts/EnumType.sol\":542:556  return uint(c) */\n      swap1\n      pop\n        /* \"contracts/EnumType.sol\":468:564  function enumToUint(ActionChoices c) public pure returns(uint) {... */\n      swap2\n      swap1\n      pop\n      jump\t// out\n        /* \"#utility.yul\":7:187   */\n    tag_30:\n        /* \"#utility.yul\":55:132   */\n      0x4e487b7100000000000000000000000000000000000000000000000000000000\n        /* \"#utility.yul\":52:53   */\n      0x00\n        /* \"#utility.yul\":45:133   */\n      mstore\n        /* \"#utility.yul\":152:156   */\n      0x21\n        /* \"#utility.yul\":149:150   */\n      0x04\n        /* \"#utility.yul\":142:157   */\n      mstore\n        /* \"#utility.yul\":176:180   */\n      0x24\n        /* \"#utility.yul\":173:174   */\n      0x00\n        /* \"#utility.yul\":166:181   */\n      revert\n        /* \"#utility.yul\":193:313   */\n    tag_34:\n        /* \"#utility.yul\":281:282   */\n      0x04\n        /* \"#utility.yul\":274:279   */\n      dup2\n        /* \"#utility.yul\":271:283   */\n      lt\n        /* \"#utility.yul\":261:307   */\n      tag_50\n      jumpi\n        /* \"#utility.yul\":287:305   */\n      tag_51\n      tag_30\n      jump\t// in\n    tag_51:\n        /* \"#utility.yul\":261:307   */\n    tag_50:\n        /* \"#utility.yul\":193:313   */\n      pop\n      jump\t// out\n        /* \"#utility.yul\":319:460   */\n    tag_35:\n        /* \"#utility.yul\":371:378   */\n      0x00\n        /* \"#utility.yul\":400:405   */\n      dup2\n        /* \"#utility.yul\":389:405   */\n      swap1\n      pop\n        /* \"#utility.yul\":406:454   */\n      tag_53\n        /* \"#utility.yul\":448:453   */\n      dup3\n        /* \"#utility.yul\":406:454   */\n      tag_34\n      jump\t// in\n    tag_53:\n        /* \"#utility.yul\":319:460   */\n      swap2\n      swap1\n      pop\n      jump\t// out\n        /* \"#utility.yul\":466:607   */\n    tag_36:\n        /* \"#utility.yul\":529:538   */\n      0x00\n        /* \"#utility.yul\":562:601   */\n      tag_55\n        /* \"#utility.yul\":595:600   */\n      dup3\n        /* \"#utility.yul\":562:601   */\n      tag_35\n      jump\t// in\n    tag_55:\n        /* \"#utility.yul\":549:601   */\n      swap1\n      pop\n        /* \"#utility.yul\":466:607   */\n      swap2\n      swap1\n      pop\n      jump\t// out\n        /* \"#utility.yul\":613:770   */\n    tag_37:\n        /* \"#utility.yul\":713:763   */\n      tag_57\n        /* \"#utility.yul\":757:762   */\n      dup2\n        /* \"#utility.yul\":713:763   */\n      tag_36\n      jump\t// in\n    tag_57:\n        /* \"#utility.yul\":708:711   */\n      dup3\n        /* \"#utility.yul\":701:764   */\n      mstore\n        /* \"#utility.yul\":613:770   */\n      pop\n      pop\n      jump\t// out\n        /* \"#utility.yul\":776:1024   */\n    tag_10:\n        /* \"#utility.yul\":882:886   */\n      0x00\n        /* \"#utility.yul\":920:922   */\n      0x20\n        /* \"#utility.yul\":909:918   */\n      dup3\n        /* \"#utility.yul\":905:923   */\n      add\n        /* \"#utility.yul\":897:923   */\n      swap1\n      pop\n        /* \"#utility.yul\":933:1017   */\n      tag_59\n        /* \"#utility.yul\":1014:1015   */\n      0x00\n        /* \"#utility.yul\":1003:1012   */\n      dup4\n        /* \"#utility.yul\":999:1016   */\n      add\n        /* \"#utility.yul\":990:996   */\n      dup5\n        /* \"#utility.yul\":933:1017   */\n      tag_37\n      jump\t// in\n    tag_59:\n        /* \"#utility.yul\":776:1024   */\n      swap3\n      swap2\n      pop\n      pop\n      jump\t// out\n        /* \"#utility.yul\":1111:1228   */\n    tag_39:\n        /* \"#utility.yul\":1220:1221   */\n      0x00\n        /* \"#utility.yul\":1217:1218   */\n      0x00\n        /* \"#utility.yul\":1210:1222   */\n      revert\n        /* \"#utility.yul\":1357:1434   */\n    tag_41:\n        /* \"#utility.yul\":1394:1401   */\n      0x00\n        /* \"#utility.yul\":1423:1428   */\n      dup2\n        /* \"#utility.yul\":1412:1428   */\n      swap1\n      pop\n        /* \"#utility.yul\":1357:1434   */\n      swap2\n      swap1\n      pop\n      jump\t// out\n        /* \"#utility.yul\":1440:1562   */\n    tag_42:\n        /* \"#utility.yul\":1513:1537   */\n      tag_65\n        /* \"#utility.yul\":1531:1536   */\n      dup2\n        /* \"#utility.yul\":1513:1537   */\n      tag_41\n      jump\t// in\n    tag_65:\n        /* \"#utility.yul\":1506:1511   */\n      dup2\n        /* \"#utility.yul\":1503:1538   */\n      eq\n        /* \"#utility.yul\":1493:1556   */\n      tag_66\n      jumpi\n        /* \"#utility.yul\":1552:1553   */\n      0x00\n        /* \"#utility.yul\":1549:1550   */\n      0x00\n        /* \"#utility.yul\":1542:1554   */\n      revert\n        /* \"#utility.yul\":1493:1556   */\n    tag_66:\n        /* \"#utility.yul\":1440:1562   */\n      pop\n      jump\t// out\n        /* \"#utility.yul\":1568:1707   */\n    tag_43:\n        /* \"#utility.yul\":1614:1619   */\n      0x00\n        /* \"#utility.yul\":1652:1658   */\n      dup2\n        /* \"#utility.yul\":1639:1659   */\n      calldataload\n        /* \"#utility.yul\":1630:1659   */\n      swap1\n      pop\n        /* \"#utility.yul\":1668:1701   */\n      tag_68\n        /* \"#utility.yul\":1695:1700   */\n      dup2\n        /* \"#utility.yul\":1668:1701   */\n      tag_42\n      jump\t// in\n    tag_68:\n        /* \"#utility.yul\":1568:1707   */\n      swap3\n      swap2\n      pop\n      pop\n      jump\t// out\n        /* \"#utility.yul\":1713:2042   */\n    tag_16:\n        /* \"#utility.yul\":1772:1778   */\n      0x00\n        /* \"#utility.yul\":1821:1823   */\n      0x20\n        /* \"#utility.yul\":1809:1818   */\n      dup3\n        /* \"#utility.yul\":1800:1807   */\n      dup5\n        /* \"#utility.yul\":1796:1819   */\n      sub\n        /* \"#utility.yul\":1792:1824   */\n      slt\n        /* \"#utility.yul\":1789:1908   */\n      iszero\n      tag_70\n      jumpi\n        /* \"#utility.yul\":1827:1906   */\n      tag_71\n      tag_39\n      jump\t// in\n    tag_71:\n        /* \"#utility.yul\":1789:1908   */\n    tag_70:\n        /* \"#utility.yul\":1947:1948   */\n      0x00\n        /* \"#utility.yul\":1972:2025   */\n      tag_72\n        /* \"#utility.yul\":2017:2024   */\n      dup5\n        /* \"#utility.yul\":2008:2014   */\n      dup3\n        /* \"#utility.yul\":1997:2006   */\n      dup6\n        /* \"#utility.yul\":1993:2015   */\n      add\n        /* \"#utility.yul\":1972:2025   */\n      tag_43\n      jump\t// in\n    tag_72:\n        /* \"#utility.yul\":1962:2025   */\n      swap2\n      pop\n        /* \"#utility.yul\":1918:2035   */\n      pop\n        /* \"#utility.yul\":1713:2042   */\n      swap3\n      swap2\n      pop\n      pop\n      jump\t// out\n        /* \"#utility.yul\":2048:2162   */\n    tag_44:\n        /* \"#utility.yul\":2136:2137   */\n      0x04\n        /* \"#utility.yul\":2129:2134   */\n      dup2\n        /* \"#utility.yul\":2126:2138   */\n      lt\n        /* \"#utility.yul\":2116:2156   */\n      tag_74\n      jumpi\n        /* \"#utility.yul\":2152:2153   */\n      0x00\n        /* \"#utility.yul\":2149:2150   */\n      0x00\n        /* \"#utility.yul\":2142:2154   */\n      revert\n        /* \"#utility.yul\":2116:2156   */\n    tag_74:\n        /* \"#utility.yul\":2048:2162   */\n      pop\n      jump\t// out\n        /* \"#utility.yul\":2168:2337   */\n    tag_45:\n        /* \"#utility.yul\":2229:2234   */\n      0x00\n        /* \"#utility.yul\":2267:2273   */\n      dup2\n        /* \"#utility.yul\":2254:2274   */\n      calldataload\n        /* \"#utility.yul\":2245:2274   */\n      swap1\n      pop\n        /* \"#utility.yul\":2283:2331   */\n      tag_76\n        /* \"#utility.yul\":2325:2330   */\n      dup2\n        /* \"#utility.yul\":2283:2331   */\n      tag_44\n      jump\t// in\n    tag_76:\n        /* \"#utility.yul\":2168:2337   */\n      swap3\n      swap2\n      pop\n      pop\n      jump\t// out\n        /* \"#utility.yul\":2343:2702   */\n    tag_21:\n        /* \"#utility.yul\":2417:2423   */\n      0x00\n        /* \"#utility.yul\":2466:2468   */\n      0x20\n        /* \"#utility.yul\":2454:2463   */\n      dup3\n        /* \"#utility.yul\":2445:2452   */\n      dup5\n        /* \"#utility.yul\":2441:2464   */\n      sub\n        /* \"#utility.yul\":2437:2469   */\n      slt\n        /* \"#utility.yul\":2434:2553   */\n      iszero\n      tag_78\n      jumpi\n        /* \"#utility.yul\":2472:2551   */\n      tag_79\n      tag_39\n      jump\t// in\n    tag_79:\n        /* \"#utility.yul\":2434:2553   */\n    tag_78:\n        /* \"#utility.yul\":2592:2593   */\n      0x00\n        /* \"#utility.yul\":2617:2685   */\n      tag_80\n        /* \"#utility.yul\":2677:2684   */\n      dup5\n        /* \"#utility.yul\":2668:2674   */\n      dup3\n        /* \"#utility.yul\":2657:2666   */\n      dup6\n        /* \"#utility.yul\":2653:2675   */\n      add\n        /* \"#utility.yul\":2617:2685   */\n      tag_45\n      jump\t// in\n    tag_80:\n        /* \"#utility.yul\":2607:2685   */\n      swap2\n      pop\n        /* \"#utility.yul\":2563:2695   */\n      pop\n        /* \"#utility.yul\":2343:2702   */\n      swap3\n      swap2\n      pop\n      pop\n      jump\t// out\n        /* \"#utility.yul\":2708:2826   */\n    tag_46:\n        /* \"#utility.yul\":2795:2819   */\n      tag_82\n        /* \"#utility.yul\":2813:2818   */\n      dup2\n        /* \"#utility.yul\":2795:2819   */\n      tag_41\n      jump\t// in\n    tag_82:\n        /* \"#utility.yul\":2790:2793   */\n      dup3\n        /* \"#utility.yul\":2783:2820   */\n      mstore\n        /* \"#utility.yul\":2708:2826   */\n      pop\n      pop\n      jump\t// out\n        /* \"#utility.yul\":2832:3054   */\n    tag_24:\n        /* \"#utility.yul\":2925:2929   */\n      0x00\n        /* \"#utility.yul\":2963:2965   */\n      0x20\n        /* \"#utility.yul\":2952:2961   */\n      dup3\n        /* \"#utility.yul\":2948:2966   */\n      add\n        /* \"#utility.yul\":2940:2966   */\n      swap1\n      pop\n        /* \"#utility.yul\":2976:3047   */\n      tag_84\n        /* \"#utility.yul\":3044:3045   */\n      0x00\n        /* \"#utility.yul\":3033:3042   */\n      dup4\n        /* \"#utility.yul\":3029:3046   */\n      add\n        /* \"#utility.yul\":3020:3026   */\n      dup5\n        /* \"#utility.yul\":2976:3047   */\n      tag_46\n      jump\t// in\n    tag_84:\n        /* \"#utility.yul\":2832:3054   */\n      swap3\n      swap2\n      pop\n      pop\n      jump\t// out\n\n    auxdata: 0xa26469706673582212209bbb11a470b2222bc94501e4c78afe73db708629876a7a4dd9c336a45d6a8c9564736f6c634300081e0033\n}\n",
				"bytecode": {
					"linkReferences": {},
					"object": "6080604052348015600e575f5ffd5b506102c98061001c5f395ff3fe608060405234801561000f575f5ffd5b506004361061004a575f3560e01c806334db64501461004e57806382f6e2b21461006c57806384c94d2e1461008a578063a79140b0146100ba575b5f5ffd5b6100566100ea565b60405161006391906101a2565b60405180910390f35b6100746100f2565b60405161008191906101a2565b60405180910390f35b6100a4600480360381019061009f91906101f2565b6100f9565b6040516100b191906101a2565b60405180910390f35b6100d460048036038101906100cf9190610240565b610114565b6040516100e1919061027a565b60405180910390f35b5f6003905090565b5f5f905090565b5f81600381111561010d5761010c61012f565b5b9050919050565b5f8160038111156101285761012761012f565b5b9050919050565b7f4e487b71000000000000000000000000000000000000000000000000000000005f52602160045260245ffd5b6004811061016d5761016c61012f565b5b50565b5f81905061017d8261015c565b919050565b5f61018c82610170565b9050919050565b61019c81610182565b82525050565b5f6020820190506101b55f830184610193565b92915050565b5f5ffd5b5f819050919050565b6101d1816101bf565b81146101db575f5ffd5b50565b5f813590506101ec816101c8565b92915050565b5f60208284031215610207576102066101bb565b5b5f610214848285016101de565b91505092915050565b60048110610229575f5ffd5b50565b5f8135905061023a8161021d565b92915050565b5f60208284031215610255576102546101bb565b5b5f6102628482850161022c565b91505092915050565b610274816101bf565b82525050565b5f60208201905061028d5f83018461026b565b9291505056fea26469706673582212209bbb11a470b2222bc94501e4c78afe73db708629876a7a4dd9c336a45d6a8c9564736f6c634300081e0033",
					"opcodes": "PUSH1 0x80 PUSH1 0x40 MSTORE CALLVALUE DUP1 ISZERO PUSH1 0xE JUMPI PUSH0 PUSH0 REVERT JUMPDEST POP PUSH2 0x2C9 DUP1 PUSH2 0x1C PUSH0 CODECOPY PUSH0 RETURN INVALID PUSH1 0x80 PUSH1 0x40 MSTORE CALLVALUE DUP1 ISZERO PUSH2 0xF JUMPI PUSH0 PUSH0 REVERT JUMPDEST POP PUSH1 0x4 CALLDATASIZE LT PUSH2 0x4A JUMPI PUSH0 CALLDATALOAD PUSH1 0xE0 SHR DUP1 PUSH4 0x34DB6450 EQ PUSH2 0x4E JUMPI DUP1 PUSH4 0x82F6E2B2 EQ PUSH2 0x6C JUMPI DUP1 PUSH4 0x84C94D2E EQ PUSH2 0x8A JUMPI DUP1 PUSH4 0xA79140B0 EQ PUSH2 0xBA JUMPI JUMPDEST PUSH0 PUSH0 REVERT JUMPDEST PUSH2 0x56 PUSH2 0xEA JUMP JUMPDEST PUSH1 0x40 MLOAD PUSH2 0x63 SWAP2 SWAP1 PUSH2 0x1A2 JUMP JUMPDEST PUSH1 0x40 MLOAD DUP1 SWAP2 SUB SWAP1 RETURN JUMPDEST PUSH2 0x74 PUSH2 0xF2 JUMP JUMPDEST PUSH1 0x40 MLOAD PUSH2 0x81 SWAP2 SWAP1 PUSH2 0x1A2 JUMP JUMPDEST PUSH1 0x40 MLOAD DUP1 SWAP2 SUB SWAP1 RETURN JUMPDEST PUSH2 0xA4 PUSH1 0x4 DUP1 CALLDATASIZE SUB DUP2 ADD SWAP1 PUSH2 0x9F SWAP2 SWAP1 PUSH2 0x1F2 JUMP JUMPDEST PUSH2 0xF9 JUMP JUMPDEST PUSH1 0x40 MLOAD PUSH2 0xB1 SWAP2 SWAP1 PUSH2 0x1A2 JUMP JUMPDEST PUSH1 0x40 MLOAD DUP1 SWAP2 SUB SWAP1 RETURN JUMPDEST PUSH2 0xD4 PUSH1 0x4 DUP1 CALLDATASIZE SUB DUP2 ADD SWAP1 PUSH2 0xCF SWAP2 SWAP1 PUSH2 0x240 JUMP JUMPDEST PUSH2 0x114 JUMP JUMPDEST PUSH1 0x40 MLOAD PUSH2 0xE1 SWAP2 SWAP1 PUSH2 0x27A JUMP JUMPDEST PUSH1 0x40 MLOAD DUP1 SWAP2 SUB SWAP1 RETURN JUMPDEST PUSH0 PUSH1 0x3 SWAP1 POP SWAP1 JUMP JUMPDEST PUSH0 PUSH0 SWAP1 POP SWAP1 JUMP JUMPDEST PUSH0 DUP2 PUSH1 0x3 DUP2 GT ISZERO PUSH2 0x10D JUMPI PUSH2 0x10C PUSH2 0x12F JUMP JUMPDEST JUMPDEST SWAP1 POP SWAP2 SWAP1 POP JUMP JUMPDEST PUSH0 DUP2 PUSH1 0x3 DUP2 GT ISZERO PUSH2 0x128 JUMPI PUSH2 0x127 PUSH2 0x12F JUMP JUMPDEST JUMPDEST SWAP1 POP SWAP2 SWAP1 POP JUMP JUMPDEST PUSH32 0x4E487B7100000000000000000000000000000000000000000000000000000000 PUSH0 MSTORE PUSH1 0x21 PUSH1 0x4 MSTORE PUSH1 0x24 PUSH0 REVERT JUMPDEST PUSH1 0x4 DUP2 LT PUSH2 0x16D JUMPI PUSH2 0x16C PUSH2 0x12F JUMP JUMPDEST JUMPDEST POP JUMP JUMPDEST PUSH0 DUP2 SWAP1 POP PUSH2 0x17D DUP3 PUSH2 0x15C JUMP JUMPDEST SWAP2 SWAP1 POP JUMP JUMPDEST PUSH0 PUSH2 0x18C DUP3 PUSH2 0x170 JUMP JUMPDEST SWAP1 POP SWAP2 SWAP1 POP JUMP JUMPDEST PUSH2 0x19C DUP2 PUSH2 0x182 JUMP JUMPDEST DUP3 MSTORE POP POP JUMP JUMPDEST PUSH0 PUSH1 0x20 DUP3 ADD SWAP1 POP PUSH2 0x1B5 PUSH0 DUP4 ADD DUP5 PUSH2 0x193 JUMP JUMPDEST SWAP3 SWAP2 POP POP JUMP JUMPDEST PUSH0 PUSH0 REVERT JUMPDEST PUSH0 DUP2 SWAP1 POP SWAP2 SWAP1 POP JUMP JUMPDEST PUSH2 0x1D1 DUP2 PUSH2 0x1BF JUMP JUMPDEST DUP2 EQ PUSH2 0x1DB JUMPI PUSH0 PUSH0 REVERT JUMPDEST POP JUMP JUMPDEST PUSH0 DUP2 CALLDATALOAD SWAP1 POP PUSH2 0x1EC DUP2 PUSH2 0x1C8 JUMP JUMPDEST SWAP3 SWAP2 POP POP JUMP JUMPDEST PUSH0 PUSH1 0x20 DUP3 DUP5 SUB SLT ISZERO PUSH2 0x207 JUMPI PUSH2 0x206 PUSH2 0x1BB JUMP JUMPDEST JUMPDEST PUSH0 PUSH2 0x214 DUP5 DUP3 DUP6 ADD PUSH2 0x1DE JUMP JUMPDEST SWAP2 POP POP SWAP3 SWAP2 POP POP JUMP JUMPDEST PUSH1 0x4 DUP2 LT PUSH2 0x229 JUMPI PUSH0 PUSH0 REVERT JUMPDEST POP JUMP JUMPDEST PUSH0 DUP2 CALLDATALOAD SWAP1 POP PUSH2 0x23A DUP2 PUSH2 0x21D JUMP JUMPDEST SWAP3 SWAP2 POP POP JUMP JUMPDEST PUSH0 PUSH1 0x20 DUP3 DUP5 SUB SLT ISZERO PUSH2 0x255 JUMPI PUSH2 0x254 PUSH2 0x1BB JUMP JUMPDEST JUMPDEST PUSH0 PUSH2 0x262 DUP5 DUP3 DUP6 ADD PUSH2 0x22C JUMP JUMPDEST SWAP2 POP POP SWAP3 SWAP2 POP POP JUMP JUMPDEST PUSH2 0x274 DUP2 PUSH2 0x1BF JUMP JUMPDEST DUP3 MSTORE POP POP JUMP JUMPDEST PUSH0 PUSH1 0x20 DUP3 ADD SWAP1 POP PUSH2 0x28D PUSH0 DUP4 ADD DUP5 PUSH2 0x26B JUMP JUMPDEST SWAP3 SWAP2 POP POP JUMP INVALID LOG2 PUSH5 0x6970667358 0x22 SLT KECCAK256 SWAP12 0xBB GT LOG4 PUSH17 0xB2222BC94501E4C78AFE73DB708629876A PUSH27 0x4DD9C336A45D6A8C9564736F6C634300081E003300000000000000 "
				},
				"gasEstimates": {
					"creation": {
						"codeDepositCost": "142600",
						"executionCost": "188",
						"totalCost": "142788"
					},
					"external": {
						"enumToUint(uint8)": "621",
						"getMaxVal()": "404",
						"getMinVal()": "425",
						"uintToEnum(uint256)": "735"
					}
				},
				"methodIdentifiers": {
					"enumToUint(uint8)": "a79140b0",
					"getMaxVal()": "34db6450",
					"getMinVal()": "82f6e2b2",
					"uintToEnum(uint256)": "84c94d2e"
				}
			},
			"storageLayout": {
				"storage": [],
				"types": null
			},
			"userdoc": {
				"kind": "user",
				"methods": {},
				"version": 1
			}
		}
	}
}