{
  "_format": "hh-sol-artifact-1",
  "contractName": "NftAuction",
  "sourceName": "contracts/NftAuction.sol",
  "abi": [
    {
      "inputs": [
        {
          "internalType": "address",
          "name": "target",
          "type": "address"
        }
      ],
      "name": "AddressEmptyCode",
      "type": "error"
    },
    {
      "inputs": [
        {
          "internalType": "address",
          "name": "implementation",
          "type": "address"
        }
      ],
      "name": "ERC1967InvalidImplementation",
      "type": "error"
    },
    {
      "inputs": [],
      "name": "ERC1967NonPayable",
      "type": "error"
    },
    {
      "inputs": [],
      "name": "FailedCall",
      "type": "error"
    },
    {
      "inputs": [],
      "name": "InvalidInitialization",
      "type": "error"
    },
    {
      "inputs": [],
      "name": "NotInitializing",
      "type": "error"
    },
    {
      "inputs": [],
      "name": "UUPSUnauthorizedCallContext",
      "type": "error"
    },
    {
      "inputs": [
        {
          "internalType": "bytes32",
          "name": "slot",
          "type": "bytes32"
        }
      ],
      "name": "UUPSUnsupportedProxiableUUID",
      "type": "error"
    },
    {
      "anonymous": false,
      "inputs": [
        {
          "indexed": false,
          "internalType": "uint64",
          "name": "version",
          "type": "uint64"
        }
      ],
      "name": "Initialized",
      "type": "event"
    },
    {
      "anonymous": false,
      "inputs": [
        {
          "indexed": true,
          "internalType": "address",
          "name": "implementation",
          "type": "address"
        }
      ],
      "name": "Upgraded",
      "type": "event"
    },
    {
      "inputs": [],
      "name": "UPGRADE_INTERFACE_VERSION",
      "outputs": [
        {
          "internalType": "string",
          "name": "",
          "type": "string"
        }
      ],
      "stateMutability": "view",
      "type": "function"
    },
    {
      "inputs": [],
      "name": "admin",
      "outputs": [
        {
          "internalType": "address",
          "name": "",
          "type": "address"
        }
      ],
      "stateMutability": "view",
      "type": "function"
    },
    {
      "inputs": [
        {
          "internalType": "uint256",
          "name": "",
          "type": "uint256"
        }
      ],
      "name": "auctions",
      "outputs": [
        {
          "internalType": "address",
          "name": "seller",
          "type": "address"
        },
        {
          "internalType": "uint256",
          "name": "duration",
          "type": "uint256"
        },
        {
          "internalType": "uint256",
          "name": "startPrice",
          "type": "uint256"
        },
        {
          "internalType": "uint256",
          "name": "startTime",
          "type": "uint256"
        },
        {
          "internalType": "bool",
          "name": "ended",
          "type": "bool"
        },
        {
          "internalType": "address",
          "name": "highestBidder",
          "type": "address"
        },
        {
          "internalType": "uint256",
          "name": "highestBid",
          "type": "uint256"
        },
        {
          "internalType": "address",
          "name": "nftContract",
          "type": "address"
        },
        {
          "internalType": "uint256",
          "name": "tokenId",
          "type": "uint256"
        },
        {
          "internalType": "address",
          "name": "tokenAddress",
          "type": "address"
        }
      ],
      "stateMutability": "view",
      "type": "function"
    },
    {
      "inputs": [
        {
          "internalType": "uint256",
          "name": "_duration",
          "type": "uint256"
        },
        {
          "internalType": "uint256",
          "name": "_startPrice",
          "type": "uint256"
        },
        {
          "internalType": "address",
          "name": "_nftAddress",
          "type": "address"
        },
        {
          "internalType": "uint256",
          "name": "_tokenId",
          "type": "uint256"
        }
      ],
      "name": "createAuction",
      "outputs": [],
      "stateMutability": "nonpayable",
      "type": "function"
    },
    {
      "inputs": [
        {
          "internalType": "uint256",
          "name": "_auctionId",
          "type": "uint256"
        }
      ],
      "name": "endAuction",
      "outputs": [],
      "stateMutability": "nonpayable",
      "type": "function"
    },
    {
      "inputs": [
        {
          "internalType": "address",
          "name": "tokenAddress",
          "type": "address"
        }
      ],
      "name": "getChainlinkDataFeedLatestAnswer",
      "outputs": [
        {
          "internalType": "int256",
          "name": "",
          "type": "int256"
        }
      ],
      "stateMutability": "view",
      "type": "function"
    },
    {
      "inputs": [],
      "name": "initialize",
      "outputs": [],
      "stateMutability": "nonpayable",
      "type": "function"
    },
    {
      "inputs": [],
      "name": "nextAuctionId",
      "outputs": [
        {
          "internalType": "uint256",
          "name": "",
          "type": "uint256"
        }
      ],
      "stateMutability": "view",
      "type": "function"
    },
    {
      "inputs": [
        {
          "internalType": "uint256",
          "name": "_auctionId",
          "type": "uint256"
        },
        {
          "internalType": "uint256",
          "name": "amount",
          "type": "uint256"
        },
        {
          "internalType": "address",
          "name": "_tokenAddress",
          "type": "address"
        }
      ],
      "name": "playerBid",
      "outputs": [],
      "stateMutability": "payable",
      "type": "function"
    },
    {
      "inputs": [
        {
          "internalType": "address",
          "name": "",
          "type": "address"
        }
      ],
      "name": "priceFeeds",
      "outputs": [
        {
          "internalType": "contract AggregatorV3Interface",
          "name": "",
          "type": "address"
        }
      ],
      "stateMutability": "view",
      "type": "function"
    },
    {
      "inputs": [],
      "name": "proxiableUUID",
      "outputs": [
        {
          "internalType": "bytes32",
          "name": "",
          "type": "bytes32"
        }
      ],
      "stateMutability": "view",
      "type": "function"
    },
    {
      "inputs": [
        {
          "internalType": "address",
          "name": "tokenAddress",
          "type": "address"
        },
        {
          "internalType": "address",
          "name": "_priceFeed",
          "type": "address"
        }
      ],
      "name": "setPriceFeed",
      "outputs": [],
      "stateMutability": "nonpayable",
      "type": "function"
    },
    {
      "inputs": [
        {
          "internalType": "address",
          "name": "newImplementation",
          "type": "address"
        },
        {
          "internalType": "bytes",
          "name": "data",
          "type": "bytes"
        }
      ],
      "name": "upgradeToAndCall",
      "outputs": [],
      "stateMutability": "payable",
      "type": "function"
    }
  ],
  "bytecode": "0x60a06040523073ffffffffffffffffffffffffffffffffffffffff1660809073ffffffffffffffffffffffffffffffffffffffff16815250348015604257600080fd5b506080516126ef61006c600039600081816111b90152818161120e015261149001526126ef6000f3fe6080604052600436106100c25760003560e01c80639dcb511a1161007f578063b9a2de3a11610059578063b9a2de3a14610241578063e7078f921461026a578063f851a440146102a7578063fc528482146102d2576100c2565b80639dcb511a146101b0578063ad3cb1cc146101ed578063b1cb48ef14610218576100c2565b806301a8dae4146100c75780634f1ef286146100e357806352d1902d146100ff578063571a26a01461012a57806376e11286146101705780638129fc1c14610199575b600080fd5b6100e160048036038101906100dc9190611a1d565b6102fd565b005b6100fd60048036038101906100f89190611bb6565b61076b565b005b34801561010b57600080fd5b5061011461078a565b6040516101219190611c2b565b60405180910390f35b34801561013657600080fd5b50610151600480360381019061014c9190611c46565b6107bd565b6040516101679a99989796959493929190611cac565b60405180910390f35b34801561017c57600080fd5b5061019760048036038101906101929190611d48565b61089e565b005b3480156101a557600080fd5b506101ae610920565b005b3480156101bc57600080fd5b506101d760048036038101906101d29190611d88565b610ae6565b6040516101e49190611e14565b60405180910390f35b3480156101f957600080fd5b50610202610b19565b60405161020f9190611eae565b60405180910390f35b34801561022457600080fd5b5061023f600480360381019061023a9190611ed0565b610b52565b005b34801561024d57600080fd5b5061026860048036038101906102639190611c46565b610f21565b005b34801561027657600080fd5b50610291600480360381019061028c9190611d88565b6110a5565b60405161029e9190611f50565b60405180910390f35b3480156102b357600080fd5b506102bc61118b565b6040516102c99190611f6b565b60405180910390f35b3480156102de57600080fd5b506102e76111b1565b6040516102f49190611f86565b60405180910390f35b600080600085815260200190815260200160002090508060040160009054906101000a900460ff16158015610344575042816001015482600301546103429190611fd0565b115b610383576040517f08c379a000000000000000000000000000000000000000000000000000000000815260040161037a90612050565b60405180910390fd5b60008073ffffffffffffffffffffffffffffffffffffffff168373ffffffffffffffffffffffffffffffffffffffff16146103d3576103c1836110a5565b846103cc9190612070565b90506103ee565b3493506103e060006110a5565b846103eb9190612070565b90505b60006103fa60006110a5565b83600201546104099190612070565b9050600061041760006110a5565b84600501546104269190612070565b90508083101580156104385750818310155b610477576040517f08c379a000000000000000000000000000000000000000000000000000000000815260040161046e906120fe565b60405180910390fd5b600073ffffffffffffffffffffffffffffffffffffffff168573ffffffffffffffffffffffffffffffffffffffff161461052d578473ffffffffffffffffffffffffffffffffffffffff166323b872dd3330896040518463ffffffff1660e01b81526004016104e89392919061211e565b6020604051808303816000875af1158015610507573d6000803e3d6000fd5b505050506040513d601f19601f8201168201806040525081019061052b9190612181565b505b6000846005015411156106d357600073ffffffffffffffffffffffffffffffffffffffff168460080160009054906101000a900473ffffffffffffffffffffffffffffffffffffffff1673ffffffffffffffffffffffffffffffffffffffff1614610662578360080160009054906101000a900473ffffffffffffffffffffffffffffffffffffffff1673ffffffffffffffffffffffffffffffffffffffff1663a9059cbb8560040160019054906101000a900473ffffffffffffffffffffffffffffffffffffffff1686600501546040518363ffffffff1660e01b81526004016106199291906121ae565b6020604051808303816000875af1158015610638573d6000803e3d6000fd5b505050506040513d601f19601f8201168201806040525081019061065c9190612181565b506106d2565b8360040160019054906101000a900473ffffffffffffffffffffffffffffffffffffffff1673ffffffffffffffffffffffffffffffffffffffff166108fc85600501549081150290604051600060405180830381858888f193505050501580156106d0573d6000803e3d6000fd5b505b5b848460080160006101000a81548173ffffffffffffffffffffffffffffffffffffffff021916908373ffffffffffffffffffffffffffffffffffffffff160217905550338460040160016101000a81548173ffffffffffffffffffffffffffffffffffffffff021916908373ffffffffffffffffffffffffffffffffffffffff16021790555085846005018190555050505050505050565b6107736111b7565b61077c8261129d565b610786828261136f565b5050565b600061079461148e565b7f360894a13ba1a3210667c828492db98dca3e2076cc3735a920a3ca505d382bbc60001b905090565b60006020528060005260406000206000915090508060000160009054906101000a900473ffffffffffffffffffffffffffffffffffffffff16908060010154908060020154908060030154908060040160009054906101000a900460ff16908060040160019054906101000a900473ffffffffffffffffffffffffffffffffffffffff16908060050154908060060160009054906101000a900473ffffffffffffffffffffffffffffffffffffffff16908060070154908060080160009054906101000a900473ffffffffffffffffffffffffffffffffffffffff1690508a565b80600360008473ffffffffffffffffffffffffffffffffffffffff1673ffffffffffffffffffffffffffffffffffffffff16815260200190815260200160002060006101000a81548173ffffffffffffffffffffffffffffffffffffffff021916908373ffffffffffffffffffffffffffffffffffffffff1602179055505050565b600061092a611515565b905060008160000160089054906101000a900460ff1615905060008260000160009054906101000a900467ffffffffffffffff1690506000808267ffffffffffffffff161480156109785750825b9050600060018367ffffffffffffffff161480156109ad575060003073ffffffffffffffffffffffffffffffffffffffff163b145b9050811580156109bb575080155b156109f2576040517ff92ee8a900000000000000000000000000000000000000000000000000000000815260040160405180910390fd5b60018560000160006101000a81548167ffffffffffffffff021916908367ffffffffffffffff1602179055508315610a425760018560000160086101000a81548160ff0219169083151502179055505b33600260006101000a81548173ffffffffffffffffffffffffffffffffffffffff021916908373ffffffffffffffffffffffffffffffffffffffff1602179055508315610adf5760008560000160086101000a81548160ff0219169083151502179055507fc7f505b2f371ae2175ee4913f4499e1f2633a7b5936321eed1cdaeb6115181d26001604051610ad69190612226565b60405180910390a15b5050505050565b60036020528060005260406000206000915054906101000a900473ffffffffffffffffffffffffffffffffffffffff1681565b6040518060400160405280600581526020017f352e302e3000000000000000000000000000000000000000000000000000000081525081565b600260009054906101000a900473ffffffffffffffffffffffffffffffffffffffff1673ffffffffffffffffffffffffffffffffffffffff163373ffffffffffffffffffffffffffffffffffffffff1614610be2576040517f08c379a0000000000000000000000000000000000000000000000000000000008152600401610bd99061228d565b60405180910390fd5b600a841015610c26576040517f08c379a0000000000000000000000000000000000000000000000000000000008152600401610c1d906122f9565b60405180910390fd5b60008311610c69576040517f08c379a0000000000000000000000000000000000000000000000000000000008152600401610c6090612365565b60405180910390fd5b8173ffffffffffffffffffffffffffffffffffffffff166323b872dd3330846040518463ffffffff1660e01b8152600401610ca69392919061211e565b600060405180830381600087803b158015610cc057600080fd5b505af1158015610cd4573d6000803e3d6000fd5b505050506040518061014001604052803373ffffffffffffffffffffffffffffffffffffffff168152602001858152602001848152602001428152602001600015158152602001600073ffffffffffffffffffffffffffffffffffffffff168152602001600081526020018373ffffffffffffffffffffffffffffffffffffffff168152602001828152602001600073ffffffffffffffffffffffffffffffffffffffff16815250600080600154815260200190815260200160002060008201518160000160006101000a81548173ffffffffffffffffffffffffffffffffffffffff021916908373ffffffffffffffffffffffffffffffffffffffff16021790555060208201518160010155604082015181600201556060820151816003015560808201518160040160006101000a81548160ff02191690831515021790555060a08201518160040160016101000a81548173ffffffffffffffffffffffffffffffffffffffff021916908373ffffffffffffffffffffffffffffffffffffffff16021790555060c0820151816005015560e08201518160060160006101000a81548173ffffffffffffffffffffffffffffffffffffffff021916908373ffffffffffffffffffffffffffffffffffffffff16021790555061010082015181600701556101208201518160080160006101000a81548173ffffffffffffffffffffffffffffffffffffffff021916908373ffffffffffffffffffffffffffffffffffffffff16021790555090505060016000815480929190610f1690612385565b919050555050505050565b600080600083815260200190815260200160002090508060040160009054906101000a900460ff16158015610f6857504281600101548260030154610f669190611fd0565b105b610fa7576040517f08c379a0000000000000000000000000000000000000000000000000000000008152600401610f9e90612419565b60405180910390fd5b8060060160009054906101000a900473ffffffffffffffffffffffffffffffffffffffff1673ffffffffffffffffffffffffffffffffffffffff166323b872dd600260009054906101000a900473ffffffffffffffffffffffffffffffffffffffff168360040160019054906101000a900473ffffffffffffffffffffffffffffffffffffffff1684600701546040518463ffffffff1660e01b81526004016110529392919061211e565b600060405180830381600087803b15801561106c57600080fd5b505af1158015611080573d6000803e3d6000fd5b5050505060018160040160006101000a81548160ff0219169083151502179055505050565b600080600360008473ffffffffffffffffffffffffffffffffffffffff1673ffffffffffffffffffffffffffffffffffffffff16815260200190815260200160002060009054906101000a900473ffffffffffffffffffffffffffffffffffffffff16905060008173ffffffffffffffffffffffffffffffffffffffff1663feaf968c6040518163ffffffff1660e01b815260040160a060405180830381865afa158015611157573d6000803e3d6000fd5b505050506040513d601f19601f8201168201806040525081019061117b91906124bc565b5050509150508092505050919050565b600260009054906101000a900473ffffffffffffffffffffffffffffffffffffffff1681565b60015481565b7f000000000000000000000000000000000000000000000000000000000000000073ffffffffffffffffffffffffffffffffffffffff163073ffffffffffffffffffffffffffffffffffffffff16148061126457507f000000000000000000000000000000000000000000000000000000000000000073ffffffffffffffffffffffffffffffffffffffff1661124b611529565b73ffffffffffffffffffffffffffffffffffffffff1614155b1561129b576040517fe07c8dba00000000000000000000000000000000000000000000000000000000815260040160405180910390fd5b565b6112dc6040518060400160405280601581526020017f617574686f72697a65207570677261646520746f3a000000000000000000000081525082611580565b600260009054906101000a900473ffffffffffffffffffffffffffffffffffffffff1673ffffffffffffffffffffffffffffffffffffffff163373ffffffffffffffffffffffffffffffffffffffff161461136c576040517f08c379a000000000000000000000000000000000000000000000000000000000815260040161136390612583565b60405180910390fd5b50565b8173ffffffffffffffffffffffffffffffffffffffff166352d1902d6040518163ffffffff1660e01b8152600401602060405180830381865afa9250505080156113d757506040513d601f19601f820116820180604052508101906113d491906125cf565b60015b61141857816040517f4c9c8ce300000000000000000000000000000000000000000000000000000000815260040161140f9190611f6b565b60405180910390fd5b7f360894a13ba1a3210667c828492db98dca3e2076cc3735a920a3ca505d382bbc60001b811461147f57806040517faa1d49a40000000000000000000000000000000000000000000000000000000081526004016114769190611c2b565b60405180910390fd5b611489838361161c565b505050565b7f000000000000000000000000000000000000000000000000000000000000000073ffffffffffffffffffffffffffffffffffffffff163073ffffffffffffffffffffffffffffffffffffffff1614611513576040517fe07c8dba00000000000000000000000000000000000000000000000000000000815260040160405180910390fd5b565b60008061152061168f565b90508091505090565b60006115577f360894a13ba1a3210667c828492db98dca3e2076cc3735a920a3ca505d382bbc60001b6116ba565b60000160009054906101000a900473ffffffffffffffffffffffffffffffffffffffff16905090565b61161882826040516024016115969291906125fc565b6040516020818303038152906040527f319af333000000000000000000000000000000000000000000000000000000007bffffffffffffffffffffffffffffffffffffffffffffffffffffffff19166020820180517bffffffffffffffffffffffffffffffffffffffffffffffffffffffff83818316178352505050506116c4565b5050565b611625826116de565b8173ffffffffffffffffffffffffffffffffffffffff167fbc7cd75a20ee27fd9adebab32041f755214dbc6bffa90cc0225b39da2e5c2d3b60405160405180910390a26000815111156116825761167c82826117ab565b5061168b565b61168a61182f565b5b5050565b60007ff0c57e16840df040f15088dc2f81fe391c3923bec73e23a9662efc9c229c6a0060001b905090565b6000819050919050565b6116db816116d361186c61188d565b63ffffffff16565b50565b60008173ffffffffffffffffffffffffffffffffffffffff163b0361173a57806040517f4c9c8ce30000000000000000000000000000000000000000000000000000000081526004016117319190611f6b565b60405180910390fd5b806117677f360894a13ba1a3210667c828492db98dca3e2076cc3735a920a3ca505d382bbc60001b6116ba565b60000160006101000a81548173ffffffffffffffffffffffffffffffffffffffff021916908373ffffffffffffffffffffffffffffffffffffffff16021790555050565b60606000808473ffffffffffffffffffffffffffffffffffffffff16846040516117d59190612673565b600060405180830381855af49150503d8060008114611810576040519150601f19603f3d011682016040523d82523d6000602084013e611815565b606091505b5091509150611825858383611898565b9250505092915050565b600034111561186a576040517fb398979f00000000000000000000000000000000000000000000000000000000815260040160405180910390fd5b565b60006a636f6e736f6c652e6c6f679050600080835160208501845afa505050565b61196b819050919050565b6060826118ad576118a882611927565b61191f565b600082511480156118d5575060008473ffffffffffffffffffffffffffffffffffffffff163b145b1561191757836040517f9996b31500000000000000000000000000000000000000000000000000000000815260040161190e9190611f6b565b60405180910390fd5b819050611920565b5b9392505050565b60008151111561193957805160208201fd5b6040517fd6bda27500000000000000000000000000000000000000000000000000000000815260040160405180910390fd5b61197361268a565b565b6000604051905090565b600080fd5b600080fd5b6000819050919050565b61199c81611989565b81146119a757600080fd5b50565b6000813590506119b981611993565b92915050565b600073ffffffffffffffffffffffffffffffffffffffff82169050919050565b60006119ea826119bf565b9050919050565b6119fa816119df565b8114611a0557600080fd5b50565b600081359050611a17816119f1565b92915050565b600080600060608486031215611a3657611a3561197f565b5b6000611a44868287016119aa565b9350506020611a55868287016119aa565b9250506040611a6686828701611a08565b9150509250925092565b600080fd5b600080fd5b6000601f19601f8301169050919050565b7f4e487b7100000000000000000000000000000000000000000000000000000000600052604160045260246000fd5b611ac382611a7a565b810181811067ffffffffffffffff82111715611ae257611ae1611a8b565b5b80604052505050565b6000611af5611975565b9050611b018282611aba565b919050565b600067ffffffffffffffff821115611b2157611b20611a8b565b5b611b2a82611a7a565b9050602081019050919050565b82818337600083830152505050565b6000611b59611b5484611b06565b611aeb565b905082815260208101848484011115611b7557611b74611a75565b5b611b80848285611b37565b509392505050565b600082601f830112611b9d57611b9c611a70565b5b8135611bad848260208601611b46565b91505092915050565b60008060408385031215611bcd57611bcc61197f565b5b6000611bdb85828601611a08565b925050602083013567ffffffffffffffff811115611bfc57611bfb611984565b5b611c0885828601611b88565b9150509250929050565b6000819050919050565b611c2581611c12565b82525050565b6000602082019050611c406000830184611c1c565b92915050565b600060208284031215611c5c57611c5b61197f565b5b6000611c6a848285016119aa565b91505092915050565b611c7c816119df565b82525050565b611c8b81611989565b82525050565b60008115159050919050565b611ca681611c91565b82525050565b600061014082019050611cc2600083018d611c73565b611ccf602083018c611c82565b611cdc604083018b611c82565b611ce9606083018a611c82565b611cf66080830189611c9d565b611d0360a0830188611c73565b611d1060c0830187611c82565b611d1d60e0830186611c73565b611d2b610100830185611c82565b611d39610120830184611c73565b9b9a5050505050505050505050565b60008060408385031215611d5f57611d5e61197f565b5b6000611d6d85828601611a08565b9250506020611d7e85828601611a08565b9150509250929050565b600060208284031215611d9e57611d9d61197f565b5b6000611dac84828501611a08565b91505092915050565b6000819050919050565b6000611dda611dd5611dd0846119bf565b611db5565b6119bf565b9050919050565b6000611dec82611dbf565b9050919050565b6000611dfe82611de1565b9050919050565b611e0e81611df3565b82525050565b6000602082019050611e296000830184611e05565b92915050565b600081519050919050565b600082825260208201905092915050565b60005b83811015611e69578082015181840152602081019050611e4e565b60008484015250505050565b6000611e8082611e2f565b611e8a8185611e3a565b9350611e9a818560208601611e4b565b611ea381611a7a565b840191505092915050565b60006020820190508181036000830152611ec88184611e75565b905092915050565b60008060008060808587031215611eea57611ee961197f565b5b6000611ef8878288016119aa565b9450506020611f09878288016119aa565b9350506040611f1a87828801611a08565b9250506060611f2b878288016119aa565b91505092959194509250565b6000819050919050565b611f4a81611f37565b82525050565b6000602082019050611f656000830184611f41565b92915050565b6000602082019050611f806000830184611c73565b92915050565b6000602082019050611f9b6000830184611c82565b92915050565b7f4e487b7100000000000000000000000000000000000000000000000000000000600052601160045260246000fd5b6000611fdb82611989565b9150611fe683611989565b9250828201905080821115611ffe57611ffd611fa1565b5b92915050565b7f61756374696f6e20656e64656400000000000000000000000000000000000000600082015250565b600061203a600d83611e3a565b915061204582612004565b602082019050919050565b600060208201905081810360008301526120698161202d565b9050919050565b600061207b82611989565b915061208683611989565b925082820261209481611989565b915082820484148315176120ab576120aa611fa1565b5b5092915050565b7f626964206d757374206265203e3d207374617274507269636500000000000000600082015250565b60006120e8601983611e3a565b91506120f3826120b2565b602082019050919050565b60006020820190508181036000830152612117816120db565b9050919050565b60006060820190506121336000830186611c73565b6121406020830185611c73565b61214d6040830184611c82565b949350505050565b61215e81611c91565b811461216957600080fd5b50565b60008151905061217b81612155565b92915050565b6000602082840312156121975761219661197f565b5b60006121a58482850161216c565b91505092915050565b60006040820190506121c36000830185611c73565b6121d06020830184611c82565b9392505050565b6000819050919050565b600067ffffffffffffffff82169050919050565b600061221061220b612206846121d7565b611db5565b6121e1565b9050919050565b612220816121f5565b82525050565b600060208201905061223b6000830184612217565b92915050565b7f6f6e6c792061646d696e00000000000000000000000000000000000000000000600082015250565b6000612277600a83611e3a565b915061228282612241565b602082019050919050565b600060208201905081810360008301526122a68161226a565b9050919050565b7f6475726174696f6e206d757374206265203e203130207365636f6e6473000000600082015250565b60006122e3601d83611e3a565b91506122ee826122ad565b602082019050919050565b60006020820190508181036000830152612312816122d6565b9050919050565b7f73746172745072696365206d757374206265203e203000000000000000000000600082015250565b600061234f601683611e3a565b915061235a82612319565b602082019050919050565b6000602082019050818103600083015261237e81612342565b9050919050565b600061239082611989565b91507fffffffffffffffffffffffffffffffffffffffffffffffffffffffffffffffff82036123c2576123c1611fa1565b5b600182019050919050565b7f61756374696f6e206e6f7420656e646564000000000000000000000000000000600082015250565b6000612403601183611e3a565b915061240e826123cd565b602082019050919050565b60006020820190508181036000830152612432816123f6565b9050919050565b600069ffffffffffffffffffff82169050919050565b61245881612439565b811461246357600080fd5b50565b6000815190506124758161244f565b92915050565b61248481611f37565b811461248f57600080fd5b50565b6000815190506124a18161247b565b92915050565b6000815190506124b681611993565b92915050565b600080600080600060a086880312156124d8576124d761197f565b5b60006124e688828901612466565b95505060206124f788828901612492565b9450506040612508888289016124a7565b9350506060612519888289016124a7565b925050608061252a88828901612466565b9150509295509295909350565b7f6f6e6c792061646d696e2063616e207570677261646500000000000000000000600082015250565b600061256d601683611e3a565b915061257882612537565b602082019050919050565b6000602082019050818103600083015261259c81612560565b9050919050565b6125ac81611c12565b81146125b757600080fd5b50565b6000815190506125c9816125a3565b92915050565b6000602082840312156125e5576125e461197f565b5b60006125f3848285016125ba565b91505092915050565b600060408201905081810360008301526126168185611e75565b90506126256020830184611c73565b9392505050565b600081519050919050565b600081905092915050565b600061264d8261262c565b6126578185612637565b9350612667818560208601611e4b565b80840191505092915050565b600061267f8284612642565b915081905092915050565b7f4e487b7100000000000000000000000000000000000000000000000000000000600052605160045260246000fdfea2646970667358221220793288d211610a69d239805860f8da14ba900c36ffd7d9d3405508499b22402c64736f6c634300081c0033",
  "linkReferences": {},
  "deployedLinkReferences": {}
}