{
	"data": {
		"bytecode": {
			"linkReferences": {},
			"object": "608060405273690b9a9e9aa1c9db991c7721a92d351db4fac9905f5f6101000a81548173ffffffffffffffffffffffffffffffffffffffff021916908373ffffffffffffffffffffffffffffffffffffffff16021790555073690b9a9e9aa1c9db991c7721a92d351db4fac99060015f6101000a81548173ffffffffffffffffffffffffffffffffffffffff021916908373ffffffffffffffffffffffffffffffffffffffff16021790555034801560b5575f5ffd5b5060f9806100c25f395ff3fe6080604052348015600e575f5ffd5b50600436106030575f3560e01c806312065fe0146034578063960e80b714604e575b5f5ffd5b603a6056565b6040516045919060ac565b60405180910390f35b60546094565b005b5f5f5f9054906101000a900473ffffffffffffffffffffffffffffffffffffffff1673ffffffffffffffffffffffffffffffffffffffff1631905090565b565b5f819050919050565b60a6816096565b82525050565b5f60208201905060bd5f830184609f565b9291505056fea264697066735822122000824ee24d0ebf56794977bab54fbf467f4a2ab9f1fe259744fe90c1d709374d64736f6c634300081e0033",
			"opcodes": "PUSH1 0x80 PUSH1 0x40 MSTORE PUSH20 0x690B9A9E9AA1C9DB991C7721A92D351DB4FAC990 PUSH0 PUSH0 PUSH2 0x100 EXP DUP2 SLOAD DUP2 PUSH20 0xFFFFFFFFFFFFFFFFFFFFFFFFFFFFFFFFFFFFFFFF MUL NOT AND SWAP1 DUP4 PUSH20 0xFFFFFFFFFFFFFFFFFFFFFFFFFFFFFFFFFFFFFFFF AND MUL OR SWAP1 SSTORE POP PUSH20 0x690B9A9E9AA1C9DB991C7721A92D351DB4FAC990 PUSH1 0x1 PUSH0 PUSH2 0x100 EXP DUP2 SLOAD DUP2 PUSH20 0xFFFFFFFFFFFFFFFFFFFFFFFFFFFFFFFFFFFFFFFF MUL NOT AND SWAP1 DUP4 PUSH20 0xFFFFFFFFFFFFFFFFFFFFFFFFFFFFFFFFFFFFFFFF AND MUL OR SWAP1 SSTORE POP CALLVALUE DUP1 ISZERO PUSH1 0xB5 JUMPI PUSH0 PUSH0 REVERT JUMPDEST POP PUSH1 0xF9 DUP1 PUSH2 0xC2 PUSH0 CODECOPY PUSH0 RETURN INVALID PUSH1 0x80 PUSH1 0x40 MSTORE CALLVALUE DUP1 ISZERO PUSH1 0xE JUMPI PUSH0 PUSH0 REVERT JUMPDEST POP PUSH1 0x4 CALLDATASIZE LT PUSH1 0x30 JUMPI PUSH0 CALLDATALOAD PUSH1 0xE0 SHR DUP1 PUSH4 0x12065FE0 EQ PUSH1 0x34 JUMPI DUP1 PUSH4 0x960E80B7 EQ PUSH1 0x4E JUMPI JUMPDEST PUSH0 PUSH0 REVERT JUMPDEST PUSH1 0x3A PUSH1 0x56 JUMP JUMPDEST PUSH1 0x40 MLOAD PUSH1 0x45 SWAP2 SWAP1 PUSH1 0xAC JUMP JUMPDEST PUSH1 0x40 MLOAD DUP1 SWAP2 SUB SWAP1 RETURN JUMPDEST PUSH1 0x54 PUSH1 0x94 JUMP JUMPDEST STOP JUMPDEST PUSH0 PUSH0 PUSH0 SWAP1 SLOAD SWAP1 PUSH2 0x100 EXP SWAP1 DIV PUSH20 0xFFFFFFFFFFFFFFFFFFFFFFFFFFFFFFFFFFFFFFFF AND PUSH20 0xFFFFFFFFFFFFFFFFFFFFFFFFFFFFFFFFFFFFFFFF AND BALANCE SWAP1 POP SWAP1 JUMP JUMPDEST JUMP JUMPDEST PUSH0 DUP2 SWAP1 POP SWAP2 SWAP1 POP JUMP JUMPDEST PUSH1 0xA6 DUP2 PUSH1 0x96 JUMP JUMPDEST DUP3 MSTORE POP POP JUMP JUMPDEST PUSH0 PUSH1 0x20 DUP3 ADD SWAP1 POP PUSH1 0xBD PUSH0 DUP4 ADD DUP5 PUSH1 0x9F JUMP JUMPDEST SWAP3 SWAP2 POP POP JUMP INVALID LOG2 PUSH5 0x6970667358 0x22 SLT KECCAK256 STOP DUP3 0x4E 0xE2 0x4D 0xE 0xBF JUMP PUSH26 0x4977BAB54FBF467F4A2AB9F1FE259744FE90C1D709374D64736F PUSH13 0x634300081E0033000000000000 "
		},
		"gasEstimates": {
			"creation": {
				"codeDepositCost": "49800",
				"executionCost": "48628",
				"totalCost": "98428"
			},
			"external": {
				"getBalance()": "5050",
				"trans()": "143"
			}
		},
		"methodIdentifiers": {
			"getBalance()": "12065fe0",
			"trans()": "960e80b7"
		}
	},
	"abi": [
		{
			"inputs": [],
			"name": "getBalance",
			"outputs": [
				{
					"internalType": "uint256",
					"name": "",
					"type": "uint256"
				}
			],
			"stateMutability": "view",
			"type": "function"
		},
		{
			"inputs": [],
			"name": "trans",
			"outputs": [],
			"stateMutability": "nonpayable",
			"type": "function"
		}
	]
}