{
	"data": {
		"bytecode": {
			"linkReferences": {},
			"object": "6080604052348015600e575f5ffd5b50607e80601a5f395ff3fe6080604052348015600e575f5ffd5b50600436106030575f3560e01c8063c2985578146034578063d38955e814603c575b5f5ffd5b603a6044565b005b60426046565b005b565b56fea2646970667358221220f8d84d80ba27b99b9e582eb3f77a7866fd3ed9077cb3a5f759618c9c29f8dfce64736f6c634300081e0033",
			"opcodes": "PUSH1 0x80 PUSH1 0x40 MSTORE CALLVALUE DUP1 ISZERO PUSH1 0xE JUMPI PUSH0 PUSH0 REVERT JUMPDEST POP PUSH1 0x7E DUP1 PUSH1 0x1A PUSH0 CODECOPY PUSH0 RETURN INVALID PUSH1 0x80 PUSH1 0x40 MSTORE CALLVALUE DUP1 ISZERO PUSH1 0xE JUMPI PUSH0 PUSH0 REVERT JUMPDEST POP PUSH1 0x4 CALLDATASIZE LT PUSH1 0x30 JUMPI PUSH0 CALLDATALOAD PUSH1 0xE0 SHR DUP1 PUSH4 0xC2985578 EQ PUSH1 0x34 JUMPI DUP1 PUSH4 0xD38955E8 EQ PUSH1 0x3C JUMPI JUMPDEST PUSH0 PUSH0 REVERT JUMPDEST PUSH1 0x3A PUSH1 0x44 JUMP JUMPDEST STOP JUMPDEST PUSH1 0x42 PUSH1 0x46 JUMP JUMPDEST STOP JUMPDEST JUMP JUMPDEST JUMP INVALID LOG2 PUSH5 0x6970667358 0x22 SLT KECCAK256 EXTCALL 0xD8 0x4D DUP1 0xBA 0x27 0xB9 SWAP12 SWAP15 PC 0x2E 0xB3 0xF7 PUSH27 0x7866FD3ED9077CB3A5F759618C9C29F8DFCE64736F6C634300081E STOP CALLER "
		},
		"gasEstimates": {
			"creation": {
				"codeDepositCost": "25200",
				"executionCost": "73",
				"totalCost": "25273"
			},
			"external": {
				"foo()": "121",
				"foo1()": "143"
			}
		},
		"methodIdentifiers": {
			"foo()": "c2985578",
			"foo1()": "d38955e8"
		}
	},
	"abi": [
		{
			"inputs": [],
			"name": "foo",
			"outputs": [],
			"stateMutability": "nonpayable",
			"type": "function"
		},
		{
			"inputs": [],
			"name": "foo1",
			"outputs": [],
			"stateMutability": "nonpayable",
			"type": "function"
		}
	]
}