{
	"data": {
		"bytecode": {
			"linkReferences": {},
			"object": "6080604052348015600e575f5ffd5b506103e78061001c5f395ff3fe608060405234801561000f575f5ffd5b5060043610610034575f3560e01c8063a1c7177614610038578063d3d7540014610068575b5f5ffd5b610052600480360381019061004d9190610160565b610098565b60405161005f91906101ad565b60405180910390f35b610082600480360381019061007d91906101fd565b6100e4565b60405161008f9190610237565b60405180910390f35b5f5f5f90505f8490505b838112156100d9576002846100b791906102aa565b8112156100d95780826100ca9190610312565b915080806001019150506100a2565b508091505092915050565b5f5f5f90505f600190505b8361ffff168161ffff161161011f57808261010a9190610353565b9150808061011790610388565b9150506100ef565b8192505050919050565b5f5ffd5b5f819050919050565b61013f8161012d565b8114610149575f5ffd5b50565b5f8135905061015a81610136565b92915050565b5f5f6040838503121561017657610175610129565b5b5f6101838582860161014c565b92505060206101948582860161014c565b9150509250929050565b6101a78161012d565b82525050565b5f6020820190506101c05f83018461019e565b92915050565b5f61ffff82169050919050565b6101dc816101c6565b81146101e6575f5ffd5b50565b5f813590506101f7816101d3565b92915050565b5f6020828403121561021257610211610129565b5b5f61021f848285016101e9565b91505092915050565b610231816101c6565b82525050565b5f60208201905061024a5f830184610228565b92915050565b7f4e487b71000000000000000000000000000000000000000000000000000000005f52601260045260245ffd5b7f4e487b71000000000000000000000000000000000000000000000000000000005f52601160045260245ffd5b5f6102b48261012d565b91506102bf8361012d565b9250826102cf576102ce610250565b5b60015f0383147f8000000000000000000000000000000000000000000000000000000000000000831416156103075761030661027d565b5b828205905092915050565b5f61031c8261012d565b91506103278361012d565b92508282019050828112155f8312168382125f84121516171561034d5761034c61027d565b5b92915050565b5f61035d826101c6565b9150610368836101c6565b9250828201905061ffff8111156103825761038161027d565b5b92915050565b5f610392826101c6565b915061ffff82036103a6576103a561027d565b5b60018201905091905056fea26469706673582212200692dc01ca96e7245785db5749023ac2f56c45f2c966fdb09533c2506a2ac39764736f6c634300081e0033",
			"opcodes": "PUSH1 0x80 PUSH1 0x40 MSTORE CALLVALUE DUP1 ISZERO PUSH1 0xE JUMPI PUSH0 PUSH0 REVERT JUMPDEST POP PUSH2 0x3E7 DUP1 PUSH2 0x1C PUSH0 CODECOPY PUSH0 RETURN INVALID PUSH1 0x80 PUSH1 0x40 MSTORE CALLVALUE DUP1 ISZERO PUSH2 0xF JUMPI PUSH0 PUSH0 REVERT JUMPDEST POP PUSH1 0x4 CALLDATASIZE LT PUSH2 0x34 JUMPI PUSH0 CALLDATALOAD PUSH1 0xE0 SHR DUP1 PUSH4 0xA1C71776 EQ PUSH2 0x38 JUMPI DUP1 PUSH4 0xD3D75400 EQ PUSH2 0x68 JUMPI JUMPDEST PUSH0 PUSH0 REVERT JUMPDEST PUSH2 0x52 PUSH1 0x4 DUP1 CALLDATASIZE SUB DUP2 ADD SWAP1 PUSH2 0x4D SWAP2 SWAP1 PUSH2 0x160 JUMP JUMPDEST PUSH2 0x98 JUMP JUMPDEST PUSH1 0x40 MLOAD PUSH2 0x5F SWAP2 SWAP1 PUSH2 0x1AD JUMP JUMPDEST PUSH1 0x40 MLOAD DUP1 SWAP2 SUB SWAP1 RETURN JUMPDEST PUSH2 0x82 PUSH1 0x4 DUP1 CALLDATASIZE SUB DUP2 ADD SWAP1 PUSH2 0x7D SWAP2 SWAP1 PUSH2 0x1FD JUMP JUMPDEST PUSH2 0xE4 JUMP JUMPDEST PUSH1 0x40 MLOAD PUSH2 0x8F SWAP2 SWAP1 PUSH2 0x237 JUMP JUMPDEST PUSH1 0x40 MLOAD DUP1 SWAP2 SUB SWAP1 RETURN JUMPDEST PUSH0 PUSH0 PUSH0 SWAP1 POP PUSH0 DUP5 SWAP1 POP JUMPDEST DUP4 DUP2 SLT ISZERO PUSH2 0xD9 JUMPI PUSH1 0x2 DUP5 PUSH2 0xB7 SWAP2 SWAP1 PUSH2 0x2AA JUMP JUMPDEST DUP2 SLT ISZERO PUSH2 0xD9 JUMPI DUP1 DUP3 PUSH2 0xCA SWAP2 SWAP1 PUSH2 0x312 JUMP JUMPDEST SWAP2 POP DUP1 DUP1 PUSH1 0x1 ADD SWAP2 POP POP PUSH2 0xA2 JUMP JUMPDEST POP DUP1 SWAP2 POP POP SWAP3 SWAP2 POP POP JUMP JUMPDEST PUSH0 PUSH0 PUSH0 SWAP1 POP PUSH0 PUSH1 0x1 SWAP1 POP JUMPDEST DUP4 PUSH2 0xFFFF AND DUP2 PUSH2 0xFFFF AND GT PUSH2 0x11F JUMPI DUP1 DUP3 PUSH2 0x10A SWAP2 SWAP1 PUSH2 0x353 JUMP JUMPDEST SWAP2 POP DUP1 DUP1 PUSH2 0x117 SWAP1 PUSH2 0x388 JUMP JUMPDEST SWAP2 POP POP PUSH2 0xEF JUMP JUMPDEST DUP2 SWAP3 POP POP POP SWAP2 SWAP1 POP JUMP JUMPDEST PUSH0 PUSH0 REVERT JUMPDEST PUSH0 DUP2 SWAP1 POP SWAP2 SWAP1 POP JUMP JUMPDEST PUSH2 0x13F DUP2 PUSH2 0x12D JUMP JUMPDEST DUP2 EQ PUSH2 0x149 JUMPI PUSH0 PUSH0 REVERT JUMPDEST POP JUMP JUMPDEST PUSH0 DUP2 CALLDATALOAD SWAP1 POP PUSH2 0x15A DUP2 PUSH2 0x136 JUMP JUMPDEST SWAP3 SWAP2 POP POP JUMP JUMPDEST PUSH0 PUSH0 PUSH1 0x40 DUP4 DUP6 SUB SLT ISZERO PUSH2 0x176 JUMPI PUSH2 0x175 PUSH2 0x129 JUMP JUMPDEST JUMPDEST PUSH0 PUSH2 0x183 DUP6 DUP3 DUP7 ADD PUSH2 0x14C JUMP JUMPDEST SWAP3 POP POP PUSH1 0x20 PUSH2 0x194 DUP6 DUP3 DUP7 ADD PUSH2 0x14C JUMP JUMPDEST SWAP2 POP POP SWAP3 POP SWAP3 SWAP1 POP JUMP JUMPDEST PUSH2 0x1A7 DUP2 PUSH2 0x12D JUMP JUMPDEST DUP3 MSTORE POP POP JUMP JUMPDEST PUSH0 PUSH1 0x20 DUP3 ADD SWAP1 POP PUSH2 0x1C0 PUSH0 DUP4 ADD DUP5 PUSH2 0x19E JUMP JUMPDEST SWAP3 SWAP2 POP POP JUMP JUMPDEST PUSH0 PUSH2 0xFFFF DUP3 AND SWAP1 POP SWAP2 SWAP1 POP JUMP JUMPDEST PUSH2 0x1DC DUP2 PUSH2 0x1C6 JUMP JUMPDEST DUP2 EQ PUSH2 0x1E6 JUMPI PUSH0 PUSH0 REVERT JUMPDEST POP JUMP JUMPDEST PUSH0 DUP2 CALLDATALOAD SWAP1 POP PUSH2 0x1F7 DUP2 PUSH2 0x1D3 JUMP JUMPDEST SWAP3 SWAP2 POP POP JUMP JUMPDEST PUSH0 PUSH1 0x20 DUP3 DUP5 SUB SLT ISZERO PUSH2 0x212 JUMPI PUSH2 0x211 PUSH2 0x129 JUMP JUMPDEST JUMPDEST PUSH0 PUSH2 0x21F DUP5 DUP3 DUP6 ADD PUSH2 0x1E9 JUMP JUMPDEST SWAP2 POP POP SWAP3 SWAP2 POP POP JUMP JUMPDEST PUSH2 0x231 DUP2 PUSH2 0x1C6 JUMP JUMPDEST DUP3 MSTORE POP POP JUMP JUMPDEST PUSH0 PUSH1 0x20 DUP3 ADD SWAP1 POP PUSH2 0x24A PUSH0 DUP4 ADD DUP5 PUSH2 0x228 JUMP JUMPDEST SWAP3 SWAP2 POP POP JUMP JUMPDEST PUSH32 0x4E487B7100000000000000000000000000000000000000000000000000000000 PUSH0 MSTORE PUSH1 0x12 PUSH1 0x4 MSTORE PUSH1 0x24 PUSH0 REVERT JUMPDEST PUSH32 0x4E487B7100000000000000000000000000000000000000000000000000000000 PUSH0 MSTORE PUSH1 0x11 PUSH1 0x4 MSTORE PUSH1 0x24 PUSH0 REVERT JUMPDEST PUSH0 PUSH2 0x2B4 DUP3 PUSH2 0x12D JUMP JUMPDEST SWAP2 POP PUSH2 0x2BF DUP4 PUSH2 0x12D JUMP JUMPDEST SWAP3 POP DUP3 PUSH2 0x2CF JUMPI PUSH2 0x2CE PUSH2 0x250 JUMP JUMPDEST JUMPDEST PUSH1 0x1 PUSH0 SUB DUP4 EQ PUSH32 0x8000000000000000000000000000000000000000000000000000000000000000 DUP4 EQ AND ISZERO PUSH2 0x307 JUMPI PUSH2 0x306 PUSH2 0x27D JUMP JUMPDEST JUMPDEST DUP3 DUP3 SDIV SWAP1 POP SWAP3 SWAP2 POP POP JUMP JUMPDEST PUSH0 PUSH2 0x31C DUP3 PUSH2 0x12D JUMP JUMPDEST SWAP2 POP PUSH2 0x327 DUP4 PUSH2 0x12D JUMP JUMPDEST SWAP3 POP DUP3 DUP3 ADD SWAP1 POP DUP3 DUP2 SLT ISZERO PUSH0 DUP4 SLT AND DUP4 DUP3 SLT PUSH0 DUP5 SLT ISZERO AND OR ISZERO PUSH2 0x34D JUMPI PUSH2 0x34C PUSH2 0x27D JUMP JUMPDEST JUMPDEST SWAP3 SWAP2 POP POP JUMP JUMPDEST PUSH0 PUSH2 0x35D DUP3 PUSH2 0x1C6 JUMP JUMPDEST SWAP2 POP PUSH2 0x368 DUP4 PUSH2 0x1C6 JUMP JUMPDEST SWAP3 POP DUP3 DUP3 ADD SWAP1 POP PUSH2 0xFFFF DUP2 GT ISZERO PUSH2 0x382 JUMPI PUSH2 0x381 PUSH2 0x27D JUMP JUMPDEST JUMPDEST SWAP3 SWAP2 POP POP JUMP JUMPDEST PUSH0 PUSH2 0x392 DUP3 PUSH2 0x1C6 JUMP JUMPDEST SWAP2 POP PUSH2 0xFFFF DUP3 SUB PUSH2 0x3A6 JUMPI PUSH2 0x3A5 PUSH2 0x27D JUMP JUMPDEST JUMPDEST PUSH1 0x1 DUP3 ADD SWAP1 POP SWAP2 SWAP1 POP JUMP INVALID LOG2 PUSH5 0x6970667358 0x22 SLT KECCAK256 MOD SWAP3 0xDC ADD 0xCA SWAP7 SWAPN 0x24 JUMPI DUP6 0xDB JUMPI BLOBHASH MUL GASPRICE 0xC2 CREATE2 PUSH13 0x45F2C966FDB09533C2506A2AC3 SWAP8 PUSH5 0x736F6C6343 STOP ADDMOD 0x1E STOP CALLER "
		},
		"gasEstimates": {
			"creation": {
				"codeDepositCost": "199800",
				"executionCost": "243",
				"totalCost": "200043"
			},
			"external": {
				"loop(int256,int256)": "infinite",
				"sumToN(uint16)": "infinite"
			}
		},
		"methodIdentifiers": {
			"loop(int256,int256)": "a1c71776",
			"sumToN(uint16)": "d3d75400"
		}
	},
	"abi": [
		{
			"inputs": [
				{
					"internalType": "int256",
					"name": "initial",
					"type": "int256"
				},
				{
					"internalType": "int256",
					"name": "end",
					"type": "int256"
				}
			],
			"name": "loop",
			"outputs": [
				{
					"internalType": "int256",
					"name": "",
					"type": "int256"
				}
			],
			"stateMutability": "pure",
			"type": "function"
		},
		{
			"inputs": [
				{
					"internalType": "uint16",
					"name": "n",
					"type": "uint16"
				}
			],
			"name": "sumToN",
			"outputs": [
				{
					"internalType": "uint16",
					"name": "",
					"type": "uint16"
				}
			],
			"stateMutability": "pure",
			"type": "function"
		}
	]
}