{
	"data": {
		"bytecode": {
			"linkReferences": {},
			"object": "608060405260405180604001604052806040518060400160405280600a81526020017f74657374207469746c65000000000000000000000000000000000000000000008152508152602001600a81525060025f820151815f019081610064919061037e565b5060208201518160010155505034801561007c575f5ffd5b5060405180604001604052806040518060400160405280600781526020017f6d7920626f6f6b00000000000000000000000000000000000000000000000000815250815260200160198152505f5f820151815f0190816100dc919061037e565b50602082015181600101559050506040518060400160405280600c81526020017f7072697661746520626f6f6b000000000000000000000000000000000000000081525060045f019081610130919061037e565b50600160046001018190555061044d565b5f81519050919050565b7f4e487b71000000000000000000000000000000000000000000000000000000005f52604160045260245ffd5b7f4e487b71000000000000000000000000000000000000000000000000000000005f52602260045260245ffd5b5f60028204905060018216806101bc57607f821691505b6020821081036101cf576101ce610178565b5b50919050565b5f819050815f5260205f209050919050565b5f6020601f8301049050919050565b5f82821b905092915050565b5f600883026102317fffffffffffffffffffffffffffffffffffffffffffffffffffffffffffffffff826101f6565b61023b86836101f6565b95508019841693508086168417925050509392505050565b5f819050919050565b5f819050919050565b5f61027f61027a61027584610253565b61025c565b610253565b9050919050565b5f819050919050565b61029883610265565b6102ac6102a482610286565b848454610202565b825550505050565b5f5f905090565b6102c36102b4565b6102ce81848461028f565b505050565b5b818110156102f1576102e65f826102bb565b6001810190506102d4565b5050565b601f82111561033657610307816101d5565b610310846101e7565b8101602085101561031f578190505b61033361032b856101e7565b8301826102d3565b50505b505050565b5f82821c905092915050565b5f6103565f198460080261033b565b1980831691505092915050565b5f61036e8383610347565b9150826002028217905092915050565b61038782610141565b67ffffffffffffffff8111156103a05761039f61014b565b5b6103aa82546101a5565b6103b58282856102f5565b5f60209050601f8311600181146103e6575f84156103d4578287015190505b6103de8582610363565b865550610445565b601f1984166103f4866101d5565b5f5b8281101561041b578489015182556001820191506020850194506020810190506103f6565b868310156104385784890151610434601f891682610347565b8355505b6001600288020188555050505b505050505050565b610be68061045a5f395ff3fe608060405234801561000f575f5ffd5b5060043610610055575f3560e01c806305a8da721461005957806307f5243c14610078578063912704f214610094578063ad8514c4146100b0578063e815fe1d146100e1575b5f5ffd5b610061610100565b60405161006f929190610539565b60405180910390f35b610092600480360381019061008d91906105fa565b610196565b005b6100ae60048036038101906100a99190610679565b61023e565b005b6100ca60048036038101906100c591906106c0565b610278565b6040516100d8929190610539565b60405180910390f35b6100e961032d565b6040516100f7929190610539565b60405180910390f35b5f805f01805461010f90610718565b80601f016020809104026020016040519081016040528092919081815260200182805461013b90610718565b80156101865780601f1061015d57610100808354040283529160200191610186565b820191905f5260205f20905b81548152906001019060200180831161016957829003601f168201915b5050505050908060010154905082565b5f604051806040016040528085858080601f0160208091040260200160405190810160405280939291908181526020018383808284375f81840152601f19601f8201169050808301925050505050505081526020018381525090506102386040518060400160405280601e81526020017f626f6f6b207469746c653a2025732c20626f6f6b2070726963653a2025640000815250825f015183602001516103c4565b50505050565b600681908060018154018082558091505060019003905f5260205f2090600202015f9091909190915081816102739190610b32565b505050565b60068181548110610287575f80fd5b905f5260205f2090600202015f91509050805f0180546102a690610718565b80601f01602080910402602001604051908101604052809291908181526020018280546102d290610718565b801561031d5780601f106102f45761010080835404028352916020019161031d565b820191905f5260205f20905b81548152906001019060200180831161030057829003601f168201915b5050505050908060010154905082565b6002805f01805461033d90610718565b80601f016020809104026020016040519081016040528092919081815260200182805461036990610718565b80156103b45780601f1061038b576101008083540402835291602001916103b4565b820191905f5260205f20905b81548152906001019060200180831161039757829003601f168201915b5050505050908060010154905082565b61045e8383836040516024016103dc93929190610b40565b6040516020818303038152906040527f5821efa1000000000000000000000000000000000000000000000000000000007bffffffffffffffffffffffffffffffffffffffffffffffffffffffff19166020820180517bffffffffffffffffffffffffffffffffffffffffffffffffffffffff8381831617835250505050610463565b505050565b61047a8161047261047d61049c565b63ffffffff16565b50565b5f6a636f6e736f6c652e6c6f6790505f5f835160208501845afa505050565b6104a7819050919050565b6104af610b83565b565b5f81519050919050565b5f82825260208201905092915050565b8281835e5f83830152505050565b5f601f19601f8301169050919050565b5f6104f3826104b1565b6104fd81856104bb565b935061050d8185602086016104cb565b610516816104d9565b840191505092915050565b5f819050919050565b61053381610521565b82525050565b5f6040820190508181035f83015261055181856104e9565b9050610560602083018461052a565b9392505050565b5f5ffd5b5f5ffd5b5f5ffd5b5f5ffd5b5f5ffd5b5f5f83601f8401126105905761058f61056f565b5b8235905067ffffffffffffffff8111156105ad576105ac610573565b5b6020830191508360018202830111156105c9576105c8610577565b5b9250929050565b6105d981610521565b81146105e3575f5ffd5b50565b5f813590506105f4816105d0565b92915050565b5f5f5f6040848603121561061157610610610567565b5b5f84013567ffffffffffffffff81111561062e5761062d61056b565b5b61063a8682870161057b565b9350935050602061064d868287016105e6565b9150509250925092565b5f5ffd5b5f604082840312156106705761066f610657565b5b81905092915050565b5f6020828403121561068e5761068d610567565b5b5f82013567ffffffffffffffff8111156106ab576106aa61056b565b5b6106b78482850161065b565b91505092915050565b5f602082840312156106d5576106d4610567565b5b5f6106e2848285016105e6565b91505092915050565b7f4e487b71000000000000000000000000000000000000000000000000000000005f52602260045260245ffd5b5f600282049050600182168061072f57607f821691505b602082108103610742576107416106eb565b5b50919050565b5f5ffd5b5f5ffd5b5f5ffd5b5f5f833560016020038436030381126107705761076f610748565b5b80840192508235915067ffffffffffffffff8211156107925761079161074c565b5b6020830192506001820236038313156107ae576107ad610750565b5b509250929050565b5f82905092915050565b7f4e487b71000000000000000000000000000000000000000000000000000000005f52604160045260245ffd5b5f819050815f5260205f209050919050565b5f6020601f8301049050919050565b5f82821b905092915050565b5f600883026108497fffffffffffffffffffffffffffffffffffffffffffffffffffffffffffffffff8261080e565b610853868361080e565b95508019841693508086168417925050509392505050565b5f819050919050565b5f61088e61088961088484610521565b61086b565b610521565b9050919050565b5f819050919050565b6108a783610874565b6108bb6108b382610895565b84845461081a565b825550505050565b5f5f905090565b6108d26108c3565b6108dd81848461089e565b505050565b5b81811015610900576108f55f826108ca565b6001810190506108e3565b5050565b601f82111561094557610916816107ed565b61091f846107ff565b8101602085101561092e578190505b61094261093a856107ff565b8301826108e2565b50505b505050565b5f82821c905092915050565b5f6109655f198460080261094a565b1980831691505092915050565b5f61097d8383610956565b9150826002028217905092915050565b61099783836107b6565b67ffffffffffffffff8111156109b0576109af6107c0565b5b6109ba8254610718565b6109c5828285610904565b5f601f8311600181146109f2575f84156109e0578287013590505b6109ea8582610972565b865550610a51565b601f198416610a00866107ed565b5f5b82811015610a2757848901358255600182019150602085019450602081019050610a02565b86831015610a445784890135610a40601f891682610956565b8355505b6001600288020188555050505b50505050505050565b610a6583838361098d565b505050565b5f8135610a76816105d0565b80915050919050565b5f815f1b9050919050565b5f7fffffffffffffffffffffffffffffffffffffffffffffffffffffffffffffffff610ab584610a7f565b9350801983169250808416831791505092915050565b610ad482610874565b610ae7610ae082610895565b8354610a8a565b8255505050565b5f81015f8301610afe8185610754565b610b09818386610a5a565b50505050600181016020830180610b1f81610a6a565b9050610b2b8184610acb565b5050505050565b610b3c8282610aee565b5050565b5f6060820190508181035f830152610b5881866104e9565b90508181036020830152610b6c81856104e9565b9050610b7b604083018461052a565b949350505050565b7f4e487b71000000000000000000000000000000000000000000000000000000005f52605160045260245ffdfea2646970667358221220af105a0a3f1b2635fb21c049d9b7388d93b9ab43b5407afeb8bf30d302f4697964736f6c634300081e0033",
			"opcodes": "PUSH1 0x80 PUSH1 0x40 MSTORE PUSH1 0x40 MLOAD DUP1 PUSH1 0x40 ADD PUSH1 0x40 MSTORE DUP1 PUSH1 0x40 MLOAD DUP1 PUSH1 0x40 ADD PUSH1 0x40 MSTORE DUP1 PUSH1 0xA DUP2 MSTORE PUSH1 0x20 ADD PUSH32 0x74657374207469746C6500000000000000000000000000000000000000000000 DUP2 MSTORE POP DUP2 MSTORE PUSH1 0x20 ADD PUSH1 0xA DUP2 MSTORE POP PUSH1 0x2 PUSH0 DUP3 ADD MLOAD DUP2 PUSH0 ADD SWAP1 DUP2 PUSH2 0x64 SWAP2 SWAP1 PUSH2 0x37E JUMP JUMPDEST POP PUSH1 0x20 DUP3 ADD MLOAD DUP2 PUSH1 0x1 ADD SSTORE POP POP CALLVALUE DUP1 ISZERO PUSH2 0x7C JUMPI PUSH0 PUSH0 REVERT JUMPDEST POP PUSH1 0x40 MLOAD DUP1 PUSH1 0x40 ADD PUSH1 0x40 MSTORE DUP1 PUSH1 0x40 MLOAD DUP1 PUSH1 0x40 ADD PUSH1 0x40 MSTORE DUP1 PUSH1 0x7 DUP2 MSTORE PUSH1 0x20 ADD PUSH32 0x6D7920626F6F6B00000000000000000000000000000000000000000000000000 DUP2 MSTORE POP DUP2 MSTORE PUSH1 0x20 ADD PUSH1 0x19 DUP2 MSTORE POP PUSH0 PUSH0 DUP3 ADD MLOAD DUP2 PUSH0 ADD SWAP1 DUP2 PUSH2 0xDC SWAP2 SWAP1 PUSH2 0x37E JUMP JUMPDEST POP PUSH1 0x20 DUP3 ADD MLOAD DUP2 PUSH1 0x1 ADD SSTORE SWAP1 POP POP PUSH1 0x40 MLOAD DUP1 PUSH1 0x40 ADD PUSH1 0x40 MSTORE DUP1 PUSH1 0xC DUP2 MSTORE PUSH1 0x20 ADD PUSH32 0x7072697661746520626F6F6B0000000000000000000000000000000000000000 DUP2 MSTORE POP PUSH1 0x4 PUSH0 ADD SWAP1 DUP2 PUSH2 0x130 SWAP2 SWAP1 PUSH2 0x37E JUMP JUMPDEST POP PUSH1 0x1 PUSH1 0x4 PUSH1 0x1 ADD DUP2 SWAP1 SSTORE POP PUSH2 0x44D JUMP JUMPDEST PUSH0 DUP2 MLOAD SWAP1 POP SWAP2 SWAP1 POP JUMP JUMPDEST PUSH32 0x4E487B7100000000000000000000000000000000000000000000000000000000 PUSH0 MSTORE PUSH1 0x41 PUSH1 0x4 MSTORE PUSH1 0x24 PUSH0 REVERT JUMPDEST PUSH32 0x4E487B7100000000000000000000000000000000000000000000000000000000 PUSH0 MSTORE PUSH1 0x22 PUSH1 0x4 MSTORE PUSH1 0x24 PUSH0 REVERT JUMPDEST PUSH0 PUSH1 0x2 DUP3 DIV SWAP1 POP PUSH1 0x1 DUP3 AND DUP1 PUSH2 0x1BC JUMPI PUSH1 0x7F DUP3 AND SWAP2 POP JUMPDEST PUSH1 0x20 DUP3 LT DUP2 SUB PUSH2 0x1CF JUMPI PUSH2 0x1CE PUSH2 0x178 JUMP JUMPDEST JUMPDEST POP SWAP2 SWAP1 POP JUMP JUMPDEST PUSH0 DUP2 SWAP1 POP DUP2 PUSH0 MSTORE PUSH1 0x20 PUSH0 KECCAK256 SWAP1 POP SWAP2 SWAP1 POP JUMP JUMPDEST PUSH0 PUSH1 0x20 PUSH1 0x1F DUP4 ADD DIV SWAP1 POP SWAP2 SWAP1 POP JUMP JUMPDEST PUSH0 DUP3 DUP3 SHL SWAP1 POP SWAP3 SWAP2 POP POP JUMP JUMPDEST PUSH0 PUSH1 0x8 DUP4 MUL PUSH2 0x231 PUSH32 0xFFFFFFFFFFFFFFFFFFFFFFFFFFFFFFFFFFFFFFFFFFFFFFFFFFFFFFFFFFFFFFFF DUP3 PUSH2 0x1F6 JUMP JUMPDEST PUSH2 0x23B DUP7 DUP4 PUSH2 0x1F6 JUMP JUMPDEST SWAP6 POP DUP1 NOT DUP5 AND SWAP4 POP DUP1 DUP7 AND DUP5 OR SWAP3 POP POP POP SWAP4 SWAP3 POP POP POP JUMP JUMPDEST PUSH0 DUP2 SWAP1 POP SWAP2 SWAP1 POP JUMP JUMPDEST PUSH0 DUP2 SWAP1 POP SWAP2 SWAP1 POP JUMP JUMPDEST PUSH0 PUSH2 0x27F PUSH2 0x27A PUSH2 0x275 DUP5 PUSH2 0x253 JUMP JUMPDEST PUSH2 0x25C JUMP JUMPDEST PUSH2 0x253 JUMP JUMPDEST SWAP1 POP SWAP2 SWAP1 POP JUMP JUMPDEST PUSH0 DUP2 SWAP1 POP SWAP2 SWAP1 POP JUMP JUMPDEST PUSH2 0x298 DUP4 PUSH2 0x265 JUMP JUMPDEST PUSH2 0x2AC PUSH2 0x2A4 DUP3 PUSH2 0x286 JUMP JUMPDEST DUP5 DUP5 SLOAD PUSH2 0x202 JUMP JUMPDEST DUP3 SSTORE POP POP POP POP JUMP JUMPDEST PUSH0 PUSH0 SWAP1 POP SWAP1 JUMP JUMPDEST PUSH2 0x2C3 PUSH2 0x2B4 JUMP JUMPDEST PUSH2 0x2CE DUP2 DUP5 DUP5 PUSH2 0x28F JUMP JUMPDEST POP POP POP JUMP JUMPDEST JUMPDEST DUP2 DUP2 LT ISZERO PUSH2 0x2F1 JUMPI PUSH2 0x2E6 PUSH0 DUP3 PUSH2 0x2BB JUMP JUMPDEST PUSH1 0x1 DUP2 ADD SWAP1 POP PUSH2 0x2D4 JUMP JUMPDEST POP POP JUMP JUMPDEST PUSH1 0x1F DUP3 GT ISZERO PUSH2 0x336 JUMPI PUSH2 0x307 DUP2 PUSH2 0x1D5 JUMP JUMPDEST PUSH2 0x310 DUP5 PUSH2 0x1E7 JUMP JUMPDEST DUP2 ADD PUSH1 0x20 DUP6 LT ISZERO PUSH2 0x31F JUMPI DUP2 SWAP1 POP JUMPDEST PUSH2 0x333 PUSH2 0x32B DUP6 PUSH2 0x1E7 JUMP JUMPDEST DUP4 ADD DUP3 PUSH2 0x2D3 JUMP JUMPDEST POP POP JUMPDEST POP POP POP JUMP JUMPDEST PUSH0 DUP3 DUP3 SHR SWAP1 POP SWAP3 SWAP2 POP POP JUMP JUMPDEST PUSH0 PUSH2 0x356 PUSH0 NOT DUP5 PUSH1 0x8 MUL PUSH2 0x33B JUMP JUMPDEST NOT DUP1 DUP4 AND SWAP2 POP POP SWAP3 SWAP2 POP POP JUMP JUMPDEST PUSH0 PUSH2 0x36E DUP4 DUP4 PUSH2 0x347 JUMP JUMPDEST SWAP2 POP DUP3 PUSH1 0x2 MUL DUP3 OR SWAP1 POP SWAP3 SWAP2 POP POP JUMP JUMPDEST PUSH2 0x387 DUP3 PUSH2 0x141 JUMP JUMPDEST PUSH8 0xFFFFFFFFFFFFFFFF DUP2 GT ISZERO PUSH2 0x3A0 JUMPI PUSH2 0x39F PUSH2 0x14B JUMP JUMPDEST JUMPDEST PUSH2 0x3AA DUP3 SLOAD PUSH2 0x1A5 JUMP JUMPDEST PUSH2 0x3B5 DUP3 DUP3 DUP6 PUSH2 0x2F5 JUMP JUMPDEST PUSH0 PUSH1 0x20 SWAP1 POP PUSH1 0x1F DUP4 GT PUSH1 0x1 DUP2 EQ PUSH2 0x3E6 JUMPI PUSH0 DUP5 ISZERO PUSH2 0x3D4 JUMPI DUP3 DUP8 ADD MLOAD SWAP1 POP JUMPDEST PUSH2 0x3DE DUP6 DUP3 PUSH2 0x363 JUMP JUMPDEST DUP7 SSTORE POP PUSH2 0x445 JUMP JUMPDEST PUSH1 0x1F NOT DUP5 AND PUSH2 0x3F4 DUP7 PUSH2 0x1D5 JUMP JUMPDEST PUSH0 JUMPDEST DUP3 DUP2 LT ISZERO PUSH2 0x41B JUMPI DUP5 DUP10 ADD MLOAD DUP3 SSTORE PUSH1 0x1 DUP3 ADD SWAP2 POP PUSH1 0x20 DUP6 ADD SWAP5 POP PUSH1 0x20 DUP2 ADD SWAP1 POP PUSH2 0x3F6 JUMP JUMPDEST DUP7 DUP4 LT ISZERO PUSH2 0x438 JUMPI DUP5 DUP10 ADD MLOAD PUSH2 0x434 PUSH1 0x1F DUP10 AND DUP3 PUSH2 0x347 JUMP JUMPDEST DUP4 SSTORE POP JUMPDEST PUSH1 0x1 PUSH1 0x2 DUP9 MUL ADD DUP9 SSTORE POP POP POP JUMPDEST POP POP POP POP POP POP JUMP JUMPDEST PUSH2 0xBE6 DUP1 PUSH2 0x45A PUSH0 CODECOPY PUSH0 RETURN INVALID PUSH1 0x80 PUSH1 0x40 MSTORE CALLVALUE DUP1 ISZERO PUSH2 0xF JUMPI PUSH0 PUSH0 REVERT JUMPDEST POP PUSH1 0x4 CALLDATASIZE LT PUSH2 0x55 JUMPI PUSH0 CALLDATALOAD PUSH1 0xE0 SHR DUP1 PUSH4 0x5A8DA72 EQ PUSH2 0x59 JUMPI DUP1 PUSH4 0x7F5243C EQ PUSH2 0x78 JUMPI DUP1 PUSH4 0x912704F2 EQ PUSH2 0x94 JUMPI DUP1 PUSH4 0xAD8514C4 EQ PUSH2 0xB0 JUMPI DUP1 PUSH4 0xE815FE1D EQ PUSH2 0xE1 JUMPI JUMPDEST PUSH0 PUSH0 REVERT JUMPDEST PUSH2 0x61 PUSH2 0x100 JUMP JUMPDEST PUSH1 0x40 MLOAD PUSH2 0x6F SWAP3 SWAP2 SWAP1 PUSH2 0x539 JUMP JUMPDEST PUSH1 0x40 MLOAD DUP1 SWAP2 SUB SWAP1 RETURN JUMPDEST PUSH2 0x92 PUSH1 0x4 DUP1 CALLDATASIZE SUB DUP2 ADD SWAP1 PUSH2 0x8D SWAP2 SWAP1 PUSH2 0x5FA JUMP JUMPDEST PUSH2 0x196 JUMP JUMPDEST STOP JUMPDEST PUSH2 0xAE PUSH1 0x4 DUP1 CALLDATASIZE SUB DUP2 ADD SWAP1 PUSH2 0xA9 SWAP2 SWAP1 PUSH2 0x679 JUMP JUMPDEST PUSH2 0x23E JUMP JUMPDEST STOP JUMPDEST PUSH2 0xCA PUSH1 0x4 DUP1 CALLDATASIZE SUB DUP2 ADD SWAP1 PUSH2 0xC5 SWAP2 SWAP1 PUSH2 0x6C0 JUMP JUMPDEST PUSH2 0x278 JUMP JUMPDEST PUSH1 0x40 MLOAD PUSH2 0xD8 SWAP3 SWAP2 SWAP1 PUSH2 0x539 JUMP JUMPDEST PUSH1 0x40 MLOAD DUP1 SWAP2 SUB SWAP1 RETURN JUMPDEST PUSH2 0xE9 PUSH2 0x32D JUMP JUMPDEST PUSH1 0x40 MLOAD PUSH2 0xF7 SWAP3 SWAP2 SWAP1 PUSH2 0x539 JUMP JUMPDEST PUSH1 0x40 MLOAD DUP1 SWAP2 SUB SWAP1 RETURN JUMPDEST PUSH0 DUP1 PUSH0 ADD DUP1 SLOAD PUSH2 0x10F SWAP1 PUSH2 0x718 JUMP JUMPDEST DUP1 PUSH1 0x1F ADD PUSH1 0x20 DUP1 SWAP2 DIV MUL PUSH1 0x20 ADD PUSH1 0x40 MLOAD SWAP1 DUP2 ADD PUSH1 0x40 MSTORE DUP1 SWAP3 SWAP2 SWAP1 DUP2 DUP2 MSTORE PUSH1 0x20 ADD DUP3 DUP1 SLOAD PUSH2 0x13B SWAP1 PUSH2 0x718 JUMP JUMPDEST DUP1 ISZERO PUSH2 0x186 JUMPI DUP1 PUSH1 0x1F LT PUSH2 0x15D JUMPI PUSH2 0x100 DUP1 DUP4 SLOAD DIV MUL DUP4 MSTORE SWAP2 PUSH1 0x20 ADD SWAP2 PUSH2 0x186 JUMP JUMPDEST DUP3 ADD SWAP2 SWAP1 PUSH0 MSTORE PUSH1 0x20 PUSH0 KECCAK256 SWAP1 JUMPDEST DUP2 SLOAD DUP2 MSTORE SWAP1 PUSH1 0x1 ADD SWAP1 PUSH1 0x20 ADD DUP1 DUP4 GT PUSH2 0x169 JUMPI DUP3 SWAP1 SUB PUSH1 0x1F AND DUP3 ADD SWAP2 JUMPDEST POP POP POP POP POP SWAP1 DUP1 PUSH1 0x1 ADD SLOAD SWAP1 POP DUP3 JUMP JUMPDEST PUSH0 PUSH1 0x40 MLOAD DUP1 PUSH1 0x40 ADD PUSH1 0x40 MSTORE DUP1 DUP6 DUP6 DUP1 DUP1 PUSH1 0x1F ADD PUSH1 0x20 DUP1 SWAP2 DIV MUL PUSH1 0x20 ADD PUSH1 0x40 MLOAD SWAP1 DUP2 ADD PUSH1 0x40 MSTORE DUP1 SWAP4 SWAP3 SWAP2 SWAP1 DUP2 DUP2 MSTORE PUSH1 0x20 ADD DUP4 DUP4 DUP1 DUP3 DUP5 CALLDATACOPY PUSH0 DUP2 DUP5 ADD MSTORE PUSH1 0x1F NOT PUSH1 0x1F DUP3 ADD AND SWAP1 POP DUP1 DUP4 ADD SWAP3 POP POP POP POP POP POP POP DUP2 MSTORE PUSH1 0x20 ADD DUP4 DUP2 MSTORE POP SWAP1 POP PUSH2 0x238 PUSH1 0x40 MLOAD DUP1 PUSH1 0x40 ADD PUSH1 0x40 MSTORE DUP1 PUSH1 0x1E DUP2 MSTORE PUSH1 0x20 ADD PUSH32 0x626F6F6B207469746C653A2025732C20626F6F6B2070726963653A2025640000 DUP2 MSTORE POP DUP3 PUSH0 ADD MLOAD DUP4 PUSH1 0x20 ADD MLOAD PUSH2 0x3C4 JUMP JUMPDEST POP POP POP POP JUMP JUMPDEST PUSH1 0x6 DUP2 SWAP1 DUP1 PUSH1 0x1 DUP2 SLOAD ADD DUP1 DUP3 SSTORE DUP1 SWAP2 POP POP PUSH1 0x1 SWAP1 SUB SWAP1 PUSH0 MSTORE PUSH1 0x20 PUSH0 KECCAK256 SWAP1 PUSH1 0x2 MUL ADD PUSH0 SWAP1 SWAP2 SWAP1 SWAP2 SWAP1 SWAP2 POP DUP2 DUP2 PUSH2 0x273 SWAP2 SWAP1 PUSH2 0xB32 JUMP JUMPDEST POP POP POP JUMP JUMPDEST PUSH1 0x6 DUP2 DUP2 SLOAD DUP2 LT PUSH2 0x287 JUMPI PUSH0 DUP1 REVERT JUMPDEST SWAP1 PUSH0 MSTORE PUSH1 0x20 PUSH0 KECCAK256 SWAP1 PUSH1 0x2 MUL ADD PUSH0 SWAP2 POP SWAP1 POP DUP1 PUSH0 ADD DUP1 SLOAD PUSH2 0x2A6 SWAP1 PUSH2 0x718 JUMP JUMPDEST DUP1 PUSH1 0x1F ADD PUSH1 0x20 DUP1 SWAP2 DIV MUL PUSH1 0x20 ADD PUSH1 0x40 MLOAD SWAP1 DUP2 ADD PUSH1 0x40 MSTORE DUP1 SWAP3 SWAP2 SWAP1 DUP2 DUP2 MSTORE PUSH1 0x20 ADD DUP3 DUP1 SLOAD PUSH2 0x2D2 SWAP1 PUSH2 0x718 JUMP JUMPDEST DUP1 ISZERO PUSH2 0x31D JUMPI DUP1 PUSH1 0x1F LT PUSH2 0x2F4 JUMPI PUSH2 0x100 DUP1 DUP4 SLOAD DIV MUL DUP4 MSTORE SWAP2 PUSH1 0x20 ADD SWAP2 PUSH2 0x31D JUMP JUMPDEST DUP3 ADD SWAP2 SWAP1 PUSH0 MSTORE PUSH1 0x20 PUSH0 KECCAK256 SWAP1 JUMPDEST DUP2 SLOAD DUP2 MSTORE SWAP1 PUSH1 0x1 ADD SWAP1 PUSH1 0x20 ADD DUP1 DUP4 GT PUSH2 0x300 JUMPI DUP3 SWAP1 SUB PUSH1 0x1F AND DUP3 ADD SWAP2 JUMPDEST POP POP POP POP POP SWAP1 DUP1 PUSH1 0x1 ADD SLOAD SWAP1 POP DUP3 JUMP JUMPDEST PUSH1 0x2 DUP1 PUSH0 ADD DUP1 SLOAD PUSH2 0x33D SWAP1 PUSH2 0x718 JUMP JUMPDEST DUP1 PUSH1 0x1F ADD PUSH1 0x20 DUP1 SWAP2 DIV MUL PUSH1 0x20 ADD PUSH1 0x40 MLOAD SWAP1 DUP2 ADD PUSH1 0x40 MSTORE DUP1 SWAP3 SWAP2 SWAP1 DUP2 DUP2 MSTORE PUSH1 0x20 ADD DUP3 DUP1 SLOAD PUSH2 0x369 SWAP1 PUSH2 0x718 JUMP JUMPDEST DUP1 ISZERO PUSH2 0x3B4 JUMPI DUP1 PUSH1 0x1F LT PUSH2 0x38B JUMPI PUSH2 0x100 DUP1 DUP4 SLOAD DIV MUL DUP4 MSTORE SWAP2 PUSH1 0x20 ADD SWAP2 PUSH2 0x3B4 JUMP JUMPDEST DUP3 ADD SWAP2 SWAP1 PUSH0 MSTORE PUSH1 0x20 PUSH0 KECCAK256 SWAP1 JUMPDEST DUP2 SLOAD DUP2 MSTORE SWAP1 PUSH1 0x1 ADD SWAP1 PUSH1 0x20 ADD DUP1 DUP4 GT PUSH2 0x397 JUMPI DUP3 SWAP1 SUB PUSH1 0x1F AND DUP3 ADD SWAP2 JUMPDEST POP POP POP POP POP SWAP1 DUP1 PUSH1 0x1 ADD SLOAD SWAP1 POP DUP3 JUMP JUMPDEST PUSH2 0x45E DUP4 DUP4 DUP4 PUSH1 0x40 MLOAD PUSH1 0x24 ADD PUSH2 0x3DC SWAP4 SWAP3 SWAP2 SWAP1 PUSH2 0xB40 JUMP JUMPDEST PUSH1 0x40 MLOAD PUSH1 0x20 DUP2 DUP4 SUB SUB DUP2 MSTORE SWAP1 PUSH1 0x40 MSTORE PUSH32 0x5821EFA100000000000000000000000000000000000000000000000000000000 PUSH28 0xFFFFFFFFFFFFFFFFFFFFFFFFFFFFFFFFFFFFFFFFFFFFFFFFFFFFFFFF NOT AND PUSH1 0x20 DUP3 ADD DUP1 MLOAD PUSH28 0xFFFFFFFFFFFFFFFFFFFFFFFFFFFFFFFFFFFFFFFFFFFFFFFFFFFFFFFF DUP4 DUP2 DUP4 AND OR DUP4 MSTORE POP POP POP POP PUSH2 0x463 JUMP JUMPDEST POP POP POP JUMP JUMPDEST PUSH2 0x47A DUP2 PUSH2 0x472 PUSH2 0x47D PUSH2 0x49C JUMP JUMPDEST PUSH4 0xFFFFFFFF AND JUMP JUMPDEST POP JUMP JUMPDEST PUSH0 PUSH11 0x636F6E736F6C652E6C6F67 SWAP1 POP PUSH0 PUSH0 DUP4 MLOAD PUSH1 0x20 DUP6 ADD DUP5 GAS STATICCALL POP POP POP JUMP JUMPDEST PUSH2 0x4A7 DUP2 SWAP1 POP SWAP2 SWAP1 POP JUMP JUMPDEST PUSH2 0x4AF PUSH2 0xB83 JUMP JUMPDEST JUMP JUMPDEST PUSH0 DUP2 MLOAD SWAP1 POP SWAP2 SWAP1 POP JUMP JUMPDEST PUSH0 DUP3 DUP3 MSTORE PUSH1 0x20 DUP3 ADD SWAP1 POP SWAP3 SWAP2 POP POP JUMP JUMPDEST DUP3 DUP2 DUP4 MCOPY PUSH0 DUP4 DUP4 ADD MSTORE POP POP POP JUMP JUMPDEST PUSH0 PUSH1 0x1F NOT PUSH1 0x1F DUP4 ADD AND SWAP1 POP SWAP2 SWAP1 POP JUMP JUMPDEST PUSH0 PUSH2 0x4F3 DUP3 PUSH2 0x4B1 JUMP JUMPDEST PUSH2 0x4FD DUP2 DUP6 PUSH2 0x4BB JUMP JUMPDEST SWAP4 POP PUSH2 0x50D DUP2 DUP6 PUSH1 0x20 DUP7 ADD PUSH2 0x4CB JUMP JUMPDEST PUSH2 0x516 DUP2 PUSH2 0x4D9 JUMP JUMPDEST DUP5 ADD SWAP2 POP POP SWAP3 SWAP2 POP POP JUMP JUMPDEST PUSH0 DUP2 SWAP1 POP SWAP2 SWAP1 POP JUMP JUMPDEST PUSH2 0x533 DUP2 PUSH2 0x521 JUMP JUMPDEST DUP3 MSTORE POP POP JUMP JUMPDEST PUSH0 PUSH1 0x40 DUP3 ADD SWAP1 POP DUP2 DUP2 SUB PUSH0 DUP4 ADD MSTORE PUSH2 0x551 DUP2 DUP6 PUSH2 0x4E9 JUMP JUMPDEST SWAP1 POP PUSH2 0x560 PUSH1 0x20 DUP4 ADD DUP5 PUSH2 0x52A JUMP JUMPDEST SWAP4 SWAP3 POP POP POP JUMP JUMPDEST PUSH0 PUSH0 REVERT JUMPDEST PUSH0 PUSH0 REVERT JUMPDEST PUSH0 PUSH0 REVERT JUMPDEST PUSH0 PUSH0 REVERT JUMPDEST PUSH0 PUSH0 REVERT JUMPDEST PUSH0 PUSH0 DUP4 PUSH1 0x1F DUP5 ADD SLT PUSH2 0x590 JUMPI PUSH2 0x58F PUSH2 0x56F JUMP JUMPDEST JUMPDEST DUP3 CALLDATALOAD SWAP1 POP PUSH8 0xFFFFFFFFFFFFFFFF DUP2 GT ISZERO PUSH2 0x5AD JUMPI PUSH2 0x5AC PUSH2 0x573 JUMP JUMPDEST JUMPDEST PUSH1 0x20 DUP4 ADD SWAP2 POP DUP4 PUSH1 0x1 DUP3 MUL DUP4 ADD GT ISZERO PUSH2 0x5C9 JUMPI PUSH2 0x5C8 PUSH2 0x577 JUMP JUMPDEST JUMPDEST SWAP3 POP SWAP3 SWAP1 POP JUMP JUMPDEST PUSH2 0x5D9 DUP2 PUSH2 0x521 JUMP JUMPDEST DUP2 EQ PUSH2 0x5E3 JUMPI PUSH0 PUSH0 REVERT JUMPDEST POP JUMP JUMPDEST PUSH0 DUP2 CALLDATALOAD SWAP1 POP PUSH2 0x5F4 DUP2 PUSH2 0x5D0 JUMP JUMPDEST SWAP3 SWAP2 POP POP JUMP JUMPDEST PUSH0 PUSH0 PUSH0 PUSH1 0x40 DUP5 DUP7 SUB SLT ISZERO PUSH2 0x611 JUMPI PUSH2 0x610 PUSH2 0x567 JUMP JUMPDEST JUMPDEST PUSH0 DUP5 ADD CALLDATALOAD PUSH8 0xFFFFFFFFFFFFFFFF DUP2 GT ISZERO PUSH2 0x62E JUMPI PUSH2 0x62D PUSH2 0x56B JUMP JUMPDEST JUMPDEST PUSH2 0x63A DUP7 DUP3 DUP8 ADD PUSH2 0x57B JUMP JUMPDEST SWAP4 POP SWAP4 POP POP PUSH1 0x20 PUSH2 0x64D DUP7 DUP3 DUP8 ADD PUSH2 0x5E6 JUMP JUMPDEST SWAP2 POP POP SWAP3 POP SWAP3 POP SWAP3 JUMP JUMPDEST PUSH0 PUSH0 REVERT JUMPDEST PUSH0 PUSH1 0x40 DUP3 DUP5 SUB SLT ISZERO PUSH2 0x670 JUMPI PUSH2 0x66F PUSH2 0x657 JUMP JUMPDEST JUMPDEST DUP2 SWAP1 POP SWAP3 SWAP2 POP POP JUMP JUMPDEST PUSH0 PUSH1 0x20 DUP3 DUP5 SUB SLT ISZERO PUSH2 0x68E JUMPI PUSH2 0x68D PUSH2 0x567 JUMP JUMPDEST JUMPDEST PUSH0 DUP3 ADD CALLDATALOAD PUSH8 0xFFFFFFFFFFFFFFFF DUP2 GT ISZERO PUSH2 0x6AB JUMPI PUSH2 0x6AA PUSH2 0x56B JUMP JUMPDEST JUMPDEST PUSH2 0x6B7 DUP5 DUP3 DUP6 ADD PUSH2 0x65B JUMP JUMPDEST SWAP2 POP POP SWAP3 SWAP2 POP POP JUMP JUMPDEST PUSH0 PUSH1 0x20 DUP3 DUP5 SUB SLT ISZERO PUSH2 0x6D5 JUMPI PUSH2 0x6D4 PUSH2 0x567 JUMP JUMPDEST JUMPDEST PUSH0 PUSH2 0x6E2 DUP5 DUP3 DUP6 ADD PUSH2 0x5E6 JUMP JUMPDEST SWAP2 POP POP SWAP3 SWAP2 POP POP JUMP JUMPDEST PUSH32 0x4E487B7100000000000000000000000000000000000000000000000000000000 PUSH0 MSTORE PUSH1 0x22 PUSH1 0x4 MSTORE PUSH1 0x24 PUSH0 REVERT JUMPDEST PUSH0 PUSH1 0x2 DUP3 DIV SWAP1 POP PUSH1 0x1 DUP3 AND DUP1 PUSH2 0x72F JUMPI PUSH1 0x7F DUP3 AND SWAP2 POP JUMPDEST PUSH1 0x20 DUP3 LT DUP2 SUB PUSH2 0x742 JUMPI PUSH2 0x741 PUSH2 0x6EB JUMP JUMPDEST JUMPDEST POP SWAP2 SWAP1 POP JUMP JUMPDEST PUSH0 PUSH0 REVERT JUMPDEST PUSH0 PUSH0 REVERT JUMPDEST PUSH0 PUSH0 REVERT JUMPDEST PUSH0 PUSH0 DUP4 CALLDATALOAD PUSH1 0x1 PUSH1 0x20 SUB DUP5 CALLDATASIZE SUB SUB DUP2 SLT PUSH2 0x770 JUMPI PUSH2 0x76F PUSH2 0x748 JUMP JUMPDEST JUMPDEST DUP1 DUP5 ADD SWAP3 POP DUP3 CALLDATALOAD SWAP2 POP PUSH8 0xFFFFFFFFFFFFFFFF DUP3 GT ISZERO PUSH2 0x792 JUMPI PUSH2 0x791 PUSH2 0x74C JUMP JUMPDEST JUMPDEST PUSH1 0x20 DUP4 ADD SWAP3 POP PUSH1 0x1 DUP3 MUL CALLDATASIZE SUB DUP4 SGT ISZERO PUSH2 0x7AE JUMPI PUSH2 0x7AD PUSH2 0x750 JUMP JUMPDEST JUMPDEST POP SWAP3 POP SWAP3 SWAP1 POP JUMP JUMPDEST PUSH0 DUP3 SWAP1 POP SWAP3 SWAP2 POP POP JUMP JUMPDEST PUSH32 0x4E487B7100000000000000000000000000000000000000000000000000000000 PUSH0 MSTORE PUSH1 0x41 PUSH1 0x4 MSTORE PUSH1 0x24 PUSH0 REVERT JUMPDEST PUSH0 DUP2 SWAP1 POP DUP2 PUSH0 MSTORE PUSH1 0x20 PUSH0 KECCAK256 SWAP1 POP SWAP2 SWAP1 POP JUMP JUMPDEST PUSH0 PUSH1 0x20 PUSH1 0x1F DUP4 ADD DIV SWAP1 POP SWAP2 SWAP1 POP JUMP JUMPDEST PUSH0 DUP3 DUP3 SHL SWAP1 POP SWAP3 SWAP2 POP POP JUMP JUMPDEST PUSH0 PUSH1 0x8 DUP4 MUL PUSH2 0x849 PUSH32 0xFFFFFFFFFFFFFFFFFFFFFFFFFFFFFFFFFFFFFFFFFFFFFFFFFFFFFFFFFFFFFFFF DUP3 PUSH2 0x80E JUMP JUMPDEST PUSH2 0x853 DUP7 DUP4 PUSH2 0x80E JUMP JUMPDEST SWAP6 POP DUP1 NOT DUP5 AND SWAP4 POP DUP1 DUP7 AND DUP5 OR SWAP3 POP POP POP SWAP4 SWAP3 POP POP POP JUMP JUMPDEST PUSH0 DUP2 SWAP1 POP SWAP2 SWAP1 POP JUMP JUMPDEST PUSH0 PUSH2 0x88E PUSH2 0x889 PUSH2 0x884 DUP5 PUSH2 0x521 JUMP JUMPDEST PUSH2 0x86B JUMP JUMPDEST PUSH2 0x521 JUMP JUMPDEST SWAP1 POP SWAP2 SWAP1 POP JUMP JUMPDEST PUSH0 DUP2 SWAP1 POP SWAP2 SWAP1 POP JUMP JUMPDEST PUSH2 0x8A7 DUP4 PUSH2 0x874 JUMP JUMPDEST PUSH2 0x8BB PUSH2 0x8B3 DUP3 PUSH2 0x895 JUMP JUMPDEST DUP5 DUP5 SLOAD PUSH2 0x81A JUMP JUMPDEST DUP3 SSTORE POP POP POP POP JUMP JUMPDEST PUSH0 PUSH0 SWAP1 POP SWAP1 JUMP JUMPDEST PUSH2 0x8D2 PUSH2 0x8C3 JUMP JUMPDEST PUSH2 0x8DD DUP2 DUP5 DUP5 PUSH2 0x89E JUMP JUMPDEST POP POP POP JUMP JUMPDEST JUMPDEST DUP2 DUP2 LT ISZERO PUSH2 0x900 JUMPI PUSH2 0x8F5 PUSH0 DUP3 PUSH2 0x8CA JUMP JUMPDEST PUSH1 0x1 DUP2 ADD SWAP1 POP PUSH2 0x8E3 JUMP JUMPDEST POP POP JUMP JUMPDEST PUSH1 0x1F DUP3 GT ISZERO PUSH2 0x945 JUMPI PUSH2 0x916 DUP2 PUSH2 0x7ED JUMP JUMPDEST PUSH2 0x91F DUP5 PUSH2 0x7FF JUMP JUMPDEST DUP2 ADD PUSH1 0x20 DUP6 LT ISZERO PUSH2 0x92E JUMPI DUP2 SWAP1 POP JUMPDEST PUSH2 0x942 PUSH2 0x93A DUP6 PUSH2 0x7FF JUMP JUMPDEST DUP4 ADD DUP3 PUSH2 0x8E2 JUMP JUMPDEST POP POP JUMPDEST POP POP POP JUMP JUMPDEST PUSH0 DUP3 DUP3 SHR SWAP1 POP SWAP3 SWAP2 POP POP JUMP JUMPDEST PUSH0 PUSH2 0x965 PUSH0 NOT DUP5 PUSH1 0x8 MUL PUSH2 0x94A JUMP JUMPDEST NOT DUP1 DUP4 AND SWAP2 POP POP SWAP3 SWAP2 POP POP JUMP JUMPDEST PUSH0 PUSH2 0x97D DUP4 DUP4 PUSH2 0x956 JUMP JUMPDEST SWAP2 POP DUP3 PUSH1 0x2 MUL DUP3 OR SWAP1 POP SWAP3 SWAP2 POP POP JUMP JUMPDEST PUSH2 0x997 DUP4 DUP4 PUSH2 0x7B6 JUMP JUMPDEST PUSH8 0xFFFFFFFFFFFFFFFF DUP2 GT ISZERO PUSH2 0x9B0 JUMPI PUSH2 0x9AF PUSH2 0x7C0 JUMP JUMPDEST JUMPDEST PUSH2 0x9BA DUP3 SLOAD PUSH2 0x718 JUMP JUMPDEST PUSH2 0x9C5 DUP3 DUP3 DUP6 PUSH2 0x904 JUMP JUMPDEST PUSH0 PUSH1 0x1F DUP4 GT PUSH1 0x1 DUP2 EQ PUSH2 0x9F2 JUMPI PUSH0 DUP5 ISZERO PUSH2 0x9E0 JUMPI DUP3 DUP8 ADD CALLDATALOAD SWAP1 POP JUMPDEST PUSH2 0x9EA DUP6 DUP3 PUSH2 0x972 JUMP JUMPDEST DUP7 SSTORE POP PUSH2 0xA51 JUMP JUMPDEST PUSH1 0x1F NOT DUP5 AND PUSH2 0xA00 DUP7 PUSH2 0x7ED JUMP JUMPDEST PUSH0 JUMPDEST DUP3 DUP2 LT ISZERO PUSH2 0xA27 JUMPI DUP5 DUP10 ADD CALLDATALOAD DUP3 SSTORE PUSH1 0x1 DUP3 ADD SWAP2 POP PUSH1 0x20 DUP6 ADD SWAP5 POP PUSH1 0x20 DUP2 ADD SWAP1 POP PUSH2 0xA02 JUMP JUMPDEST DUP7 DUP4 LT ISZERO PUSH2 0xA44 JUMPI DUP5 DUP10 ADD CALLDATALOAD PUSH2 0xA40 PUSH1 0x1F DUP10 AND DUP3 PUSH2 0x956 JUMP JUMPDEST DUP4 SSTORE POP JUMPDEST PUSH1 0x1 PUSH1 0x2 DUP9 MUL ADD DUP9 SSTORE POP POP POP JUMPDEST POP POP POP POP POP POP POP JUMP JUMPDEST PUSH2 0xA65 DUP4 DUP4 DUP4 PUSH2 0x98D JUMP JUMPDEST POP POP POP JUMP JUMPDEST PUSH0 DUP2 CALLDATALOAD PUSH2 0xA76 DUP2 PUSH2 0x5D0 JUMP JUMPDEST DUP1 SWAP2 POP POP SWAP2 SWAP1 POP JUMP JUMPDEST PUSH0 DUP2 PUSH0 SHL SWAP1 POP SWAP2 SWAP1 POP JUMP JUMPDEST PUSH0 PUSH32 0xFFFFFFFFFFFFFFFFFFFFFFFFFFFFFFFFFFFFFFFFFFFFFFFFFFFFFFFFFFFFFFFF PUSH2 0xAB5 DUP5 PUSH2 0xA7F JUMP JUMPDEST SWAP4 POP DUP1 NOT DUP4 AND SWAP3 POP DUP1 DUP5 AND DUP4 OR SWAP2 POP POP SWAP3 SWAP2 POP POP JUMP JUMPDEST PUSH2 0xAD4 DUP3 PUSH2 0x874 JUMP JUMPDEST PUSH2 0xAE7 PUSH2 0xAE0 DUP3 PUSH2 0x895 JUMP JUMPDEST DUP4 SLOAD PUSH2 0xA8A JUMP JUMPDEST DUP3 SSTORE POP POP POP JUMP JUMPDEST PUSH0 DUP2 ADD PUSH0 DUP4 ADD PUSH2 0xAFE DUP2 DUP6 PUSH2 0x754 JUMP JUMPDEST PUSH2 0xB09 DUP2 DUP4 DUP7 PUSH2 0xA5A JUMP JUMPDEST POP POP POP POP PUSH1 0x1 DUP2 ADD PUSH1 0x20 DUP4 ADD DUP1 PUSH2 0xB1F DUP2 PUSH2 0xA6A JUMP JUMPDEST SWAP1 POP PUSH2 0xB2B DUP2 DUP5 PUSH2 0xACB JUMP JUMPDEST POP POP POP POP POP JUMP JUMPDEST PUSH2 0xB3C DUP3 DUP3 PUSH2 0xAEE JUMP JUMPDEST POP POP JUMP JUMPDEST PUSH0 PUSH1 0x60 DUP3 ADD SWAP1 POP DUP2 DUP2 SUB PUSH0 DUP4 ADD MSTORE PUSH2 0xB58 DUP2 DUP7 PUSH2 0x4E9 JUMP JUMPDEST SWAP1 POP DUP2 DUP2 SUB PUSH1 0x20 DUP4 ADD MSTORE PUSH2 0xB6C DUP2 DUP6 PUSH2 0x4E9 JUMP JUMPDEST SWAP1 POP PUSH2 0xB7B PUSH1 0x40 DUP4 ADD DUP5 PUSH2 0x52A JUMP JUMPDEST SWAP5 SWAP4 POP POP POP POP JUMP JUMPDEST PUSH32 0x4E487B7100000000000000000000000000000000000000000000000000000000 PUSH0 MSTORE PUSH1 0x51 PUSH1 0x4 MSTORE PUSH1 0x24 PUSH0 REVERT INVALID LOG2 PUSH5 0x6970667358 0x22 SLT KECCAK256 0xAF LT GAS EXP EXTCODEHASH SHL 0x26 CALLDATALOAD EXTSTATICCALL 0x21 0xC0 BLOBHASH 0xD9 0xB7 CODESIZE DUP14 SWAP4 0xB9 0xAB NUMBER 0xB5 BLOCKHASH PUSH27 0xFEB8BF30D302F4697964736F6C634300081E003300000000000000 "
		},
		"gasEstimates": {
			"creation": {
				"codeDepositCost": "609200",
				"executionCost": "infinite",
				"totalCost": "infinite"
			},
			"external": {
				"addNewBook((string,uint256))": "infinite",
				"book()": "infinite",
				"book2()": "infinite",
				"bookList(uint256)": "infinite",
				"initBook1(string,uint256)": "infinite"
			}
		},
		"methodIdentifiers": {
			"addNewBook((string,uint256))": "912704f2",
			"book()": "05a8da72",
			"book2()": "e815fe1d",
			"bookList(uint256)": "ad8514c4",
			"initBook1(string,uint256)": "07f5243c"
		}
	},
	"abi": [
		{
			"inputs": [],
			"stateMutability": "nonpayable",
			"type": "constructor"
		},
		{
			"inputs": [
				{
					"components": [
						{
							"internalType": "string",
							"name": "title",
							"type": "string"
						},
						{
							"internalType": "uint256",
							"name": "price",
							"type": "uint256"
						}
					],
					"internalType": "struct StructType.Book",
					"name": "newBook",
					"type": "tuple"
				}
			],
			"name": "addNewBook",
			"outputs": [],
			"stateMutability": "nonpayable",
			"type": "function"
		},
		{
			"inputs": [],
			"name": "book",
			"outputs": [
				{
					"internalType": "string",
					"name": "title",
					"type": "string"
				},
				{
					"internalType": "uint256",
					"name": "price",
					"type": "uint256"
				}
			],
			"stateMutability": "view",
			"type": "function"
		},
		{
			"inputs": [],
			"name": "book2",
			"outputs": [
				{
					"internalType": "string",
					"name": "title",
					"type": "string"
				},
				{
					"internalType": "uint256",
					"name": "price",
					"type": "uint256"
				}
			],
			"stateMutability": "view",
			"type": "function"
		},
		{
			"inputs": [
				{
					"internalType": "uint256",
					"name": "",
					"type": "uint256"
				}
			],
			"name": "bookList",
			"outputs": [
				{
					"internalType": "string",
					"name": "title",
					"type": "string"
				},
				{
					"internalType": "uint256",
					"name": "price",
					"type": "uint256"
				}
			],
			"stateMutability": "view",
			"type": "function"
		},
		{
			"inputs": [
				{
					"internalType": "string",
					"name": "title",
					"type": "string"
				},
				{
					"internalType": "uint256",
					"name": "price",
					"type": "uint256"
				}
			],
			"name": "initBook1",
			"outputs": [],
			"stateMutability": "pure",
			"type": "function"
		}
	]
}