{
  "_format": "hh-sol-artifact-1",
  "contractName": "NftAuctionV2",
  "sourceName": "contracts/NftAuctionV2.sol",
  "abi": [
    {
      "inputs": [
        {
          "internalType": "address",
          "name": "target",
          "type": "address"
        }
      ],
      "name": "AddressEmptyCode",
      "type": "error"
    },
    {
      "inputs": [
        {
          "internalType": "address",
          "name": "implementation",
          "type": "address"
        }
      ],
      "name": "ERC1967InvalidImplementation",
      "type": "error"
    },
    {
      "inputs": [],
      "name": "ERC1967NonPayable",
      "type": "error"
    },
    {
      "inputs": [],
      "name": "FailedCall",
      "type": "error"
    },
    {
      "inputs": [],
      "name": "InvalidInitialization",
      "type": "error"
    },
    {
      "inputs": [],
      "name": "NotInitializing",
      "type": "error"
    },
    {
      "inputs": [],
      "name": "UUPSUnauthorizedCallContext",
      "type": "error"
    },
    {
      "inputs": [
        {
          "internalType": "bytes32",
          "name": "slot",
          "type": "bytes32"
        }
      ],
      "name": "UUPSUnsupportedProxiableUUID",
      "type": "error"
    },
    {
      "anonymous": false,
      "inputs": [
        {
          "indexed": false,
          "internalType": "uint64",
          "name": "version",
          "type": "uint64"
        }
      ],
      "name": "Initialized",
      "type": "event"
    },
    {
      "anonymous": false,
      "inputs": [
        {
          "indexed": true,
          "internalType": "address",
          "name": "implementation",
          "type": "address"
        }
      ],
      "name": "Upgraded",
      "type": "event"
    },
    {
      "inputs": [],
      "name": "UPGRADE_INTERFACE_VERSION",
      "outputs": [
        {
          "internalType": "string",
          "name": "",
          "type": "string"
        }
      ],
      "stateMutability": "view",
      "type": "function"
    },
    {
      "inputs": [],
      "name": "admin",
      "outputs": [
        {
          "internalType": "address",
          "name": "",
          "type": "address"
        }
      ],
      "stateMutability": "view",
      "type": "function"
    },
    {
      "inputs": [
        {
          "internalType": "uint256",
          "name": "",
          "type": "uint256"
        }
      ],
      "name": "auctions",
      "outputs": [
        {
          "internalType": "address",
          "name": "seller",
          "type": "address"
        },
        {
          "internalType": "uint256",
          "name": "duration",
          "type": "uint256"
        },
        {
          "internalType": "uint256",
          "name": "startPrice",
          "type": "uint256"
        },
        {
          "internalType": "uint256",
          "name": "startTime",
          "type": "uint256"
        },
        {
          "internalType": "bool",
          "name": "ended",
          "type": "bool"
        },
        {
          "internalType": "address",
          "name": "highestBidder",
          "type": "address"
        },
        {
          "internalType": "uint256",
          "name": "highestBid",
          "type": "uint256"
        },
        {
          "internalType": "address",
          "name": "nftContract",
          "type": "address"
        },
        {
          "internalType": "uint256",
          "name": "tokenId",
          "type": "uint256"
        },
        {
          "internalType": "address",
          "name": "tokenAddress",
          "type": "address"
        }
      ],
      "stateMutability": "view",
      "type": "function"
    },
    {
      "inputs": [
        {
          "internalType": "uint256",
          "name": "_duration",
          "type": "uint256"
        },
        {
          "internalType": "uint256",
          "name": "_startPrice",
          "type": "uint256"
        },
        {
          "internalType": "address",
          "name": "_nftAddress",
          "type": "address"
        },
        {
          "internalType": "uint256",
          "name": "_tokenId",
          "type": "uint256"
        }
      ],
      "name": "createAuction",
      "outputs": [],
      "stateMutability": "nonpayable",
      "type": "function"
    },
    {
      "inputs": [
        {
          "internalType": "uint256",
          "name": "_auctionId",
          "type": "uint256"
        }
      ],
      "name": "endAuction",
      "outputs": [],
      "stateMutability": "nonpayable",
      "type": "function"
    },
    {
      "inputs": [
        {
          "internalType": "address",
          "name": "tokenAddress",
          "type": "address"
        }
      ],
      "name": "getChainlinkDataFeedLatestAnswer",
      "outputs": [
        {
          "internalType": "int256",
          "name": "",
          "type": "int256"
        }
      ],
      "stateMutability": "view",
      "type": "function"
    },
    {
      "inputs": [],
      "name": "initialize",
      "outputs": [],
      "stateMutability": "nonpayable",
      "type": "function"
    },
    {
      "inputs": [],
      "name": "nextAuctionId",
      "outputs": [
        {
          "internalType": "uint256",
          "name": "",
          "type": "uint256"
        }
      ],
      "stateMutability": "view",
      "type": "function"
    },
    {
      "inputs": [
        {
          "internalType": "uint256",
          "name": "_auctionId",
          "type": "uint256"
        },
        {
          "internalType": "uint256",
          "name": "amount",
          "type": "uint256"
        },
        {
          "internalType": "address",
          "name": "_tokenAddress",
          "type": "address"
        }
      ],
      "name": "playerBid",
      "outputs": [],
      "stateMutability": "payable",
      "type": "function"
    },
    {
      "inputs": [
        {
          "internalType": "address",
          "name": "",
          "type": "address"
        }
      ],
      "name": "priceFeeds",
      "outputs": [
        {
          "internalType": "contract AggregatorV3Interface",
          "name": "",
          "type": "address"
        }
      ],
      "stateMutability": "view",
      "type": "function"
    },
    {
      "inputs": [],
      "name": "proxiableUUID",
      "outputs": [
        {
          "internalType": "bytes32",
          "name": "",
          "type": "bytes32"
        }
      ],
      "stateMutability": "view",
      "type": "function"
    },
    {
      "inputs": [
        {
          "internalType": "address",
          "name": "tokenAddress",
          "type": "address"
        },
        {
          "internalType": "address",
          "name": "_priceFeed",
          "type": "address"
        }
      ],
      "name": "setPriceFeed",
      "outputs": [],
      "stateMutability": "nonpayable",
      "type": "function"
    },
    {
      "inputs": [],
      "name": "testHello",
      "outputs": [
        {
          "internalType": "string",
          "name": "",
          "type": "string"
        }
      ],
      "stateMutability": "pure",
      "type": "function"
    },
    {
      "inputs": [
        {
          "internalType": "address",
          "name": "newImplementation",
          "type": "address"
        },
        {
          "internalType": "bytes",
          "name": "data",
          "type": "bytes"
        }
      ],
      "name": "upgradeToAndCall",
      "outputs": [],
      "stateMutability": "payable",
      "type": "function"
    }
  ],
  "bytecode": "0x60a06040523073ffffffffffffffffffffffffffffffffffffffff1660809073ffffffffffffffffffffffffffffffffffffffff16815250348015604257600080fd5b5060805161277261006c6000396000818161123c01528181611291015261151301526127726000f3fe6080604052600436106100dd5760003560e01c8063ad3cb1cc1161007f578063c97c635311610059578063c97c635314610285578063e7078f92146102b0578063f851a440146102ed578063fc52848214610318576100dd565b8063ad3cb1cc14610208578063b1cb48ef14610233578063b9a2de3a1461025c576100dd565b8063571a26a0116100bb578063571a26a01461014557806376e112861461018b5780638129fc1c146101b45780639dcb511a146101cb576100dd565b806301a8dae4146100e25780634f1ef286146100fe57806352d1902d1461011a575b600080fd5b6100fc60048036038101906100f79190611aa0565b610343565b005b61011860048036038101906101139190611c39565b6107b1565b005b34801561012657600080fd5b5061012f6107d0565b60405161013c9190611cae565b60405180910390f35b34801561015157600080fd5b5061016c60048036038101906101679190611cc9565b610803565b6040516101829a99989796959493929190611d2f565b60405180910390f35b34801561019757600080fd5b506101b260048036038101906101ad9190611dcb565b6108e4565b005b3480156101c057600080fd5b506101c9610966565b005b3480156101d757600080fd5b506101f260048036038101906101ed9190611e0b565b610b2c565b6040516101ff9190611e97565b60405180910390f35b34801561021457600080fd5b5061021d610b5f565b60405161022a9190611f31565b60405180910390f35b34801561023f57600080fd5b5061025a60048036038101906102559190611f53565b610b98565b005b34801561026857600080fd5b50610283600480360381019061027e9190611cc9565b610f67565b005b34801561029157600080fd5b5061029a6110eb565b6040516102a79190611f31565b60405180910390f35b3480156102bc57600080fd5b506102d760048036038101906102d29190611e0b565b611128565b6040516102e49190611fd3565b60405180910390f35b3480156102f957600080fd5b5061030261120e565b60405161030f9190611fee565b60405180910390f35b34801561032457600080fd5b5061032d611234565b60405161033a9190612009565b60405180910390f35b600080600085815260200190815260200160002090508060040160009054906101000a900460ff1615801561038a575042816001015482600301546103889190612053565b115b6103c9576040517f08c379a00000000000000000000000000000000000000000000000000000000081526004016103c0906120d3565b60405180910390fd5b60008073ffffffffffffffffffffffffffffffffffffffff168373ffffffffffffffffffffffffffffffffffffffff16146104195761040783611128565b8461041291906120f3565b9050610434565b3493506104266000611128565b8461043191906120f3565b90505b60006104406000611128565b836002015461044f91906120f3565b9050600061045d6000611128565b846005015461046c91906120f3565b905080831015801561047e5750818310155b6104bd576040517f08c379a00000000000000000000000000000000000000000000000000000000081526004016104b490612181565b60405180910390fd5b600073ffffffffffffffffffffffffffffffffffffffff168573ffffffffffffffffffffffffffffffffffffffff1614610573578473ffffffffffffffffffffffffffffffffffffffff166323b872dd3330896040518463ffffffff1660e01b815260040161052e939291906121a1565b6020604051808303816000875af115801561054d573d6000803e3d6000fd5b505050506040513d601f19601f820116820180604052508101906105719190612204565b505b60008460050154111561071957600073ffffffffffffffffffffffffffffffffffffffff168460080160009054906101000a900473ffffffffffffffffffffffffffffffffffffffff1673ffffffffffffffffffffffffffffffffffffffff16146106a8578360080160009054906101000a900473ffffffffffffffffffffffffffffffffffffffff1673ffffffffffffffffffffffffffffffffffffffff1663a9059cbb8560040160019054906101000a900473ffffffffffffffffffffffffffffffffffffffff1686600501546040518363ffffffff1660e01b815260040161065f929190612231565b6020604051808303816000875af115801561067e573d6000803e3d6000fd5b505050506040513d601f19601f820116820180604052508101906106a29190612204565b50610718565b8360040160019054906101000a900473ffffffffffffffffffffffffffffffffffffffff1673ffffffffffffffffffffffffffffffffffffffff166108fc85600501549081150290604051600060405180830381858888f19350505050158015610716573d6000803e3d6000fd5b505b5b848460080160006101000a81548173ffffffffffffffffffffffffffffffffffffffff021916908373ffffffffffffffffffffffffffffffffffffffff160217905550338460040160016101000a81548173ffffffffffffffffffffffffffffffffffffffff021916908373ffffffffffffffffffffffffffffffffffffffff16021790555085846005018190555050505050505050565b6107b961123a565b6107c282611320565b6107cc82826113f2565b5050565b60006107da611511565b7f360894a13ba1a3210667c828492db98dca3e2076cc3735a920a3ca505d382bbc60001b905090565b60006020528060005260406000206000915090508060000160009054906101000a900473ffffffffffffffffffffffffffffffffffffffff16908060010154908060020154908060030154908060040160009054906101000a900460ff16908060040160019054906101000a900473ffffffffffffffffffffffffffffffffffffffff16908060050154908060060160009054906101000a900473ffffffffffffffffffffffffffffffffffffffff16908060070154908060080160009054906101000a900473ffffffffffffffffffffffffffffffffffffffff1690508a565b80600360008473ffffffffffffffffffffffffffffffffffffffff1673ffffffffffffffffffffffffffffffffffffffff16815260200190815260200160002060006101000a81548173ffffffffffffffffffffffffffffffffffffffff021916908373ffffffffffffffffffffffffffffffffffffffff1602179055505050565b6000610970611598565b905060008160000160089054906101000a900460ff1615905060008260000160009054906101000a900467ffffffffffffffff1690506000808267ffffffffffffffff161480156109be5750825b9050600060018367ffffffffffffffff161480156109f3575060003073ffffffffffffffffffffffffffffffffffffffff163b145b905081158015610a01575080155b15610a38576040517ff92ee8a900000000000000000000000000000000000000000000000000000000815260040160405180910390fd5b60018560000160006101000a81548167ffffffffffffffff021916908367ffffffffffffffff1602179055508315610a885760018560000160086101000a81548160ff0219169083151502179055505b33600260006101000a81548173ffffffffffffffffffffffffffffffffffffffff021916908373ffffffffffffffffffffffffffffffffffffffff1602179055508315610b255760008560000160086101000a81548160ff0219169083151502179055507fc7f505b2f371ae2175ee4913f4499e1f2633a7b5936321eed1cdaeb6115181d26001604051610b1c91906122a9565b60405180910390a15b5050505050565b60036020528060005260406000206000915054906101000a900473ffffffffffffffffffffffffffffffffffffffff1681565b6040518060400160405280600581526020017f352e302e3000000000000000000000000000000000000000000000000000000081525081565b600260009054906101000a900473ffffffffffffffffffffffffffffffffffffffff1673ffffffffffffffffffffffffffffffffffffffff163373ffffffffffffffffffffffffffffffffffffffff1614610c28576040517f08c379a0000000000000000000000000000000000000000000000000000000008152600401610c1f90612310565b60405180910390fd5b600a841015610c6c576040517f08c379a0000000000000000000000000000000000000000000000000000000008152600401610c639061237c565b60405180910390fd5b60008311610caf576040517f08c379a0000000000000000000000000000000000000000000000000000000008152600401610ca6906123e8565b60405180910390fd5b8173ffffffffffffffffffffffffffffffffffffffff166323b872dd3330846040518463ffffffff1660e01b8152600401610cec939291906121a1565b600060405180830381600087803b158015610d0657600080fd5b505af1158015610d1a573d6000803e3d6000fd5b505050506040518061014001604052803373ffffffffffffffffffffffffffffffffffffffff168152602001858152602001848152602001428152602001600015158152602001600073ffffffffffffffffffffffffffffffffffffffff168152602001600081526020018373ffffffffffffffffffffffffffffffffffffffff168152602001828152602001600073ffffffffffffffffffffffffffffffffffffffff16815250600080600154815260200190815260200160002060008201518160000160006101000a81548173ffffffffffffffffffffffffffffffffffffffff021916908373ffffffffffffffffffffffffffffffffffffffff16021790555060208201518160010155604082015181600201556060820151816003015560808201518160040160006101000a81548160ff02191690831515021790555060a08201518160040160016101000a81548173ffffffffffffffffffffffffffffffffffffffff021916908373ffffffffffffffffffffffffffffffffffffffff16021790555060c0820151816005015560e08201518160060160006101000a81548173ffffffffffffffffffffffffffffffffffffffff021916908373ffffffffffffffffffffffffffffffffffffffff16021790555061010082015181600701556101208201518160080160006101000a81548173ffffffffffffffffffffffffffffffffffffffff021916908373ffffffffffffffffffffffffffffffffffffffff16021790555090505060016000815480929190610f5c90612408565b919050555050505050565b600080600083815260200190815260200160002090508060040160009054906101000a900460ff16158015610fae57504281600101548260030154610fac9190612053565b105b610fed576040517f08c379a0000000000000000000000000000000000000000000000000000000008152600401610fe49061249c565b60405180910390fd5b8060060160009054906101000a900473ffffffffffffffffffffffffffffffffffffffff1673ffffffffffffffffffffffffffffffffffffffff166323b872dd600260009054906101000a900473ffffffffffffffffffffffffffffffffffffffff168360040160019054906101000a900473ffffffffffffffffffffffffffffffffffffffff1684600701546040518463ffffffff1660e01b8152600401611098939291906121a1565b600060405180830381600087803b1580156110b257600080fd5b505af11580156110c6573d6000803e3d6000fd5b5050505060018160040160006101000a81548160ff0219169083151502179055505050565b60606040518060400160405280600b81526020017f48656c6c6f20576f726c64000000000000000000000000000000000000000000815250905090565b600080600360008473ffffffffffffffffffffffffffffffffffffffff1673ffffffffffffffffffffffffffffffffffffffff16815260200190815260200160002060009054906101000a900473ffffffffffffffffffffffffffffffffffffffff16905060008173ffffffffffffffffffffffffffffffffffffffff1663feaf968c6040518163ffffffff1660e01b815260040160a060405180830381865afa1580156111da573d6000803e3d6000fd5b505050506040513d601f19601f820116820180604052508101906111fe919061253f565b5050509150508092505050919050565b600260009054906101000a900473ffffffffffffffffffffffffffffffffffffffff1681565b60015481565b7f000000000000000000000000000000000000000000000000000000000000000073ffffffffffffffffffffffffffffffffffffffff163073ffffffffffffffffffffffffffffffffffffffff1614806112e757507f000000000000000000000000000000000000000000000000000000000000000073ffffffffffffffffffffffffffffffffffffffff166112ce6115ac565b73ffffffffffffffffffffffffffffffffffffffff1614155b1561131e576040517fe07c8dba00000000000000000000000000000000000000000000000000000000815260040160405180910390fd5b565b61135f6040518060400160405280601581526020017f617574686f72697a65207570677261646520746f3a000000000000000000000081525082611603565b600260009054906101000a900473ffffffffffffffffffffffffffffffffffffffff1673ffffffffffffffffffffffffffffffffffffffff163373ffffffffffffffffffffffffffffffffffffffff16146113ef576040517f08c379a00000000000000000000000000000000000000000000000000000000081526004016113e690612606565b60405180910390fd5b50565b8173ffffffffffffffffffffffffffffffffffffffff166352d1902d6040518163ffffffff1660e01b8152600401602060405180830381865afa92505050801561145a57506040513d601f19601f820116820180604052508101906114579190612652565b60015b61149b57816040517f4c9c8ce30000000000000000000000000000000000000000000000000000000081526004016114929190611fee565b60405180910390fd5b7f360894a13ba1a3210667c828492db98dca3e2076cc3735a920a3ca505d382bbc60001b811461150257806040517faa1d49a40000000000000000000000000000000000000000000000000000000081526004016114f99190611cae565b60405180910390fd5b61150c838361169f565b505050565b7f000000000000000000000000000000000000000000000000000000000000000073ffffffffffffffffffffffffffffffffffffffff163073ffffffffffffffffffffffffffffffffffffffff1614611596576040517fe07c8dba00000000000000000000000000000000000000000000000000000000815260040160405180910390fd5b565b6000806115a3611712565b90508091505090565b60006115da7f360894a13ba1a3210667c828492db98dca3e2076cc3735a920a3ca505d382bbc60001b61173d565b60000160009054906101000a900473ffffffffffffffffffffffffffffffffffffffff16905090565b61169b828260405160240161161992919061267f565b6040516020818303038152906040527f319af333000000000000000000000000000000000000000000000000000000007bffffffffffffffffffffffffffffffffffffffffffffffffffffffff19166020820180517bffffffffffffffffffffffffffffffffffffffffffffffffffffffff8381831617835250505050611747565b5050565b6116a882611761565b8173ffffffffffffffffffffffffffffffffffffffff167fbc7cd75a20ee27fd9adebab32041f755214dbc6bffa90cc0225b39da2e5c2d3b60405160405180910390a2600081511115611705576116ff828261182e565b5061170e565b61170d6118b2565b5b5050565b60007ff0c57e16840df040f15088dc2f81fe391c3923bec73e23a9662efc9c229c6a0060001b905090565b6000819050919050565b61175e816117566118ef611910565b63ffffffff16565b50565b60008173ffffffffffffffffffffffffffffffffffffffff163b036117bd57806040517f4c9c8ce30000000000000000000000000000000000000000000000000000000081526004016117b49190611fee565b60405180910390fd5b806117ea7f360894a13ba1a3210667c828492db98dca3e2076cc3735a920a3ca505d382bbc60001b61173d565b60000160006101000a81548173ffffffffffffffffffffffffffffffffffffffff021916908373ffffffffffffffffffffffffffffffffffffffff16021790555050565b60606000808473ffffffffffffffffffffffffffffffffffffffff168460405161185891906126f6565b600060405180830381855af49150503d8060008114611893576040519150601f19603f3d011682016040523d82523d6000602084013e611898565b606091505b50915091506118a885838361191b565b9250505092915050565b60003411156118ed576040517fb398979f00000000000000000000000000000000000000000000000000000000815260040160405180910390fd5b565b60006a636f6e736f6c652e6c6f679050600080835160208501845afa505050565b6119ee819050919050565b6060826119305761192b826119aa565b6119a2565b60008251148015611958575060008473ffffffffffffffffffffffffffffffffffffffff163b145b1561199a57836040517f9996b3150000000000000000000000000000000000000000000000000000000081526004016119919190611fee565b60405180910390fd5b8190506119a3565b5b9392505050565b6000815111156119bc57805160208201fd5b6040517fd6bda27500000000000000000000000000000000000000000000000000000000815260040160405180910390fd5b6119f661270d565b565b6000604051905090565b600080fd5b600080fd5b6000819050919050565b611a1f81611a0c565b8114611a2a57600080fd5b50565b600081359050611a3c81611a16565b92915050565b600073ffffffffffffffffffffffffffffffffffffffff82169050919050565b6000611a6d82611a42565b9050919050565b611a7d81611a62565b8114611a8857600080fd5b50565b600081359050611a9a81611a74565b92915050565b600080600060608486031215611ab957611ab8611a02565b5b6000611ac786828701611a2d565b9350506020611ad886828701611a2d565b9250506040611ae986828701611a8b565b9150509250925092565b600080fd5b600080fd5b6000601f19601f8301169050919050565b7f4e487b7100000000000000000000000000000000000000000000000000000000600052604160045260246000fd5b611b4682611afd565b810181811067ffffffffffffffff82111715611b6557611b64611b0e565b5b80604052505050565b6000611b786119f8565b9050611b848282611b3d565b919050565b600067ffffffffffffffff821115611ba457611ba3611b0e565b5b611bad82611afd565b9050602081019050919050565b82818337600083830152505050565b6000611bdc611bd784611b89565b611b6e565b905082815260208101848484011115611bf857611bf7611af8565b5b611c03848285611bba565b509392505050565b600082601f830112611c2057611c1f611af3565b5b8135611c30848260208601611bc9565b91505092915050565b60008060408385031215611c5057611c4f611a02565b5b6000611c5e85828601611a8b565b925050602083013567ffffffffffffffff811115611c7f57611c7e611a07565b5b611c8b85828601611c0b565b9150509250929050565b6000819050919050565b611ca881611c95565b82525050565b6000602082019050611cc36000830184611c9f565b92915050565b600060208284031215611cdf57611cde611a02565b5b6000611ced84828501611a2d565b91505092915050565b611cff81611a62565b82525050565b611d0e81611a0c565b82525050565b60008115159050919050565b611d2981611d14565b82525050565b600061014082019050611d45600083018d611cf6565b611d52602083018c611d05565b611d5f604083018b611d05565b611d6c606083018a611d05565b611d796080830189611d20565b611d8660a0830188611cf6565b611d9360c0830187611d05565b611da060e0830186611cf6565b611dae610100830185611d05565b611dbc610120830184611cf6565b9b9a5050505050505050505050565b60008060408385031215611de257611de1611a02565b5b6000611df085828601611a8b565b9250506020611e0185828601611a8b565b9150509250929050565b600060208284031215611e2157611e20611a02565b5b6000611e2f84828501611a8b565b91505092915050565b6000819050919050565b6000611e5d611e58611e5384611a42565b611e38565b611a42565b9050919050565b6000611e6f82611e42565b9050919050565b6000611e8182611e64565b9050919050565b611e9181611e76565b82525050565b6000602082019050611eac6000830184611e88565b92915050565b600081519050919050565b600082825260208201905092915050565b60005b83811015611eec578082015181840152602081019050611ed1565b60008484015250505050565b6000611f0382611eb2565b611f0d8185611ebd565b9350611f1d818560208601611ece565b611f2681611afd565b840191505092915050565b60006020820190508181036000830152611f4b8184611ef8565b905092915050565b60008060008060808587031215611f6d57611f6c611a02565b5b6000611f7b87828801611a2d565b9450506020611f8c87828801611a2d565b9350506040611f9d87828801611a8b565b9250506060611fae87828801611a2d565b91505092959194509250565b6000819050919050565b611fcd81611fba565b82525050565b6000602082019050611fe86000830184611fc4565b92915050565b60006020820190506120036000830184611cf6565b92915050565b600060208201905061201e6000830184611d05565b92915050565b7f4e487b7100000000000000000000000000000000000000000000000000000000600052601160045260246000fd5b600061205e82611a0c565b915061206983611a0c565b925082820190508082111561208157612080612024565b5b92915050565b7f61756374696f6e20656e64656400000000000000000000000000000000000000600082015250565b60006120bd600d83611ebd565b91506120c882612087565b602082019050919050565b600060208201905081810360008301526120ec816120b0565b9050919050565b60006120fe82611a0c565b915061210983611a0c565b925082820261211781611a0c565b9150828204841483151761212e5761212d612024565b5b5092915050565b7f626964206d757374206265203e3d207374617274507269636500000000000000600082015250565b600061216b601983611ebd565b915061217682612135565b602082019050919050565b6000602082019050818103600083015261219a8161215e565b9050919050565b60006060820190506121b66000830186611cf6565b6121c36020830185611cf6565b6121d06040830184611d05565b949350505050565b6121e181611d14565b81146121ec57600080fd5b50565b6000815190506121fe816121d8565b92915050565b60006020828403121561221a57612219611a02565b5b6000612228848285016121ef565b91505092915050565b60006040820190506122466000830185611cf6565b6122536020830184611d05565b9392505050565b6000819050919050565b600067ffffffffffffffff82169050919050565b600061229361228e6122898461225a565b611e38565b612264565b9050919050565b6122a381612278565b82525050565b60006020820190506122be600083018461229a565b92915050565b7f6f6e6c792061646d696e00000000000000000000000000000000000000000000600082015250565b60006122fa600a83611ebd565b9150612305826122c4565b602082019050919050565b60006020820190508181036000830152612329816122ed565b9050919050565b7f6475726174696f6e206d757374206265203e203130207365636f6e6473000000600082015250565b6000612366601d83611ebd565b915061237182612330565b602082019050919050565b6000602082019050818103600083015261239581612359565b9050919050565b7f73746172745072696365206d757374206265203e203000000000000000000000600082015250565b60006123d2601683611ebd565b91506123dd8261239c565b602082019050919050565b60006020820190508181036000830152612401816123c5565b9050919050565b600061241382611a0c565b91507fffffffffffffffffffffffffffffffffffffffffffffffffffffffffffffffff820361244557612444612024565b5b600182019050919050565b7f61756374696f6e206e6f7420656e646564000000000000000000000000000000600082015250565b6000612486601183611ebd565b915061249182612450565b602082019050919050565b600060208201905081810360008301526124b581612479565b9050919050565b600069ffffffffffffffffffff82169050919050565b6124db816124bc565b81146124e657600080fd5b50565b6000815190506124f8816124d2565b92915050565b61250781611fba565b811461251257600080fd5b50565b600081519050612524816124fe565b92915050565b60008151905061253981611a16565b92915050565b600080600080600060a0868803121561255b5761255a611a02565b5b6000612569888289016124e9565b955050602061257a88828901612515565b945050604061258b8882890161252a565b935050606061259c8882890161252a565b92505060806125ad888289016124e9565b9150509295509295909350565b7f6f6e6c792061646d696e2063616e207570677261646500000000000000000000600082015250565b60006125f0601683611ebd565b91506125fb826125ba565b602082019050919050565b6000602082019050818103600083015261261f816125e3565b9050919050565b61262f81611c95565b811461263a57600080fd5b50565b60008151905061264c81612626565b92915050565b60006020828403121561266857612667611a02565b5b60006126768482850161263d565b91505092915050565b600060408201905081810360008301526126998185611ef8565b90506126a86020830184611cf6565b9392505050565b600081519050919050565b600081905092915050565b60006126d0826126af565b6126da81856126ba565b93506126ea818560208601611ece565b80840191505092915050565b600061270282846126c5565b915081905092915050565b7f4e487b7100000000000000000000000000000000000000000000000000000000600052605160045260246000fdfea2646970667358221220eb27a2a3fbbfb0f6ff0e5f900e31208070115d1c0b667f94056e978e00cdb2dd64736f6c634300081c0033",
  "linkReferences": {},
  "deployedLinkReferences": {}
}